:020000040800F2
:10000000100A0020D1010008913700081D350008B2
:1000100069360008D50700082D43000800000000DD
:10002000000000000000000000000000953D0008F6
:10003000190A00080000000095370008993D0008E3
:10004000EB010008EB010008EB010008EB010008E0
:10005000EB010008EB0100081D0A00083D0A00083A
:10006000EB010008EB010008EB010008EB010008C0
:10007000EB010008EB010008010A00080D0A000866
:10008000EB010008EB010008EB010008EB010008A0
:10009000EB010008EB010008EB010008EB01000890
:1000A000EB010008EB010008EB010008EB01000880
:1000B000EB010008EB010008EB010008EB01000870
:1000C000EB010008EB010008EB010008EB01000860
:1000D000EB01000801420008EB010008EB010008F9
:1000E000250A0008EB010008EB01000800F002F807
:1000F00000F05EF814A696E8000CB244B344DA456A
:1001000001D100F055F8BAE80F000FA696E83000CC
:10011000A5EB040504EB0607AAEB0704A7F101070A
:100120004FEA15154FEA3414A4F10104AC4201D38F
:1001300000F03EF813F0010F18BFFB1A43F0010363
:1001400000F001F8DBE71847EC4E00000C4F000010
:10015000103A24BF78C878C1FAD8520724BF30C8F3
:1001600030C144BF04680C60704700007047000055
:100170000023002400250026103A28BF78C1FBD8B0
:10018000520728BF30C148BF0B607047642900F098
:100190009380002070471FB500F0B8FA04000020DB
:1001A000002104F061FA401C60601FBD10B510BD55
:1001B00000F087FA1146FFF7EEFF04F0B9F800F0FF
:1001C000B7FA03B4FFF7F2FF03BC00F0FBFA00003C
:1001D0000948804709480047FEE7FEE7FEE7FEE7DB
:1001E000FEE7FEE7FEE7FEE7FEE7FEE70448054917
:1001F000054A064B704700009D3D0008ED000008D1
:1002000010040020100A0020100600201006002014
:100210000FB41CB50C0007AA009007D04142A142C0
:1002200002D32044401E01E04FF0FF30074B7B44D7
:1002300069460190069800F096F90020002C01D044
:10024000009908701CBC5DF814FB00005B03000003
:100250002DE9F0410E460446002020622046E16868
:10026000884730B3252805D0D4E901219047206A7A
:10027000401CF2E7E168204600278847050018D0B7
:10028000A5F14100192802D820354FF40067324605
:10029000294620462760FFF779FF40B1012804D0A6
:1002A000F61D26F007060836D8E7361DD6E728469D
:1002B000DAE7206ABDE8F0812DE9F0410646002426
:1002C00010687529314616A510D0AFF300800028BC
:1002D00002DA404213A507E031688A0701D512A56A
:1002E00002E0490704D511A5012401E0AFF3008025
:1002F00000210A2206F1240709E0B0FBF2FCB0FB62
:10030000F2F302FB1C00303078541846491C0028D8
:10031000F3D123462A463046BDE8F04100F0C4B888
:10032000000000002D0000002B0000002000000055
:1003300070B5064600F0B4F80468054630460A2257
:10034000002100F02BF92C6070BD30B505460B463E
:100350002A4613F8014B12F8010B08B1A042F8D05D
:100360001CB1002802D06D1CF1E7284630BD10B545
:10037000431C02E010F8011B71B18107FAD14FF064
:10038000013202C88C1A8C4314EAC211F9D0C01A87
:100390000A0603D0C01E10BDC01A10BD0A0401D049
:1003A000801E10BD0902FCD0401E10BD032A40F281
:1003B000308010F0030C00F0158011F8013BBCF107
:1003C000020F624498BF11F801CB00F8013B38BF1F
:1003D00011F8013BA2F1040298BF00F801CB38BF2D
:1003E00000F8013B11F0030300F02580083AC0F04B
:1003F000088051F8043B083A51F804CBA0E80810F3
:10040000F5E7121D5CBF51F8043B40F8043BAFF325
:100410000080D20724BF11F8013B11F801CB48BF7F
:1004200011F8012B24BF00F8013B00F801CB48BFB5
:1004300000F8012B704710B5203AC0F00B80B1E8EE
:100440001850A0E81850B1E81850A0E81850203A09
:10045000BFF4F5AF5FEA027C24BFB1E81850A0E812
:10046000185044BF18C918C0BDE810405FEA827C2C
:1004700024BF51F8043B40F8043B08BF7047D20743
:1004800028BF31F8023B48BF11F8012B28BF20F8E4
:10049000023B48BF00F8012B704770477047704718
:1004A00000487047200000202DE9F0470D4699468E
:1004B0009246044600F124080168880604D5E069E4
:1004C00021F01001216000E00120A84201DD471B5E
:1004D00000E00027A1697A1902EB0900081AA0615F
:1004E0002078C00602D42046AFF30080002608E042
:1004F000D4E901211AF806009047206A401C761CB6
:1005000020624E45F4DB2078C0060AD52046AFF3C2
:10051000008006E0D4E9012130209047206A401C89
:100520002062381EA7F10107F4DC07E0D4E90121BD
:1005300018F805009047206A401C2062281EA5F18B
:100540000105F3DC2046AFF300802078000602D5D9
:100550000220BDE8F0870120FBE7000001694A1C8A
:1005600002610878704700B58FB0CDE901310021F4
:10057000059105497944CDE9031011466846FFF716
:1005800067FE0FB000BD0000E5FFFFFFD1E90023CB
:100590009A4202D2531C0B60107070472DE9F0474D
:1005A00091460F4680460446002614F8015B2DB1A3
:1005B00000F030F80068405DC007F6D12B2D02D066
:1005C0002D2D18D0641E4A463946204600F02AF8E0
:1005D00027B13968A14201D1C7F800804FF0020469
:1005E00071050BD54042002803DDFFF759FF046079
:1005F000A007BDE8F08746F48066E4E70028F8DA53
:10060000FFF74EFF04606FF00040F2E700487047CC
:100610002000002010B500F079F8001D10BD00BFCB
:10062000494000002DE9F05F824615468B460027C1
:100630000AF10104B9460078302801D09DB113E0D9
:1006400014F8010B0127782803D0582801D045B1B0
:100650000AE00DB1102D07D1002714F8010B102569
:1006600002E0082500E00A250026B0460EE005FB62
:10067000080005FB06F101271FFA80F801EB104680
:10068000B6F5803F00D3B94614F8010B294600F0B7
:1006900041F80028EBDABBF1000F05D00FB1641E62
:1006A00000E05446CBF80040B9F1000F06D0FFF748
:1006B000F7FE02210160C81EBDE8F09F48EA06402F
:1006C000FAE77546FFF7A2FFAE46050069465346B6
:1006D00020F00700854618B020B5FFF787FDBDE87C
:1006E00020404FF000064FF000074FF000084FF099
:1006F000000BAC46ACE8C009ACE8C009ACE8C009E6
:10070000ACE8C00921F007018D46704700487047EA
:10071000400000203A2800D2303820F02002412A40
:1007200001D3A2F13700884201D34FF0FF30704768
:1007300010B50446AFF300802046BDE81040FFF737
:1007400040BD00004FF0013C50F8042B51F8043B31
:100750009A4221D1A2EB0C03934313EACC1317D195
:1007600050F8042B51F8043B9A4215D1A2EB0C032C
:10077000934313EACC130BD150F8042B51F8043BEC
:100780009A4209D1A2EB0C03934313EACC13DBD0BA
:100790004FF00000704700BFD01A01BAB1FA81F1E2
:1007A00001F0180122FA01F0CB40DBB2C0B2C01A4E
:1007B000C1F120012CFA01F3D11A914311EAC311BE
:1007C000E6D1704701491820ABBEFEE726000200C3
:1007D00070470000FEE7000070B590B00C466D4613
:1007E00001463F2C28BF3F2428462246FFF7DEFD66
:1007F000002658A128462E55FFF7A7FD002840F2F5
:10080000840456A16846C2F200041CBF266001267B
:10081000FFF79BFD00281EBF4FF07E502060012691
:1008200050A16846FFF791FD40F28004C2F2000437
:1008300038B102F0B1FF002020704CA003F050FC52
:10084000012652A16846FFF780FD40B1002000213B
:1008500002F038FF01264FA0267003F041FC56A19C
:100860006846FFF772FD40B10630FFF761FD40F2C8
:100870001801C2F2000101260860207801285DD12C
:100880004FA16846FFF761FD50B140F21800C2F277
:100890000000B0F90000014602F014FF10B070BD76
:1008A00049A16846FFF751FD60B140F21800C2F25D
:1008B00000000088404200B2014602F003FF10B081
:1008C00070BD00BF42A16846FFF73FFD60B140F236
:1008D0001800C2F20000B0F90010484200B202F065
:1008E000F1FE10B070BD00BF3BA16846FFF72DFDC3
:1008F00060B140F21800C2F20000B0F900004142BD
:1009000009B202F0DFFE10B070BD00BF34A168462E
:10091000FFF71BFD70B934A16846FFF716FD48B913
:1009200033A16846FFF711FD20B933A16846FFF7F0
:100930000CFD18B102F008FF10B070BD16B110B078
:1009400070BD00BF45F21800C0F6000003F0C8FB00
:1009500010B070BD5057523A300000005057523A14
:10096000310000004D4F44453A30000053544D33A0
:10097000323A20537769746368656420746F20414C
:1009800055544F204D6F64650D0A00004D4F44458E
:100990003A31000053544D33323A2053776974632F
:1009A00068656420746F204D414E55414C204D6F59
:1009B00064650D0A0000000053504545443A0000AC
:1009C00046573A310000000042573A31000000001B
:1009D000524C3A310000000052523A3100000000FF
:1009E00046573A300000000042573A3000000000FD
:1009F000524C3A300000000052523A3000000000E1
:100A000040F23810C2F2000000F058BC40F2F4008E
:100A1000C2F2000000F052BC70470000012000F05C
:100A2000FDBD000080B54FF4806000F0F7FD4FF48D
:100A30000060BDE8804000F0F1BD0000022000F041
:100A4000EDBD0000EFF3108072B600BFFEE70000BE
:100A50002DE9F04F8BB04CF6CD45C3F6CC558B4607
:100A600029460A931446824603F0C6FF4CF2000959
:100A7000002858462946C4F2794908BFCA4603F0FF
:100A8000BBFF00282046294608BFCB4603F0B4FF31
:100A900000210028C4F2A011504618BFA14603F05F
:100AA000B9FF98B90021C4F2F011504603F0ABFF32
:100AB00080B90020C4F2F010514604F023FA00215E
:100AC000C4F2201103F0C0FF044604E04FF07E544E
:100AD00001E000BF00240021C4F2C811504603F019
:100AE00099FF4FF0000558BB0021C4F28C215046FD
:100AF00003F089FF20BB0021C4F22021504603F0FF
:100B00007BFF68B10021C4F25C21504603F082FFF4
:100B1000A0B90020C4F28C20514604F0F3F905E09E
:100B20000021CCF2C811504603F0F6FE0021C4F2B9
:100B3000701103F089FF054602E000BF4FF07E55BB
:100B40000021C4F28221504603F064FF90B90021D5
:100B5000C4F29621504603F056FF68B90021CCF24A
:100B60008221504603F0D8FE0021C4F2201103F088
:100B70006BFF03E0002001E04FF07E500021089061
:100B8000C4F2A011584603F045FF0595A0B9002115
:100B9000C4F2F011584603F036FF88B90020C4F2C1
:100BA000F010594604F0AEF90021C4F2201103F010
:100BB0004BFF804606E000BF4FF07E5802E000BFCA
:100BC0004FF000080021C4F2C811584603F022FF7C
:100BD0004FF0000560BB0021C4F28C21584603F0A1
:100BE00012FF28BB0021C4F22021584603F004FF65
:100BF00070B10021C4F25C21584603F00BFFA8B984
:100C00000020C4F28C20594604F07CF906E000BFB5
:100C10000021CCF2C811584603F07EFE0021C4F238
:100C2000701103F011FF054602E000BF4FF07E5542
:100C30000021C4F28221584603F0ECFE90B9002155
:100C4000C4F29621584603F0DEFE68B90021CCF2CA
:100C50008221584603F060FE0021C4F2201103F007
:100C6000F3FE03E0002001E04FF07E5000210690EB
:100C7000C4F2A011484603F0CDFE98B90021C4F299
:100C8000F011484603F0BFFE80B90020C4F2F01016
:100C9000494604F037F90021C4F2201103F0D4FED4
:100CA000074604E04FF07E5701E000BF0027002117
:100CB000C4F2C811484603F0ADFE4FF0000658BB21
:100CC0000021C4F28C21484603F09DFE20BB002188
:100CD000C4F22021484603F08FFE68B10021C4F21F
:100CE0005C21484603F096FEA0B90020C4F28C2097
:100CF000494604F007F905E00021CCF2C811484646
:100D000003F00AFE0021C4F2701103F09DFE0646B6
:100D100002E000BF4FF07E560021C4F28221484617
:100D200003F078FE039698B90021C4F29621484654
:100D300003F069FE70B90021CCF28221484603F02D
:100D4000EBFD0021C4F2201103F07EFE04E000BFA1
:100D5000002001E04FF07E5004904FF07E5021467D
:100D600009944FF07E5404F0CDF82946019003F029
:100D7000FDFF06464FF07E503946079704F0C2F853
:100D800005463046294603F0F1FF064650465946CF
:100D900004F0B8F80021C4F22011074603F033FE36
:100DA000A8B90021CCF22011384603F033FE68B90F
:100DB0000021C4F22011384603F0AEFD0021C4F238
:100DC000A01103F041FE044601E000BF00243046BC
:100DD000214603F0CBFF06464846594604F092F8F8
:100DE0000021C4F22011044603F00DFEA0B9002139
:100DF000CCF22011204603F00DFE88B90021C4F288
:100E00002011204603F088FD0021C4F2A01103F058
:100E10001BFE014605E000BF4FF07E5101E000BF20
:100E20000021304603F0A2FF02904FF07E50414671
:100E3000CDF800804FF07E5404F064F80746059822
:100E4000394603F093FF294603F090FF05465846C4
:100E5000514604F057F80021C4F22011064603F071
:100E6000D2FDA0B90021CCF22011304603F0D2FD12
:100E700060B90021C4F22011304603F04DFD00217D
:100E8000C4F2A01103F0E0FD044600E0002428466F
:100E90002146CDF814B003F069FF05464846514697
:100EA00004F030F80021C4F22011044603F0ABFD39
:100EB000C0B90021CCF22011204603F0ABFDDDF8D3
:100EC00024B0039EC846A8B90021C4F220112046D0
:100ED00003F022FD0021C4F2A01103F0B5FD01468C
:100EE00009E000BFDDF824B0039EC8464FF07E51F4
:100EF00001E000BF0021284603F038FF8146019839
:100F0000314603F033FF0146384603F02FFF054614
:100F10005046414603F0F6FF0021C4F2201104467A
:100F200003F071FDA0B90021CCF22011204603F09E
:100F300071FD009F80B90021C4F22011204603F00A
:100F4000EBFC0021C4F2A01103F07EFD014604E099
:100F5000009F4FF07E5100E00021DDF81CA02846E4
:100F600003F004FF04460598414603F0CBFF00213F
:100F7000C4F22011054603F046FDA8B90021CCF2C9
:100F80002011284603F046FD029E88B90021C4F2D4
:100F90002011284603F0C0FC0021C4F2A01103F088
:100FA00053FD014605E000BF029E4FF07E5100E078
:100FB0000021204603F0DAFE04460898069903F063
:100FC000D5FE049903F0D2FE05465846394603F093
:100FD000A3FC514603F0A0FC314603F09DFC4946BA
:100FE00003F09AFC214603F097FC0146284603F0E3
:100FF00093FC5146B2460E4643F2BD71C3F2865190
:10100000C846B946074603F0FEFC48B90A99552080
:1010100008804FF6AB70149908800BB0BDE8F08FD4
:101020004846394603F010FD07905846394603F00C
:101030000BFD81463046394603F006FD0646504614
:10104000394603F001FD08904046394603F0FCFCA8
:1010500082462046394603F0F7FC09902846394677
:1010600003F0F2FC40F200088346C4F2C828079857
:10107000414603F07BFE0027C4F248270546484658
:10108000394603F073FE294603F046FC0446484601
:10109000414603F06BFE294603F03EFC0546304610
:1010A000414603F063FE214603F036FC0446304619
:1010B000394603F05BFE294603F02EFC0026054668
:1010C000C4F2AA260898314603F050FE214607468E
:1010D00003F022FC04463846294603F01DFC40F28A
:1010E0000009C4F2702905465046494603F03EFE09
:1010F000214603F011FC04465046314603F036FE0B
:10110000294603F009FC099F05463846314603F09D
:101110002DFE214603F000FC04463846494603F004
:1011200025FE294603F0F8FB05465846314603F0F4
:101130001DFE214603F0F0FB00210446CCF2AA215B
:10114000584603F013FE294603F0E6FB0546204609
:10115000414603F051FC0026CCF2C82600281CBFF3
:101160000024C4F2C8242046314603F05AFC00286B
:10117000284641461CBF0024CCF2C82403F03CFCA6
:1011800000281CBF0025C4F2C8252846314603F0BC
:1011900048FC002820461CBF0025CCF2C82503F0DF
:1011A00049FD0A990880284603F044FD14990880F7
:1011B0000BB0BDE8F08F0000014690F82100022836
:1011C00016D10868D1E90FC3026822F00E0202604E
:1011D000026822F001020260012000FA03F2CCF85A
:1011E000042081F821000020002281F8202070478F
:1011F000042088630120002281F82020704700002D
:1012000090F82110022923D1026840F2040C1168E1
:10121000C4F2020C21F00E01116013682F21C4F2F8
:1012200002018A4223F00103136015DD3023C4F26A
:1012300002039A421CD04423C4F202039A421BD0F8
:101240005823C4F202039A421CD14FF4803321E0A8
:1012500004218163012070470823C4F202039A42EB
:101260000ED01C23C4F202039A420BD1102311E0CA
:101270004FF480730EE000BF4FF480530AE000BFCC
:10128000012307E00CF168014FF080738A4208BF28
:101290004FF480130121CCF8003080F82110416B0D
:1012A0000022002980F8202004BF0020704780B56C
:1012B0008847002080BD0000806B704710B5D0E9E2
:1012C0000FCE0168DCF800300A6823FA0EF35C07E1
:1012D0002AD512F0040427D00A68920603D40A68BB
:1012E00022F004020A602F22C4F20202914240F26C
:1012F0000402C4F202025BDD3023C4F2020399420D
:1013000072D04423C4F20203994273D05823C4F22A
:101310000203994240F07A804FF480231360C16A3F
:10132000002940F098806FE09C0727D512F0020456
:1013300024D00A68920606D40A6822F00A020A60DB
:10134000012280F821202F22C4F20202914240F2B1
:101350000402C4F202023BDD3023C4F202039942CC
:1013600060D04423C4F2020399425FD05823C4F2F0
:101370000203994260D14FF4003365E01B0743D567
:1013800012F0080208BF10BD0A6822F00E020A60BF
:10139000012101FA0EF2CCF80420816380F82110BB
:1013A000016B0022002980F8202054D12CE000BFDE
:1013B0000823C4F20203994222D01C23C4F2020380
:1013C000994223D140231360C16A002943D11BE015
:1013D0000823C4F2020399422CD01C23C4F2020356
:1013E000994229D120232FE04FF480631360C16A12
:1013F00089BB09E04FF480431360C16A59BB03E025
:1014000004231360C16A31BB10BD00BF02F1680440
:101410004FF08063A14208BF4FF480031360C16A9C
:10142000C9B9F1E74FF400730EE000BF4FF4005369
:101430000AE000BF022307E002F168044FF00073E6
:10144000A14208BF4FF400131360816A00220029F3
:1014500080F82020D8D0BDE8104008470146002879
:101460004FF0010008BF70472DE9F043D1F800C0EC
:101470004FF6F873CBF6FD734CF6CD426344CCF6D1
:10148000CC42A3FB02236FF0030202EA9302002383
:10149000C4F2020301F10C08C1E90F320222D1E9C2
:1014A000019E98E8F00181F82120DCF8002043F645
:1014B000F0739A4342EA090242EA0E0222432A43A7
:1014C00032433A4342EA0802CCF8002000228A6301
:1014D00081F8210081F820200020BDE8F04370470A
:1014E00090F820C0BCF1010F04BF02207047F0B596
:1014F0004FF0010E80F820E090F821C0BCF1010F00
:1015000026D14FF0020C80F821C04FF0000CC0F83B
:1015100038C0D0E900C4C56AC66BDCF80070102C76
:1015200027F00107CCF80070006C0EFA00F0706034
:101530000846CCF8043004BF10460A46CCF8080030
:10154000CCF80C20DCF8000045B140F00E000DE0B6
:10155000002180F820100220F0BD00BF20F0040020
:10156000CCF80000DCF8000040F00A00CCF80000E5
:10157000DCF8000040F00100CCF800000020F0BDD5
:10158000B0B5044600F06AF9054640F20000C2F228
:1015900000000078611C18BF044400BF00F05EF931
:1015A000401BA042FAD3B0BD40F60341084208BF39
:1015B000704770B540F60044C4F201042046012192
:1015C000012500F03FF9B0FA80F0460920460221DB
:1015D00000F038F9002820464FF4806108BF023639
:1015E00000F030F9002820464FF4006108BF0436AF
:1015F00000F028F9002808BF083630060AD040F26B
:10160000D004C2F20004607830436070257000F0AE
:1016100025F96060BDE870407047000040F2144159
:10162000C4F201010A68024214BF08607047FFF764
:10163000BBBF00002DE9F04F82B00E68002E00F015
:10164000FD8041F20042C4F20102042340F2004E48
:10165000904208BF03234FF6FF7CC4F2010E0093B3
:1016600000240123C1F2100C4FF0000A4FF00009D2
:101670004BE000BF41F20002C4F20102009F904221
:1016800008BF022704F00C030F229A402BEA020243
:1016900007FA03F34FEA9A051A4346F825204E68E5
:1016A00040F20C45F202DEF8082054BF22EA08029C
:1016B00042EA0802C4F20105CEF808202A68B30203
:1016C00054BF22EA080242EA08022A60B303DEF8A5
:1016D000042054BF22EA080242EA0802F303CEF8CB
:1016E0000420DEF800204FF0010354BF22EA080274
:1016F00042EA0802CEF800200E680AF1010A36FA22
:101700000AF204F1040400F0998003FA0AFB16EAD5
:101710000B08F1D04E68664512DC122E56D8DFE871
:1017200006F0350B4D49555555555555555555559B
:1017300055555545510000BFD1F80C9046E000BF0B
:101740004FF6FF72C1F2210296420FDC0022C1F275
:10175000110296421AD00022C1F21202964215D00E
:101760000022C1F22102964210D02FE00022C1F2E5
:10177000220296420AD00022C1F23102964205D0DE
:101780000022C1F23202964220D100BF8A684AB1DB
:10179000012A14BFC0F814B0C0F810B04FF0080907
:1017A00014E000BF4FF0040910E000BFCA6802F166
:1017B00004090BE04FF0000908E000BFCA6802F11D
:1017C000080903E0CA6802F10C0900BF0246264678
:1017D000B8F5807F24BF0432203E17680F25B5403E
:1017E00027EA050509FA06F635431560CA79D206D7
:1017F0007FF582AF41F21803C4F202031A68AEF516
:101800007E7642F001021A601A6802F0010201922B
:10181000019A2AF0030256F802B040F60002C4F220
:101820000102904208D040F60042C4F20102904208
:101830007FF420AF012725E7002723E702B0BDE8AA
:10184000F08F00008068084018BF0120704700003A
:10185000002A08BF090401617047000040F20C40F3
:10186000C2F200000068704740F2000040F20C41F4
:10187000C2F20000C2F2000100780A681044086059
:101880007047000080B542F20000C4F20200016817
:1018900041F010010160032000F08CF80F2000F0EF
:1018A00005F800F027F8002080BD000070B540F278
:1018B0000006C2F2000640F214013278C2F20001C2
:1018C0004FF47A730968B3FBF2F20446B1FBF2F10C
:1018D000084600F085FB0F2C4FF0010508D838B9F9
:1018E0004FF0FF3021460022002500F037F87460E9
:1018F000284670BD82B041F21800C4F202000168AF
:10190000022241F001010160016801F00101019131
:101910000199416841F080514160406800F0805079
:10192000009000980420C4F20100016862F31A617B
:10193000016002B070470000002848BF704700F007
:101940001F01012202FA01F11C2202EAD0004EF22C
:101950000012CEF2000281507047000010B54EF622
:101960000C5CCEF2000CDCF80030C3F3022E8EF0DB
:101970000704042C28BF0424BEF103034FF0FF3EEC
:101980000EFA04F438BF0023A14399400EFA03F382
:101990009A43114300F00F0200F160430901043A39
:1019A00003F564436244002848BF02F10C03197038
:1019B00010BD00004EF60C51CEF200010A684FF641
:1019C000FF031A4060F30A2242F0806040F0FD708D
:1019D00008607047002804BF012070472DE9F043DC
:1019E00081B042F20008C4F202080446D8F80000B0
:1019F0000D4600F0070081420CD9D8F8000020F015
:101A000007002843C8F80000D8F8000000F00700DD
:101A1000A8426CD1206841F204098107C4F202098E
:101A200017D5410705D5D9F8001041F4E061C9F890
:101A30000010010705D5D9F8001041F46051C9F82C
:101A40000010D9F80010A26821F0F0011143C9F884
:101A50000010C00742D1D8F8000000F0070085420E
:101A60000CD2D8F8000020F007002843C8F8000086
:101A7000D8F8000000F00700A84238D120684107DC
:101A800007D5D9F80010E26821F4E0611143C9F8E4
:101A90000010000708D5D9F80000216920F4605033
:101AA00040EAC100C9F80000D9F8002002F00C009B
:101AB000082841F20020C0F27A004DD145F2080317
:101AC000C2F38341C0F60003595CD20338D440F618
:101AD0000010C0F23D0048433EE000BF606859F886
:101AE000041C022808D0012826D1890306D401202D
:101AF00001B0BDE8F08300BF8901F8D5D9F8001026
:101B000021F003010843C9F80000FFF7A7FE0646CD
:101B100041F28837D9F80000616800F00C00B0EBA2
:101B2000810F98D0FFF79AFE801BB842F2D90320AC
:101B300001B0BDE8F08300BF8907D8D5DEE700BF5C
:101B4000D9F8002045F20603C2F34042C0F6000374
:101B50009A5C4843B0FBF2F0D9F8001044F6EE72FC
:101B6000C1F30311C0F60002515C40F2140220FAE6
:101B700001F140F20400C2F200000068C2F200026B
:101B80001160FFF793FE002001B0BDE8F083000074
:101B900040F2140041F20401C2F20000C4F202015A
:101BA0000068096844F6FE72C1F30221C0F6000223
:101BB000515CC8407047000040F2140041F204013B
:101BC000C2F20000C4F202010068096844F6FE7225
:101BD000C1F3C221C0F60002515CC840704700004A
:101BE000002804BF012070472DE9F04182B004466F
:101BF000007841F20006C007C4F202060CD07068FB
:101C000000F00C00042840F081803068800303D588
:101C10006068002800F04681207880071BD5706836
:101C200010F00C0F09D0706800F00C00082840F08C
:101C300087807068C00300F183803068800703D517
:101C40002069012840F02E813068616920F0F80099
:101C500040EAC10030602078000713D420784007A4
:101C60002CD4E569002D00F01881706800F00C009C
:101C7000082840F0A780012D40F00481012002B027
:101C8000BDE8F081A069002800F084800020C4F243
:101C900042200121C0F88014FFF7E0FD054600BF97
:101CA000706A800700F1B280FFF7D8FD401B022860
:101CB000F6D9032002B0BDE8F08100BFF0695FEA09
:101CC000C00808D4F06940F08050F061F06900F07D
:101CD00080500090009847F20007C4F2000738686F
:101CE000C00549D4386840F480703860FFF7B6FD0D
:101CF000054600BF3868C0053ED4FFF7AFFD401B66
:101D00006428F7D9032002B0BDE8F081706800F0C4
:101D10000C00082803D17068C0033FF576AF6168F6
:101D20003068002900F00C81B1F5A02F00F000818F
:101D3000B1F5803F40F01A8140F480301CE100BFD3
:101D40002069002840F20000C4F2422000F08880A0
:101D500001210160FFF782FD054600BF3068800762
:101D60003FF572AFFFF77AFD401B0228F6D903203A
:101D700002B0BDE8F08100BFE168306A002900F0E0
:101D80009D80052900F09280012940F0AF8040F04D
:101D90000100B1E00020C4F242200021C0F880140C
:101DA000FFF75CFD054600BF706A80077FF556AF00
:101DB000FFF754FD401B0228F6D9032002B0BDE80E
:101DC000F08100BF0027C4F2422700203866FFF7E9
:101DD00045FD022D05460DD13068800140F1DE80C1
:101DE000FFF73CFD401B02284FF00300F4D902B07E
:101DF000BDE8F081306880014FD5FFF72FFD401B13
:101E000002284FF00300F5D9F1E700BF40F21400BB
:101E1000C2F20000006844F6D351C1F26201A0FB97
:101E20000101480A019000BF00BF0198411E00282F
:101E300001913FF413AF00BF0198411E00280191AA
:101E40003FF40CAF00BF0198411E002801913FF400
:101E500005AF00BF0198411E00280191E4D1FDE6C5
:101E600000210160FFF7FAFC054600BF30688007DB
:101E70007FF5F1AEFFF7F2FC401B02284FF00300A4
:101E8000F4D9B4E77068216A00F480328A4209D13B
:101E9000616A00F47010884204D1002002B0BDE8ED
:101EA000F08100BF012002B0BDE8F08140F00400E5
:101EB0003062306A40F001001EE000BF20F00100F7
:101EC0003062306A20F004003062FFF7C7FC05463C
:101ED00041F28837306A800720D5FFF7BFFC401BEE
:101EE000B8424FF00300F5D981E700BF20F00100B0
:101EF0003062306A20F004003062FFF7AFFC054624
:101F000041F28837306A800708D4FFF7A7FC401BEE
:101F1000B842F7D9032002B0BDE8F081B8F1000F54
:101F20003FF59FAEF06920F08050F06199E600BF68
:101F300040F480203060306840F480301CE000BF06
:101F400020F480303060306820F480203060FFF76B
:101F500085FC0546306880037FF55EAEFFF77EFCAA
:101F6000401B64284FF00300F4D940E720F4803090
:101F70003060306820F480203060FFF76FFC054649
:101F8000306880033FF548AEFFF768FC401B6428CB
:101F9000F6D9032002B0BDE8F08100BF206AB0F599
:101FA000803F05D17168A26821F40031114371604E
:101FB0007168626A21F47411114308437060012052
:101FC0003866FFF74BFC0446306880013FF565AF8B
:101FD000FFF744FC001B02284FF00300F4D906E78A
:101FE000411E0020B0EB116F1CBF012070474EF264
:101FF0001002CEF2000251604EF62351CEF20001E3
:10200000F0230B70072190601160704790F83C201E
:10201000012A4FF0020236D010B580F83D20026848
:10202000D2F804E0D2F808C00C682EF07003234305
:1020300040F2FF74C4F20004A24253600ADCB2F121
:10204000804F13D040F20043C4F200039A420DD0F7
:1020500011E000BF42F60043C4F201039A4205D0EA
:1020600040F60003C4F200039A4204D149682CF000
:102070008003194391600121002280F83D1080F80F
:102080003C20BDE81040104670470000002804BF07
:102090000120704710B590F83D1031B9002180F84B
:1020A0003C10044600F070F82046022180F83D10F4
:1020B000016840F2FF740B68C4F2000442F6004C61
:1020C000A142C4F2010C15DCB1F1804F1AD040F2EC
:1020D0000042C4F20002914214D0A14218DCB1F1D6
:1020E000804F1DD040F20042C4F20002914217D04E
:1020F0001AE000BF614505D040F60002C4F20002BC
:102100009142EAD1826823F070031343A142E6DDD5
:10211000614505D040F60002C4F20002914203D1AD
:10212000026923F440731343846923F08002D0F8DA
:1021300004E0C368224361450A60CB62C1F828E02D
:1021400002D14269CCF8302001224A610B69DB07D9
:1021500003D00B6923F001030B6180F8462080F85F
:102160003E2080F83F2080F8402080F8412080F811
:10217000422080F8432080F8442080F8452080F8F1
:102180003D20002010BD00000068B0F1804F18BF56
:10219000704781B041F21C00C4F20200016841F0B6
:1021A00001010160006800F001000090009801B09A
:1021B0007047000090F83D1001291CBF01207047B6
:1021C000022180F83D10006840F2FF71C4F2000166
:1021D000884209DCB0F1804F12D040F20041C4F2D5
:1021E000000188420CD012E042F60041C4F2010125
:1021F000884205D040F60001C4F20001884206D1B1
:10220000816801F00701062904BF002070470168BA
:1022100041F00101016000207047000090F83C206F
:10222000012A4FF002026CD080B580F83D20D0F832
:1022300000C04FF67772DCF8083023EA0202CCF8CF
:1022400008200B684F2B29DC1F2B45DD202B46D0A7
:10225000302B44D0402B40F0AF80D1F804E0C96867
:10226000DCF82030DCF8202022F00102CCF820201D
:10227000DCF8182022F0F00242EA011123F00A02F1
:1022800042EA0E02CCF81810CCF82020DCF8081036
:1022900041F0470121F0300128E000BF6F2B33DD12
:1022A000B3F5005F74D0B3F5805F21D0702B40F0A0
:1022B0008380D1E901E3C968DCF8082043EA0E0312
:1022C00022F47F4243EA01211143CCF80810DCF8E4
:1022D000081041F0770109E00BB1102B6CD1DCF84C
:1022E000081021F07001194341F00701CCF80810E3
:1022F0000022012180F83D10002180F83C10BDE84B
:1023000080401046704700BF502B21D0602B53D126
:10231000D1F804E0C968DCF82030DCF8202022F095
:102320001002CCF82020DCF8182022F4704242EA97
:10233000013123F0A00242EA0E12CCF81810CCF8BA
:102340002020DCF8081041F0670121F01001CDE7F2
:10235000D1F804E0C968DCF82030DCF8202022F055
:102360000102CCF82020DCF8182022F0F00242EA2A
:10237000011123F00A0242EA0E02CCF81810CCF840
:102380002020DCF8081041F0570121F02001ADE7D2
:10239000D1E901E3C968DCF8082043EA0E0322F41E
:1023A0007F4243EA01211143CCF80810DCF8081001
:1023B00041F480419AE700BF01229AE780B586B0D8
:1023C000016840F20040C4F2000081424FF0000179
:1023D000CDE90411CDE9021102D006B080BD00BFE5
:1023E00041F21801C4F202010A6800F5823042F09D
:1023F00004020A60096801F0040101910199C021F9
:10240000029102210391059102A9FFF713F906B089
:1024100080BD000090F83C30012B04BF02207047C3
:102420004FEAB202032A00F2F1802DE9F043DFE81F
:1024300002F003A53B7500BF036842F600461D6A23
:102440001A6AC4F2010622F001021A621A465C6896
:1024500052F818CFB3428E68D1F800E025F002059B
:1024600045EA06050CD1CE68D1E9057824F440741C
:1024700025F00C0526F004063C43354344EA0804E5
:102480002CF0730747EA0E075C609F614F6809698B
:102490005F631D629F6947F008079F619F6927F08E
:1024A00004079F61A6E000BF036842F600461D6A6C
:1024B0001A6AC4F2010622F480721A621A46D3F82C
:1024C00004C052F81CEFB3428E680C6825F4007506
:1024D00045EA06250FD1CE68D1E90598360240F2CB
:1024E000FF4725F44065BE4335432CF4405748EA86
:1024F000090647EA061C2EF073072743C3F804C0F9
:10250000DF614F680969DF631D62DF6947F0080713
:10251000DF61DF6927F00407DF616BE0036842F6E3
:102520000047D3F820C01A6AC4F2010722F480528F
:102530001A621A465C6852F81C5FD1F800E08E6897
:10254000BB4204D14F6924F4804444EA87142CF43C
:10255000005747EA063725F4E64646EA0E265C6051
:10256000DE614E6809691E641F62DF6947F4006717
:10257000DF61DF6927F48067DF613AE0036842F6D4
:1025800000461D6A1A6AC4F2010622F010021A629D
:102590001A46D3F804C052F8184FB3428E68D1F8E7
:1025A00000E025F0200545EA06150FD1CE68D1E9F7
:1025B00005986FF0400725F0C00507EA0616354379
:1025C0002CF4406748EA090647EA860C24F4E644FE
:1025D00044EA0E27C3F804C09F614F6809699F63EE
:1025E0001D629F6947F400679F619F6927F48067B8
:1025F0009F6109021368194311600021BDE8F0438F
:10260000002280F83C200846704700BF01210022CC
:1026100080F83C2008467047002804BF012070471E
:1026200010B590F83D1031B9002180F83C100446F7
:1026300000F070F82046022180F83D10016840F259
:10264000FF740B68C4F2000442F6004CA142C4F2CD
:10265000010C15DCB1F1804F1AD040F20042C4F2F7
:102660000002914214D0A14218DCB1F1804F1DD07C
:1026700040F20042C4F20002914217D01AE000BFBB
:10268000614505D040F60002C4F200029142EAD151
:10269000826823F070031343A142E6DD614505D053
:1026A00040F60002C4F20002914203D1026923F411
:1026B00040731343846923F08002D0F804E0C368B8
:1026C000224361450A60CB62C1F828E002D1426929
:1026D000CCF8302001224A610B69DB0703D00B697B
:1026E00023F001030B6180F8462080F83E2080F83B
:1026F0003F2080F8402080F8412080F8422080F878
:10270000432080F8442080F8452080F83D200020B8
:1027100010BD0000006840F20041C4F20001884290
:1027200018BF704781B041F21C00C4F2020001687A
:1027300041F002010160006800F002000090009882
:1027400001B07047C1B1042908D0082914BF412243
:102750004022825C012A05D016E000BF3F22825C45
:10276000012A11D10222082910D0042914BF80F8AF
:10277000412080F83F200BE090F83E20012A03D151
:10278000022280F83E2003E00120704780F84020BC
:10279000006801F01F010122036A8A4023EA020156
:1027A0000162036A42F64441C4F201011A43A1F1F5
:1027B0004403984202620FD040F2FF71C4F200015C
:1027C000884213DCB0F1804F1CD040F20041C4F2CB
:1027D0000001884216D01CE00A6842F400420A60F8
:1027E00040F2FF71C4F200018842EBDD42F6004185
:1027F000C4F20101884205D040F60001C4F2000194
:10280000884206D1816801F00701062904BF002033
:102810007047016841F0010101600020704700002D
:1028200090F84230202B0BD194460A4600294FF0F5
:10283000010118BFBCF1000F06D10846704700BF68
:1028400002210846704700BF70B582B001210163C4
:102850000025222145638262A0F82CC0456480F8DF
:1028600042100168C36B43F6297444F2890E43F6A3
:10287000AD56C0F60004C0F6000EC0F60006C3E96F
:102880000A4EC3E90C650431044618466346FEF758
:1028900027FE0195216820460A6801924968019146
:1028A0000199216931B300BF016851E8031F026833
:1028B00041F4807142E80313E3B1016851E8031F5A
:1028C000026841F4807142E803139BB1016851E84A
:1028D000031F026841F4807142E8031353B1016899
:1028E00051E8031F026841F4807142E80313002B92
:1028F000DAD100BF016851E8051F026841F001010B
:1029000042E80513BBB3016851E8051F026841F0B6
:10291000010142E8051373B3016851E8051F02681D
:1029200041F0010142E805132BB3016851E8051F8E
:10293000026841F0010142E80513002BDAD11AE0E8
:10294000016851E8051F026841F0400142E80513A3
:10295000DBB1016851E8051F026841F0400142E81F
:10296000051393B1016851E8051F026841F0400169
:1029700042E805134BB1016851E8051F026841F0B8
:10298000400142E80513002BDAD1016B012933D154
:102990000021009101680A6800924968009100993D
:1029A000016851E8031F026841F0100142E8031377
:1029B000DBB1016851E8031F026841F0100142E8F1
:1029C000031393B1016851E8031F026841F010013D
:1029D00042E803134BB1016851E8031F026841F05C
:1029E000100142E80313002BDAD1002102B0BDE848
:1029F00070400846704700BF012102B0BDE870403A
:102A000008467047006843F60002C4F20102904293
:102A100018BF704770B540F20C2440F20C35FF2906
:102A200028BFFF21C2F20004C2F200050E46204674
:102A300029463246FDF7FFFC0020A05540F2D800A1
:102A400040F2C414C2F200000121C2F20004468028
:102A50000170204600F010F8204629464FF480729D
:102A6000FFF7DEFEE06B0068016821F00401016001
:102A7000BDE870407047000010B50446206850E87B
:102A8000030F216820F4907041E80302BAB3206874
:102A900050E8030F216820F4907041E8030272B3FC
:102AA000206850E8030F216820F4907041E8030289
:102AB0002AB3206850E8030F216820F4907041E8A1
:102AC0000302002ADAD11AE0206850E8050F2168D5
:102AD00020F0010041E80502DAB1206850E8050F56
:102AE000216820F0010041E8050292B1206850E819
:102AF000050F216820F0010041E805024AB1206875
:102B000050E8050F216820F0010041E80502002A85
:102B1000DAD1206B012824D1206850E8030F216806
:102B200020F0100041E80302DAB1206850E8030FFA
:102B3000216820F0100041E8030292B1206850E8BB
:102B4000030F216820F0100041E803024AB1206819
:102B500050E8030F216820F0100041E80302002A2A
:102B6000DAD120684069400636D500BF206850E8B9
:102B7000050F216820F0400041E80502DAB1206825
:102B800050E8050F216820F0400041E8050292B1AD
:102B9000206850E8050F216820F0400041E8050258
:102BA0004AB1206850E8050F216820F0400041E854
:102BB0000502002ADAD1E06B70B100214163FEF713
:102BC000FBFA48B1E06BFEF777FB202804D1102018
:102BD0006064032010BD00BF00202021E08584F840
:102BE0004210206310BD0000006843F60001C4F2EB
:102BF0000101884218BF704710B540F2C414C2F2F8
:102C0000000440F20C31C2F2000120464FF4807201
:102C1000FFF706FEE06B0068016821F00401016027
:102C2000BDE8104070470000B0B582B001680A6886
:102C3000CC684B6902F02F05202D04F0200505D14A
:102C400025B102B0BDE8B04001F05ABA5FEA027C9B
:102C50001EBF03F0010E04F4907313EB0E0341D179
:102C6000036BD50618D5012B16D114F0100313D021
:102C7000002201920A6801924A680192019A496908
:102C800049064BD4818DC28DC38D002B18BF914254
:102C900040F0F48102B0B0BD13062DD514F08003CE
:102CA0002AD090F84120212AF4D18268B2F5805FC1
:102CB00003D10269002A00F06782026A531C036292
:102CC00012784A60C28C013A1304C284E2D1C86807
:102CD00020F08000C860C86840F04000C86002B0C2
:102CE000B0BD00BFD30718BF14F4807340F0D0808C
:102CF000530700F1D380D8E05206CBD514F0400240
:102D0000C8D0CA6822F04002CA60202180F8411071
:102D100002B0BDE8B04000F0FFBB00BFC16B0A6865
:102D2000526893B2002BB5D0858DAB42B2D2C2852A
:102D30008969202900F0A180016851E8031F026819
:102D400021F4807142E80313DBB1016851E8031FED
:102D5000026821F4807142E8031393B1016851E8DD
:102D6000031F026821F4807142E803134BB101682C
:102D700051E8031F026821F4807142E80313002B1D
:102D8000DAD1016851E8051F026821F0010142E82B
:102D90000513C3B3016851E8051F026821F0010162
:102DA00042E805137BB3016851E8051F026821F072
:102DB000010142E8051333B3016851E8051F0268B9
:102DC00021F0010142E80513002BDAD11BE000BF1E
:102DD000016851E8051F026821F0400142E805132F
:102DE000DBB1016851E8051F026821F0400142E8AB
:102DF000051393B1016851E8051F026821F04001F5
:102E000042E805134BB1016851E8051F026821F043
:102E1000400142E80513002BDAD1202180F842104E
:102E200000210163016851E8031F026821F01001CD
:102E300042E80313DBB1016851E8031F026821F087
:102E4000100142E8031393B1016851E8031F0268BF
:102E500021F0100142E803134BB1016851E8031F50
:102E6000026821F0100142E80313002BDAD1C16B94
:102E700004460846FEF7A0F9204602214163818DF1
:102E8000C28D891A89B202B0BDE8B040FFF7BABD61
:102E9000436C43F001034364530706D5BEF1000FB2
:102EA00003D0436C43F002034364930706D5BEF19D
:102EB000000F03D0436C43F004034364BCF1000FE4
:102EC00006D55EEA050303D0436C43F00803436470
:102ED000436C002B3FF4DEAE920605D525B10446C7
:102EE00001F00EF9216820464969426C01F0400169
:102EF00002F00802891800F0B98000BF016851E8AB
:102F0000031F026821F4907142E80313BBB3016808
:102F100051E8031F026821F4907142E8031373B370
:102F2000016851E8031F026821F4907142E803131D
:102F30002BB3016851E8031F026821F4907142E845
:102F40000313002BDAD11AE0016851E8051F02686B
:102F500021F0010142E80513DBB1016851E8051FCA
:102F6000026821F0010142E8051393B1016851E8BC
:102F7000051F026821F0010142E805134BB1016809
:102F800051E8051F026821F0010142E80513002BFA
:102F9000DAD1016B012924D1016851E8031F0268CD
:102FA00021F0100142E80313DBB1016851E8031F6F
:102FB000026821F0100142E8031393B1016851E85F
:102FC000031F026821F0100142E803134BB10168AE
:102FD00051E8031F026821F0100142E80313002B9F
:102FE000DAD1202180F8421000210163016849698B
:102FF000490640F1C380016851E8051F026821F0CD
:10300000400142E80513DBB1016851E8051F026881
:1030100021F0400142E8051393B1016851E8051F12
:10302000026821F0400142E805134BB1016851E804
:10303000051F026821F0400142E80513002BDAD198
:10304000C16B002900F09A8043F6A152C0F600023D
:10305000044608464A63FEF7D3F800283FF41AAE48
:10306000E06B416B02B0BDE8B04008470446FFF793
:10307000BBFD0020606402B0B0BD00BF891A00BF74
:10308000026852E8032F036822F4907243E8032594
:10309000BDB3026852E8032F036822F4907243E83C
:1030A000032575B3026852E8032F036822F4907277
:1030B00043E803252DB3026852E8032F036822F486
:1030C000907243E80325002DDAD11AE0026852E835
:1030D000052F036822F0010243E80525DDB10268EF
:1030E00052E8052F036822F0010243E8052595B157
:1030F000026852E8052F036822F0010243E8052523
:103100004DB1026852E8052F036822F0010243E83E
:103110000525002DDAD1202280F84220002202630A
:10312000026852E8032F036822F0100243E80325E7
:10313000DDB1026852E8032F036822F0100243E871
:10314000032595B1026852E8032F036822F01002AC
:1031500043E803254DB1026852E8032F036822F0CB
:10316000100243E80325002DDAD1022289B242631E
:1031700002B0BDE8B040FFF745BC00BF02B0BDE8FB
:10318000B040FFF731BD00BF026A32F8023B6FF377
:103190005F234B60026295E5002804BF0120704761
:1031A00010B5044690F8410028B9002084F840008A
:1031B000204600F063F8242084F841002068D4E918
:1031C0000212C36823F40053C360036923F440531D
:1031D0001A430261D4E904231143C268194341F23E
:1031E0000C639A431143C1604169A26921F44071A3
:1031F000114343F60002C4F201029042416103D040
:10320000FEF7C6FC02E000BFFEF7D6FCD4E90023BF
:10321000192148439900B0FBF1F048F21F5CC5F258
:10322000EB1CA0FB0C314FF69C734909C0F6FF73F1
:1032300001FB0300322303EB0010A0FB0C03F02082
:1032400000EA531000EB0110C3F3431108449060EF
:103250001069202120F490401061506920F02A006C
:103260005061D06840F40050D0600020606484F861
:10327000411084F84210606310BD00002DE9F04158
:1032800086B040F600050446C4F20105006805F565
:103290004051002788420597CDE90377029703D074
:1032A00006B0BDE8F08100BF41F21800C4F2020090
:1032B000016802AE41F480410160016840F24408B7
:1032C00001F48041019101990168C4F2020841F0C2
:1032D000040101600068314600F00400019001988B
:1032E0004FF40070029002200390032005902846BE
:1032F000FEF7A0F94FF48060CDE902072846314679
:103300000497FEF797F940F2F40508F11400C2F2B1
:10331000000580262021C5E900072846C5E9027678
:10332000C5E90477C5E90617FEF798F8002818BF25
:10333000FDF788FBE5636C6240F23815C2F20005C8
:1033400010200021C5E900802846C5E90216C5E91C
:103350000411C5E90611FEF781F8002818BFFDF732
:1033600071FB252002210022A5636C62FEF7F6FAAC
:103370002520FEF7E1FA06B0BDE8F08170470000B5
:10338000704700002DE9F04381B0044690F84100F9
:10339000202809D100294FF0010018BF002A07D1C9
:1033A00001B0BDE8F08300BF022001B0BDE8F083AA
:1033B0000020606421201D460E4684F84100174617
:1033C000FEF74CFAA784E784A1688146B1F5805FD7
:1033D00002D1206900285DD037460020E28C2168A8
:1033E000002A5DD06A1C24D0002D4AD0804600BF40
:1033F0000868000608D4FEF731FAA0EB0900A842DD
:103400007AD82168C868F3E717B117F8010B04E010
:1034100038F8020B00276FF35F204860E08C01381A
:10342000E084E08C0028E3D13AE000BF0A6812068D
:1034300009D40A68120606D40A6812065CBF0A6834
:103440005FEA0262F2D51FB117F8012B05E000BF59
:1034500030F8022B00276FF35F224A60E28C013ABA
:10346000E284E28C002AE4D11AE000BF30F8022B9B
:1034700000276FF35F224A60E28C013AE284E28C1B
:1034800072B10A68120635D5002FEFD017F8012B5C
:10349000F1E700BF00273046E28C2168002AA1D165
:1034A000086840061ED42DB3681C14D10868400675
:1034B0002AD40868400627D40868400624D408683F
:1034C00040064FF00000F1D50DE000BF2068C16854
:1034D0000068400618D4FEF7C1F9A0EB0900A84225
:1034E000F4D909E00020202184F8411001B0BDE8A2
:1034F000F08300BFFEF7B2F90320202184F84110C9
:1035000001B0BDE8F08300BF0020202184F8411005
:1035100001B0BDE8F083000070470000FEE7000046
:1035200080B586B00020CDE90400CDE9020041F26B
:103530001800C4F20200016841F00801016000684F
:1035400002A900F008000190019840F603400290A3
:103550000020C1F221000390012004900220059078
:1035600040F60040C4F20100FEF764F80620012195
:103570000022FEF7F3F90620FEF7DEF9072001210D
:103580000022FEF7EBF90720FEF7D6F928200121EB
:103590000022FEF7E3F92820FEF7CEF906B080BD41
:1035A000F0B581B040F60044C4F201042046012188
:1035B000FEF748F9B0FA80F0450920460221FEF7EF
:1035C00041F9B0FA80F0460920464FF48061FEF7D9
:1035D00039F9B0FA80F0470920464FF40061FEF750
:1035E00031F9B0FA80F071194009394401440429D5
:1035F00003D30027002600250020000640EA0740EC
:1036000040EA0620284401B0F0BD00002DE9F04159
:1036100092B015460C460646FEF720F940F2F00738
:10362000C2F200073968401A32280FD30DF108089A
:1036300008A2404640212B46CDE90064FCF7E8FD96
:10364000404600F04DFDFEF709F9386012B0BDE8C4
:10365000F08100BF5253544154453A25642C2564EF
:103660002C25640D0A000000FEE70000B0B540F212
:103670007C14C2F20004204600210025FFF762F806
:1036800020460421FFF75EF8206840F60044C4F2AB
:10369000010445638563204610210022FEF7D8F817
:1036A000204620210022FEF7D3F8204640210022A8
:1036B000FEF7CEF8204680210022BDE8B040FEF79C
:1036C000C7B800002DE9F047002240F27C191FFA2C
:1036D00080FAB0F1FF3FCCBF01224042C2F20009A4
:1036E0000D461FFA81F8C0B2D9F8001040F6004626
:1036F0006427642828BF3846C4F201064863304670
:1037000010210024FEF7A4F84FEADA3230462021D7
:10371000FEF79EF8B5F1FF3FCCBF01246D42D9F80A
:103720000010E8B2642838BF07468F633046402156
:103730002246FEF78DF84FEAD83230468021BDE8A8
:10374000F047FEF785B8000010B540F27C10C2F2D9
:103750000000006840F600440021C4F20104416307
:103760008163204610210022FEF772F820462021B6
:103770000022FEF76DF8204640210022FEF768F88F
:10378000204680210022BDE81040FEF761B800000D
:10379000FEE7000070470000B0B540F2DC04C2F262
:1037A000000400252580A560FEF758F8E060A570AC
:1037B000EFF3108072B640F2D000C2F20000057044
:1037C00040F2D100C2F20000057062B6B0BD000048
:1037D0002DE9F04786B0FEF741F840F2D001C2F281
:1037E00000010A7840F2DC0A0446002AC2F2000A0C
:1037F00074D040F2D102EFF3108072B6C2F2000230
:103800000023107813700B7062B69AF800104A1EED
:10381000012A00F285809AF8012010438AF80100FD
:10382000481E03285FD903A800F05AFD039E4FF0FD
:103830007C51304601F0EEF8002840F20800C2F258
:10384000000014BF06680660049D4FF07C512846B6
:1038500001F0E0F8002840F20800C2F2000014BFB6
:1038600045684560059F4FF07C51384601F0D2F81D
:10387000002840F20800C2F2000040F2000114BF2C
:1038800087688760C4F22021304601F0CAF800281A
:1038900040F084810021C4F22021284601F0C1F8C3
:1038A000002840F07B810021C4F22021384601F03D
:1038B000AAF8002800F07281DAF80C0040F6C41271
:1038C000201A002190428AF80210C0F009820320D9
:1038D0008AF800000020CAF80840ECE19AF80010CD
:1038E000481E03289FD8DFE810F0050027013900A3
:1038F000990000BFDAF808009AF80110201A400871
:10390000E02800F2358101F0050005284FF6A67386
:1039100040F0DC816FF0590014304FF6A67235E2AA
:1039200001218AF8001000F005014FF6A672052962
:103930008AF80100CAF8084006D16FF0590000F17A
:1039400014014FF6A673F9E100F00901092940F0CE
:10395000078102F114034FF6A671EFE103A800F00E
:10396000BFFC039D4FF07C51284601F053F800281E
:1039700040F20800C2F2000014BF05680560049E12
:103980004FF07C51304601F045F8002840F2080025
:10399000C2F2000014BF46684660059F4FF07C519C
:1039A000384601F037F8002840F20800C2F2000063
:1039B00040F2000114BF87688760C4F220212846C6
:1039C00001F02FF8002840F083800021C4F220216C
:1039D000304601F026F800287AD10021C4F22021D7
:1039E000384601F010F8002872D0DAF8080040F6E6
:1039F000B731201A884200F257816FF0590000F168
:103A00000A0450202146FFF75DFE9AF8002050205E
:103A10002146FFF7FBFD06B0BDE8F08703A800F0E4
:103A20005FFC039D4FF07C51284600F0F3FF40F20D
:103A300008080028C2F2000814BFD8F80050C8F8DF
:103A40000050049E4FF07C51304600F0E3FF002808
:103A500014BFD8F80460C8F80460059F4FF07C518B
:103A6000384600F0D7FF0021002814BFD8F80870AE
:103A7000C8F80870C4F22021284600F0D2FF38BBF5
:103A80000021C4F22021304600F0CBFF00BB002112
:103A9000C4F22021384600F0B6FFC8B10020002152
:103AA000FFF710FE9AF8002000200021FFF7AEFD7E
:103AB000DAF8080041F28831201A884222BF032038
:103AC0008AF80000CAE9024406B0BDE8F08700BFEA
:103AD0000020CAF80C408AF800000DF10A0403AB7C
:103AE000284631463A460094FCF7B2FFBDF90C0077
:103AF00001F0BCF846F26664C3F66674214601F034
:103B000035F901F097F8BDF90A100546084601F0AD
:103B1000ADF8214601F02AF901F08CF80446284658
:103B20002146FFF7CFFD9AF8002028462146FFF7EF
:103B30006DFD06B0BDE8F087DAF80800201A8008AD
:103B40007C281FD89AF801006FF059045A2510F00C
:103B5000080008BF5A2408BF6FF05905F0E000BF05
:103B600000F00601062940F097803C216423E5E03F
:103B7000C8072FD002208AF80000CAF8084006B013
:103B8000BDE8F087FFF70CFD20B301208AF80000A4
:103B9000CAF8084006B0BDE8F08700BF9AF80200F6
:103BA000CAF80C4001281FD1DAF81000201A632847
:103BB0001AD8BAF90440BAF9065020462946FFF748
:103BC00081FD9AF8002020462946FFF71FFD06B028
:103BD000BDE8F08700208AF80000CAF80C408AF897
:103BE000020006B0BDE8F08740F20008C4F22028C9
:103BF0003046414600F015FF81463846414600F008
:103C000010FF49EA00090DF10A0C03AB30462946C2
:103C10003A46CDF800C0FCF71BFFBDF90C0001F0DF
:103C200025F846F26667C3F66677394601F09EF8D6
:103C300001F000F8BDF90A100646084601F016F832
:103C4000394601F093F800F0F5FF07462846414653
:103C500000F0D9FE002818BF0120B9F1000F18BFED
:103C60004FF0010900EA0900012802BFCAF810401C
:103C7000AAF80460AAF806708AF8020030463946AD
:103C8000FFF720FD9AF8002030463946FFF7BEFCCA
:103C900006B0BDE8F08700BF00F00A010A2925D16F
:103CA00064213C234AE000BF04208AF80000CAF8DF
:103CB000084000200021FFF705FD9AF800200020B1
:103CC0000021FFF7A3FC06B0BDE8F08701F0090072
:103CD00009281BD103F114024FF6A67056E000BF6D
:103CE0000DF10A0403AB30462946FBE6C10715D1A6
:103CF000810721D4430702F11E014FF6A6735EBF70
:103D0000000701EAE07302EAE07117E001F0060043
:103D1000062809D13C20642238E000BF4FF6A67384
:103D20004FF6A6710AE000BF01F00A000A2815D17B
:103D300064203C222AE000BF5A235A211CB20DB253
:103D400020462946FFF7BEFC9AF800202046294667
:103D500006B0BDE8F047FFF759BC00BFC8070DD15A
:103D6000880711D44A0703F11E004FF6A6725EBF02
:103D7000090700EAE17203EAE17007E04FF6A67274
:103D80004FF6A67002E000BF5A225A2014B205B2C4
:103D9000D6E7000070470000FDF766BD70470000E1
:103DA000406A0021C185C184FEF71EBF406A0168D8
:103DB0004A6990F84130212B2DD112F080022AD08F
:103DC0000021C184016851E8031F026821F0C0018D
:103DD00042E80313DBB1016851E8031F026821F0D8
:103DE000C00142E8031393B1016851E8031F026860
:103DF00021F0C00142E803134BB1016851E8031FF1
:103E0000026821F0C00142E80313002BDAD120211F
:103E100080F841100168496990F84220222A40F058
:103E20007D8011F0400179D00021C185016851E801
:103E3000031F026821F4907142E80313BBB30168C9
:103E400051E8031F026821F4907142E8031373B331
:103E5000016851E8031F026821F4907142E80313DE
:103E60002BB3016851E8031F026821F4907142E806
:103E70000313002BDAD11AE0016851E8051F02682C
:103E800021F0010142E80513DBB1016851E8051F8B
:103E9000026821F0010142E8051393B1016851E87D
:103EA000051F026821F0010142E805134BB10168CA
:103EB00051E8051F026821F0010142E80513002BBB
:103EC000DAD1016B012924D1016851E8031F02688E
:103ED00021F0100142E80313DBB1016851E8031F30
:103EE000026821F0100142E8031393B1016851E820
:103EF000031F026821F0100142E803134BB101686F
:103F000051E8031F026821F0100142E80313002B5F
:103F1000DAD1202180F8421000210163416C41F088
:103F200010014164FEF760BE0168406A09688906B5
:103F300000F19F800021C185016851E8031F0268DC
:103F400021F4807142E80313E3B1016851E8031FD3
:103F5000026821F4807142E803139BB1016851E8C3
:103F6000031F026821F4807142E8031353B1016812
:103F700051E8031F026821F4807142E80313002B0B
:103F8000DAD100BF016851E8051F026821F0010184
:103F900042E80513BBB3016851E8051F026821F030
:103FA000010142E8051373B3016851E8051F026877
:103FB00021F0010142E805132BB3016851E8051F08
:103FC000026821F0010142E80513002BDAD11AE062
:103FD000016851E8051F026821F0400142E805131D
:103FE000DBB1016851E8051F026821F0400142E899
:103FF000051393B1016851E8051F026821F04001E3
:1040000042E805134BB1016851E8051F026821F031
:10401000400142E80513002BDAD1202180F842103C
:10402000016B012925D100BF016851E8031F026817
:1040300021F0100142E80313DBB1016851E8031FCE
:10404000026821F0100142E8031393B1016851E8BE
:10405000031F026821F0100142E803134BB101680D
:1040600051E8031F026821F0100142E80313002BFE
:10407000DAD100214163016B012918BFFFF77EB936
:10408000818DFEF7BFBC0000406A01214163016BD6
:10409000012918BFFFF774B9818D4908FEF7B2BC3A
:1040A00010B582B0002040F2C4140190C2F20004A6
:1040B00020684FF4807201680191406840F20C3131
:1040C00001900198C2F200012046FEF7A9FBE06BC7
:1040D0000068016821F00401016002B010BD000019
:1040E00010B50446FCF743F982B240F2C410C2F2A4
:1040F000000021466423BDE81040FFF743B90000EB
:1041000081B090F84210222921D183680246B3F58C
:10411000805F09D152F8281F52F8183C002B63D059
:1041200003685B680AE000BF52F8281F13B90369EF
:10413000002BF5D003685B6803F07F030B701168F8
:1041400001311160C18D01390A04C18502D001B06D
:10415000704700BF0168CA6822F02002CA60CA68BE
:1041600022F48072CA604A6922F001024A61202169
:1041700080F8421000214163026B012A3CD10163A7
:10418000016851E8031F026821F0100142E803139F
:10419000DBB1016851E8031F026821F0100142E819
:1041A000031393B1016851E8031F026821F0100165
:1041B00042E803134BB1016851E8031F026821F084
:1041C000100142E80313002BDAD101680A68D20615
:1041D00006D5002200920A68009249680091009971
:1041E000818D01B0FEF70EBC026852686FF35F224A
:1041F00021F8022B8162A5E701B0FFF7BFB80000EC
:1042000040F2C410C2F20000FEF70EBD40F288007A
:10421000C2F20000FDF7CEBF2DE9F047154601229E
:104220009A4689460646FDF713FB40F28808C2F21B
:104230000008D8F800000021416200BF416A092946
:1042400008D8416A092905D8416A092902D8416A72
:104250000A29F3D348F6CF24304649460022CFF648
:10426000FF74FDF7F5FA0026CBF68076274600BFEF
:1042700028465146FDF7E6FA20B90137F8D3304613
:10428000BDE8F087D8F8000000264662284651466F
:10429000FDF7D8FA0128F2D1D8F800000134466AB7
:1042A00005D228465146FDF7CDFA0128F4D0304614
:1042B00000F021FA4CF29C4246F67203CBF2200247
:1042C000C3F6A17300F02AFA0023C3F6E0730022BC
:1042D00000F024FA00F0DEF906463046BDE8F0872B
:1042E000B0B540F60005C4F2010504462846022197
:1042F0002A460123FFF790FF20600A20FDF740F9CE
:10430000284608212A460423FFF786FF60600A201A
:10431000FDF736F9284620212A461023FFF77CFFB7
:10432000A0600A20FDF72CF9B0BD0000FEE70000F8
:1043300090B0FDF7A7FA00240120CDE90B44CDE9A8
:10434000094406900A904FF4E0104FF480310225A2
:104350000F9006A8CDE90714CDE90D51FDF740FCFB
:1043600020B1EFF3108072B6FEE700BF0F20CDE959
:1043700000054FF48060CDE90304684602210294F1
:10438000FDF728FB20B1EFF3108072B6FEE700BF07
:10439000002741F21804CDE90877CDE90677C4F289
:1043A0000204206840F6000840F0200020602068E9
:1043B000C4F2010800F020000090009820682A2133
:1043C00040F0040020602068002200F0040000900B
:1043D000009820684FF02A0A40F00800206020680A
:1043E00000F00800009000984046FDF731FA08F50B
:1043F00080652846F02100224FF0F009FDF728FAE9
:10440000152006AECDE90607404631460897FDF770
:1044100011F9CDF818A04FF0010A4FF0020B4046F9
:104420003146CDE907A7CDF824B0FDF703F940F6F2
:10443000034006900020C1F22100CDE9070A28467A
:104440003146FDF7F7F828463146CDE9069ACDE921
:10445000087BFDF7EFF8062001210022FDF77EFA28
:104460000620FDF769FA072001210022FDF776FA00
:104470000720FDF761FA282001210022FDF76EFADE
:104480002820FDF759FA54F8040C002140F00100EF
:1044900044F8040C54F8040C002200F001000690CB
:1044A00006980E20FDF75AFA0E20FDF745FA0F2068
:1044B00000210022FDF752FA0F20FDF73DFA40F2ED
:1044C0007C10A8F58231C2F200006323CDE90077A9
:1044D000CDE90B77CDE90977472280E88600C0E96E
:1044E00003378761FEF798F820B1EFF3108072B6BA
:1044F000FEE700BF40F27C10C2F200006946FDF703
:1045000085FD28B1EFF3108072B600BFFEE700BF53
:10451000602006900020CDE907000A9040F27C1050
:10452000C2F2000006A90022FDF774FF20B1EFF3EC
:10453000108072B6FEE700BF40F27C10C2F20000AD
:1045400006A90422FDF766FF20B1EFF3108072B6D2
:10455000FEE700BF40F27C10C2F20000FDF72EFF24
:1045600040F28006C2F200064FF080423046002141
:1045700040F8082F47224FF6FF730991CDE9071144
:10458000CDE90011C0E90121C0E903318161FDF7E6
:104590007DFD28B1EFF3108072B600BFFEE700BFCB
:1045A0004FF4805006F10805069006A92846FDF74D
:1045B00035FE28B1EFF3108072B600BFFEE700BFF2
:1045C00069462846FDF722FD20B1EFF3108072B650
:1045D000FEE700BF40F2C41008F54051C2F20000EF
:1045E0004FF000080C234FF4E13280E80601C0E9E7
:1045F0000388C0E90538C0F81C80FEF7CDFD28B15E
:10460000EFF3108072B600BFFEE700BFFFF72EF891
:10461000FEF786FFFFF7FAFDFFF742FD40F2D807ED
:1046200040F2DA0540F20C24C2F20007C2F20005A3
:10463000C2F2000402E000BFFFF786F838780128D4
:1046400005D187F8008029882046FCF7C5F87068F6
:10465000002100F0C3F90028EED130780028EDD118
:10466000FFF7B6F8EAE7000010B500290AD008788D
:10467000002807D005487844FCF764F8002801D0EA
:10468000002010BD0248784410BD0000DE09000083
:10469000D609000021F0004201F00043A2F160526F
:1046A000B2F5801F28BFD2F17F6C0BD95FEA001CE6
:1046B00043EAC20242EB507018BF704728BF20F097
:1046C00001007047B2F5801FBCBF184670474FEA23
:1046D000410C1CF5001F02D2084600F00EBC70B55C
:1046E00000F0C6F800000089FFF7F6BF4FF0004069
:1046F000A0F580007047B0FA80F310FA03F10AD0F9
:10470000C3F11D0303F580634FEA03524FEA4150A2
:1047100002EBD12170474FF00000704770B5DFF811
:1047200048C11CEA111E1EBF1CEA13159EEA0C0F9D
:1047300095EA0C0F00F06F8081EA03044EEAD47E04
:10474000AE4421EA4C1123EA4C1341F4801143F4A6
:104750008013AEF17F7EA1FB024CA0FB03653619EE
:1047600055EB0C05A1FB034C4CF10003A0FB021C14
:1047700016EB0C06654153F10003094218BF46F0E1
:10478000010613F4007F0BD14FEA03314FEA0530E5
:1047900041EA155140EA165034036FF003020AE073
:1047A0004FEAC3214FEAC52041EA555140EA56502D
:1047B000F4026FF0020202EB2E4201EB025585EA91
:1047C000CE710AD05FEA440C18BF24F0004450F1C7
:1047D000000041F1000120EAD47040F2FE7C624505
:1047E00000D270BDA84214BF4FF080444FF0404447
:1047F000002E08BF0024BEF1806FA8BFA1F1C04108
:10480000BDE8704080F2828001F1C04101F00041BA
:104810004FF0000070470CEA13159EEA0C0F18BF0A
:1048200095EA0C0F06D081EA030E4FF000000EF05F
:10483000004170BD00F01CF88900013E00F007B88F
:1048400000F009B84FEA430C5FEA5C5C08D081EAEB
:10485000030100F05BB84FEA410C5FEA5C5CF6D103
:1048600002494FF0000070470000FF070000F87F8A
:104870000EF1020E2EF0030E5EF8046B364205D4E4
:10488000012A43EB030515F5001F12D8012841EB5F
:10489000010C1CF5001F0CD80ED14FEAD17C0CEB9B
:1048A0004C0C0CF1020C15F5001F08BF4CEBD37C2F
:1048B00004E04FF0080C01E04FEAD37C0CEB4C0510
:1048C00026FA05F606F00706B6F1040C06D20EEB42
:1048D000860CBDE870404CF0010C6047DFE80CF03E
:1048E000090B02024FF00041A1F500214FF000003A
:1048F00070BD19461046012851EB010418BFD4F5CC
:10490000001484BF002001F0004170BD0808A0F52C
:1049100000114FEA3101704790EA010F48BF81F062
:10492000004100F1F682421A3CBF801A89184FEA12
:10493000D052A2EBD1534FF07F4C1CEA410F18BF6D
:104940009CEA026F00F03B804FF0004C4CEA0020E4
:104950004CEA012121FA03FC10EB0C0C1ED202F1EF
:10496000FF325FEA1C2040EBC25038BF70471CF09A
:104970007F0F4FEA400C18BFBCF17F4F38BF704724
:10498000C3F12003994008BF20F00100BCF17F4F24
:1049900038BF7047A0F1C04000F0AFBA4FEA3C000A
:1049A000000A40EBC25028BF1CF0FF0F4FEA400C3A
:1049B000E6D018BFBCF17F4F38BF7047EAE79CEAEA
:1049C000026F05D010EA5C0F08BF00F0004070478E
:1049D00010B500F04CFA00BF64FBBE3E10B500F00D
:1049E000F5F80CBF0120002010BD10B500F0EEF866
:1049F00014BF0120002010BD10B500F04FF98CBF8E
:104A00000120002010BD10B500F048F92CBF012096
:104A1000002010BD10B500F075F994BF01200020F2
:104A200010BD10B500F06EF934BF0120002010BD9C
:104A3000401058BFC0F14040491058BFC1F140413B
:104A40008142EFF3008070474FF47F0C1CEAD012D4
:104A50001EBF1CEAD11392EA0C0F93EA0C0F00F070
:104A6000858090EA010F48BF42F4807240F4000C48
:104A700041F400002CF07F4120F07F4000B5A2EB14
:104A8000030281420FF2081CACEB504E9EF800E08E
:104A9000C0F100004FEA4E0E00FB0EFC38BF49008B
:104AA0004FEA2C1C0CFB0EF34FEACE1E0EEB635E9E
:104AB0004FEA112C0EFB0CFC4FEAC1214FEA1C53AC
:104AC00000FB031102F5FA024FEA112C0EFB0CFC5D
:104AD0004FEA01314FEADC4C00FB0C1142EB224261
:104AE000C14228BF09184CEB03335DF804EB10EB0F
:104AF000410143EBC250B2F57C0F38BF704729D556
:104B000012F0F00F1CBF00F1C04000F000407047F1
:104B1000008182838485868788898B8C8D8E8F9196
:104B20009293959697999A9C9D9FA0A2A3A5A7A8BA
:104B3000AAACAEB0B2B3B5B7B9BCBEC0C2C5C7C9E6
:104B4000CCCED1D4D7D9DCDFE2E6E9ECF0F3F7FA4A
:104B5000FE0000004FEA400C0CF1807CBCF17E4F5F
:104B600028BF7047B0F1C04000F0C7B90CEAD113BC
:104B700090EA010F48BF42F48072624538BF634536
:104B800007D213F47F0F16D080EA010000F0004036
:104B9000704710B500F06BF9097EFC3E00F005B8D7
:104BA00080EA010000F00040704780EA010000F058
:104BB000004000F0A2B912F47F0F04BF0248704712
:104BC00080EA010000F099B90000C07F50EA010CB2
:104BD00000F113801CF5000F58BFBCF5000F01D485
:104BE0008842704707D710F5000F58BF11F5000F26
:104BF00015D488427047894270471CF5000F04D5D0
:104C0000BCF5000FF7D5814270474FF0807C1CEB5C
:104C1000400F38BF1CEB410F01D28142704710B5E5
:104C200000F025F9922449004FF000504FF08051D8
:104C3000FFF7FEBE41000B0ED3F19E0208D950F4DF
:104C400000034FEA032323FA02F048BF40427047B3
:104C500010B500F00CF900BF499224800020704785
:104C60006FF0004282EA20007047000010F000411F
:104C700048BF4042B0FA80F310FA03F2C3F19D033B
:104C80000BD051EAC35101EB1220530638BF7047D5
:104C900000F1010008BF20F00100704750EA010C4C
:104CA00000F113801CF5000F58BFBCF5000F01D4B4
:104CB0008842704707D710F5000F58BF11F5000F55
:104CC00015D488427047894270471CF5000F04D5FF
:104CD000BCF5000FF7D5814270474FF0807C1CEB8C
:104CE000400F38BF1CEB410F01D28142704710B515
:104CF00000F0BDF8922449004FF080504FF0005171
:104D0000FFF796BE50EA010C00F113801CF5000F6E
:104D100058BFBCF5000F01D48842704707D710F583
:104D2000000F58BF11F5000F15D488427047894213
:104D300070471CF5000F04D5BCF5000FF7D5814274
:104D400070474FF0807C1CEB400F38BF1CEB410FCD
:104D500001D28142704710B500F089F892244900D1
:104D60004FF000504FF08051FFF762BE4FF47F0CC0
:104D70001CEAD0121EBF1CEAD11392EA0C0F93EA70
:104D80000C0F00F0478090EA010F48BF42F4807298
:104D90004FF0004C4CEA00204CEA012102EB0302E8
:104DA000A0FB0113A2F50002002918BF43F0010384
:104DB0005B0028BF4FEA330342EB22425FEA132C29
:104DC0004CEBC2502EBFBCEB436FB2F57C0F70476B
:104DD0004FEA036CBCF1004F08BF20F00100B2F5B0
:104DE0007C0F38BF70470BD582F0FF0212F5803F71
:104DF000C8BF704700F1C040D8BF00F00040704706
:104E000000F5000C5FEA4C0C48BF7047B0F1C040A1
:104E100000F073B80CEAD11390EA010F48BF42F4D6
:104E20008072624538BF634504D280EA010000F019
:104E30000040704710B500F01AF800BF8900013E2D
:104E400000F007B800F009B85FEA410C5FEA1C6C9B
:104E500008D080EA010000F050B85FEA400C5FEA39
:104E60001C6CF6D14FF00040A0F5800070470EF1A9
:104E7000020E2EF0030E5EF8044B244204D44FEAD7
:104E80004102B2F17F4F11D84FEA4003B3F17F4F97
:104E90000CD80ED14FEAD07C0CEB4C0C0CF1020C70
:104EA000B2F17F4F08BF4CEBD17C04E04FF0080C0F
:104EB00001E04FEAD17C0CEB4C0324FA03F404F03C
:104EC0000704B4F1040C06D20EEB840CBDE81040CC
:104ED0004CF0010C6047DFE80CF0070802024FF0CD
:104EE0000040A0F5800010BD0846420018BFD2F176
:104EF000807288BF00F0004010BDFF2141EAD05011
:104F0000C005704790EA010F48BF81F000413FF5AE
:104F10000AAD421A04D882F00042A0EB020011440C
:104F20004FEAD052A2EBD1534FF07F4C1CEA410F15
:104F300018BF9CEA026F4AD04FF0004C4CEA0020A8
:104F40004CEA012121FA03FCB0EB0C0C0FD412F057
:104F5000FE0F36D05FEA4C001DD5001240EBC25068
:104F600038BF70471CF03F0F18BF70470BE05FEA77
:104F70001C20A2F1010240EBC25038BF70471CF068
:104F80007F0F18BF7047C3F12003994014BF401E24
:104F900020F0010070474FEA1223800808BF7047D5
:104FA000B0FA80FCA2EB0C02CCF1280C60FA0CF0F9
:104FB00093EA122F04BF00EBC25070474FEAC37050
:104FC0007047130A5FEADC1008BF7047F6E79CEAF7
:104FD000026F04D010EA5C0F08BF0020704710B5C4
:104FE000FFF745FF40DFF63E81F0004070470000CC
:104FF0000000000000000102030406070809000089
:105000000000010203040102020304050607080967
:105010000A0B0C0D0E0F101053544D33323A20551D
:105020006E6B6E6F776E20436F6D6D616E64210DD8
:105030000A00000068510008000000202000000065
:10504000500100088851000820000020F0090000ED
:10505000700100081001000043000000F8FFFFFF8E
:10506000004040404040404040404141414141407B
:105070004040404040404040404040404040404030
:1050800040050202020202020202020202020202BF
:1050900002202020202020202020200202020202C4
:1050A000020290909090909010101010101010101C
:1050B0001010101010101010101010100202020228
:1050C000020288888888888808080808080808086C
:1050D0000808080808080808080808080202020268
:1050E0004000000000000000000000000000000080
:1050F00000000000000000000000000000000000B0
:10510000000000000000000000000000000000009F
:10511000000000000000000000000000000000008F
:10512000000000000000000000000000000000007F
:10513000000000000000000000000000000000006F
:10514000000000000000000000000000000000005F
:10515000000000000000000000000000000000004F
:10516000000000000000000001000000100000002E
:1051700000C0794400C0794400C0794400127A002C
:085180005500000000000000D2
:04000005080000ED02
:00000001FF
