:020000040800F2
:1000000018070020B5010008491D0008B11B0008B1
:10001000A11C000871020008212000080000000057
:10002000000000000000000000000000F51E0008B5
:1000300075020008000000004D1D0008F91E0008B0
:10004000CF010008CF010008CF010008CF01000850
:10005000CF010008CF0100087902000899020008CA
:10006000CF010008CF010008CF010008CF01000830
:10007000CF010008CF010008CF010008CF01000820
:10008000CF010008CF010008CF010008CF01000810
:10009000CF010008CF010008CF010008CF01000800
:1000A000CF010008CF010008CF010008CF010008F0
:1000B000CF010008CF010008CF010008CF010008E0
:1000C000CF010008CF010008CF010008CF010008D0
:1000D000CF010008CF010008CF010008CF010008C0
:1000E00081020008CF010008CF01000800F002F8EB
:1000F00000F050F814A696E8000CB244B344DA4578
:1001000001D100F047F8BAE80F000FA696E83000DA
:10011000A5EB040504EB0607AAEB0704A7F101070A
:100120004FEA15154FEA3414A4F10104AC4201D38F
:1001300000F030F813F0010F18BFFB1A43F0010371
:1001400000F001F8DBE71847402B0000602B0000AF
:10015000103A24BF78C878C1FAD8520724BF30C8F3
:1001600030C144BF04680C60704700007047000055
:100170000023002400250026103A28BF78C1FBD8B0
:10018000520728BF30C148BF0B6070471FB51FBD65
:1001900010B510BD00F031F81146FFF7F7FF01F080
:1001A00041FF00F04FF803B4FFF7F2FF03BC00F08B
:1001B00057F800000948804709480047FEE7FEE776
:1001C000FEE7FEE7FEE7FEE7FEE7FEE7FEE7FEE707
:1001D00004480549054A064B70470000FD1E00080B
:1001E000ED00000818010020180700201803002067
:1001F00018030020704770477047754600F02CF8D0
:10020000AE4605006946534620F00700854618B003
:1002100020B5FFF7DDFFBDE820404FF000064FF0AE
:1002200000074FF000084FF0000BAC46ACE8C009E7
:10023000ACE8C009ACE8C009ACE8C00921F007018E
:100240008D46704710B50446AFF300802046BDE8E8
:100250001040FFF7A8BF00000048704710000020C2
:1002600001491820ABBEFEE72600020070470000DF
:10027000FEE7000070470000012000F0BFBB000057
:1002800080B54FF4806000F0B9FB4FF40060BDE82A
:10029000804000F0B3BB0000022000F0AFBB0000C4
:1002A0002DE9F04F8BB04CF6CD45C3F6CC558946C1
:1002B000294609931446824602F0F2F94CF20008EE
:1002C000002848462946C4F2794808BFC24602F0D1
:1002D000E7F900282046294608BFC14602F0E0F9A8
:1002E00000210028C4F27011504618BFA04602F049
:1002F000E5F998B90021C4F2A011504602F0D7F9EF
:1003000080B90020C4F2A010514602F037FC4FF033
:10031000785102F067FB834606E000BF4FF07E5B3A
:1003200002E000BF4FF0000B0021C4F270115046F4
:1003300002F0C4F94FF0000420BB0021C4F25021A8
:10034000504602F0B4F9E8B90021C4F2F011504669
:1003500002F0A6F950B10020C4F25020514602F03C
:100360000DFC0021C4F2B01109E000BF0021CCF265
:100370004011504602F024F90021C4F2901102F01D
:10038000B7F904460021C4F23421504602F096F930
:1003900090B90021C4F25021504602F088F968B9A2
:1003A0000021CCF23421504602F00AF90021C4F2B7
:1003B000E00102F09DF903E0002001E04FF07E50E3
:1003C00000210790C4F27011484602F077F988B90D
:1003D0000021C4F2A011484602F069F970B900206A
:1003E000C4F2A010494602F0C9FB4FF0785102F068
:1003F000F9FA04E04FF07E5001E000BF0020002138
:100400000A90C4F27011484602F058F94FF0000506
:1004100020BB0021C4F25021484602F048F9E8B957
:100420000021C4F2F011484602F03AF950B1002020
:10043000C4F25020494602F0A1FB0021C4F2B011E1
:1004400009E000BF0021CCF24011484602F0B8F8A4
:100450000021C4F2901102F04BF905460021C4F2CC
:100460003421484602F02AF990B90021C4F2502103
:10047000484602F01CF968B90021CCF23421484604
:1004800002F09EF80021C4F2E00102F031F903E02D
:10049000002001E04FF07E5000210590C4F2701161
:1004A000404602F00BF998B90021C4F2A011404671
:1004B00002F0FDF880B90020C4F2A010414602F01D
:1004C0005DFB4FF0785102F08DFA074605E000BF62
:1004D0004FF07E5701E000BF00270021C4F27011E9
:1004E000404602F0EBF84FF0000618BB0021C4F2C2
:1004F0005021404602F0DBF8E0B90021C4F2F011CF
:10050000404602F0CDF848B10020C4F250204146E8
:1005100002F034FB0021C4F2B01108E00021CCF25B
:100520004011404602F04CF80021C4F2901102F054
:10053000DFF806460021C4F23421404602F0BEF83E
:100540000494029690B90021C4F25021404602F072
:10055000AEF868B90021CCF23421404602F030F800
:100560000021C4F2E00102F0C3F803E0002001E042
:100570004FF07E5003904FF07E5059464FF07E561C
:1005800002F0FCFA2946019002F02CFA04464FF0E2
:100590007E503946069702F0F1FA05462046294674
:1005A00002F020FA04465046494602F0E7FA0021DC
:1005B000C4F2A011074602F07AF860B9384600216B
:1005C000002602F07BF830B90021C4F2A0113846B1
:1005D00002F08EF806462046314602F003FA06463F
:1005E0004046494602F0CAFA0021C4F2A01104466E
:1005F00002F05DF8CDF820B070B920460021002748
:1006000002F05CF850B90021C4F2A011204602F0BB
:100610006FF8074602E000BF4FF07E57304639467C
:1006200002F0E0F90A9900904FF07E504FF07E56AC
:1006300002F0A4FA83460498594602F0D3F92946F9
:1006400002F0D0F905464846514602F097FA0021DB
:10065000C4F2A011044602F02AF860B92046002135
:10066000002602F02BF830B90021C4F2A011204678
:1006700002F03EF806462846314602F0B3F9054638
:100680004046514602F07AFA0021C4F2A011044615
:1006900002F00DF870B920460021002602F00EF895
:1006A00050B90021C4F2A011204602F021F80646FC
:1006B00002E000BF4FF07E562846314602F092F924
:1006C0000490DDE9010102F08DF90146584602F07F
:1006D00089F905465046414602F050FA0021C4F21D
:1006E000A011044601F0E3FF70B920460021002666
:1006F00001F0E4FF089F50B90021C4F2A011204688
:1007000001F0F6FF064602E0089F4FF07E562846AD
:10071000314602F067F904464846414602F02EFA97
:100720000021C4F2A011054601F0C1FF80B928469E
:100730000021002601F0C2FFDDF8008060B9002131
:10074000C4F2A011284601F0D3FF064604E000BF22
:10075000DDF800804FF07E562046314602F042F927
:1007600081460798059902F03DF9039902F03AF99C
:100770000A9D82463846294601F022FF069C214602
:1007800001F01EFF414601F01BFFDDF810B0594695
:1007900001F016FF494601F013FF0146504601F0F3
:1007A0000FFF43F2BD71C3F28651064601F07FFF91
:1007B00050B90999552008804FF6AB7014990880FC
:1007C0000BB0BDE8F08F00BF2846314601F090FF26
:1007D00005903846314601F08BFF4546804620465D
:1007E000314601F085FF04462846314601F080FF7E
:1007F00007905846314601F07BFF83464846314614
:1008000001F076FF08905046314601F071FF002557
:100810000A90C4F2C8250598294602F0E3F840F290
:100820000009CCF2AA2906464046494602F0DAF809
:10083000314601F0C5FE82464046294602F0D2F814
:10084000314601F0BDFE064620462946A84602F084
:10085000C9F8514601F0B4FE07462046494602F069
:10086000C1F8314601F0ACFE40F2000A0646C4F27F
:10087000AA2A0798514602F0B5F83946044601F015
:100880009FFE07462046314601F09AFE0026C4F23C
:10089000822604465846314602F0A4F8394601F053
:1008A0008FFE07465846514602F09CF8214601F05B
:1008B00087FE089D04462846514602F093F83946C3
:1008C00001F07EFE07462846314602F08BF82146AD
:1008D00001F076FE0A9D06462846514602F082F84F
:1008E000394601F06DFE04462846494602F07AF882
:1008F000314601F065FE05462046414601F0D0FE36
:100900000026CCF2C82600281CBF0024C4F2C8244C
:100910002046314601F0D9FE0028284641461CBF3A
:100920000024CCF2C82401F0BBFE00281CBF002527
:10093000C4F2C8252846314601F0C7FE00282046EB
:100940001CBF0025CCF2C82501F0C8FF099908801A
:10095000284601F0C3FF149908800BB0BDE8F08F62
:10096000B0B5044600F06AF9054640F20000C2F254
:1009700000000078611C18BF044400BF00F05EF95D
:10098000401BA042FAD3B0BD40F60341084208BF65
:10099000704770B540F60044C4F2010420460121BE
:1009A000012500F03FF9B0FA80F046092046022107
:1009B00000F038F9002820464FF4806108BF023665
:1009C00000F030F9002820464FF4006108BF0436DB
:1009D00000F028F9002808BF083630060AD040F297
:1009E0007004C2F20004607830436070257000F03B
:1009F00025F96060BDE870407047000040F2144186
:100A0000C4F201010A68024214BF08607047FFF790
:100A1000BBBF00002DE9F04F82B00E68002E00F041
:100A2000FD8041F20042C4F20102042340F2004E74
:100A3000904208BF03234FF6FF7CC4F2010E0093DF
:100A400000240123C1F2100C4FF0000A4FF00009FE
:100A50004BE000BF41F20002C4F20102009F90424D
:100A600008BF022704F00C030F229A402BEA02026F
:100A700007FA03F34FEA9A051A4346F825204E6811
:100A800040F20C45F202DEF8082054BF22EA0802C8
:100A900042EA0802C4F20105CEF808202A68B3022F
:100AA00054BF22EA080242EA08022A60B303DEF8D1
:100AB000042054BF22EA080242EA0802F303CEF8F7
:100AC0000420DEF800204FF0010354BF22EA0802A0
:100AD00042EA0802CEF800200E680AF1010A36FA4E
:100AE0000AF204F1040400F0998003FA0AFB16EA02
:100AF0000B08F1D04E68664512DC122E56D8DFE89E
:100B000006F0350B4D4955555555555555555555C7
:100B100055555545510000BFD1F80C9046E000BF37
:100B20004FF6FF72C1F2210296420FDC0022C1F2A1
:100B3000110296421AD00022C1F21202964215D03A
:100B40000022C1F22102964210D02FE00022C1F211
:100B5000220296420AD00022C1F23102964205D00A
:100B60000022C1F23202964220D100BF8A684AB107
:100B7000012A14BFC0F814B0C0F810B04FF0080933
:100B800014E000BF4FF0040910E000BFCA6802F192
:100B900004090BE04FF0000908E000BFCA6802F149
:100BA000080903E0CA6802F10C0900BF02462646A4
:100BB000B8F5807F24BF0432203E17680F25B5406A
:100BC00027EA050509FA06F635431560CA79D20603
:100BD0007FF582AF41F21803C4F202031A68AEF542
:100BE0007E7642F001021A601A6802F00102019258
:100BF000019A2AF0030256F802B040F60002C4F24D
:100C00000102904208D040F60042C4F20102904234
:100C10007FF420AF012725E7002723E702B0BDE8D6
:100C2000F08F00008068084018BF01207047000066
:100C3000002A08BF090401617047000040F210104B
:100C4000C2F200000068704740F2000040F210114C
:100C5000C2F20000C2F2000100780A681044086085
:100C60007047000080B542F20000C4F20200016843
:100C700041F010010160032000F08CF80F2000F01B
:100C800005F800F027F8002080BD000070B540F2A4
:100C90000006C2F2000640F208013278C2F20001FA
:100CA0004FF47A730968B3FBF2F20446B1FBF2F138
:100CB000084600F05DFB0F2C4FF0010508D838B94D
:100CC0004FF0FF3021460022002500F037F8746015
:100CD000284670BD82B041F21800C4F202000168DB
:100CE000022241F001010160016801F0010101915E
:100CF0000199416841F080514160406800F08050A6
:100D0000009000980420C4F20100016862F31A61A7
:100D1000016002B070470000002848BF704700F033
:100D20001F01012202FA01F11C2202EAD0004EF258
:100D30000012CEF2000281507047000010B54EF64E
:100D40000C5CCEF2000CDCF80030C3F3022E8EF007
:100D50000704042C28BF0424BEF103034FF0FF3E18
:100D60000EFA04F438BF0023A14399400EFA03F3AE
:100D70009A43114300F00F0200F160430901043A65
:100D800003F564436244002848BF02F10C03197064
:100D900010BD00004EF60C51CEF200010A684FF66D
:100DA000FF031A4060F30A2242F0806040F0FD70B9
:100DB00008607047002804BF012070472DE9F04308
:100DC00081B042F20008C4F202080446D8F80000DC
:100DD0000D4600F0070081420CD9D8F8000020F041
:100DE00007002843C8F80000D8F8000000F007000A
:100DF000A8426CD1206841F204098107C4F20209BB
:100E000017D5410705D5D9F8001041F4E061C9F8BC
:100E10000010010705D5D9F8001041F46051C9F858
:100E20000010D9F80010A26821F0F0011143C9F8B0
:100E30000010C00742D1D8F8000000F0070085423A
:100E40000CD2D8F8000020F007002843C8F80000B2
:100E5000D8F8000000F00700A84238D12068410708
:100E600007D5D9F80010E26821F4E0611143C9F810
:100E70000010000708D5D9F80000216920F460505F
:100E800040EAC100C9F80000D9F8002002F00C00C7
:100E9000082841F20020C0F27A004DD142F6784392
:100EA000C2F38341C0F60003595CD20338D440F644
:100EB0000010C0F23D0048433EE000BF606859F8B2
:100EC000041C022808D0012826D1890306D4012059
:100ED00001B0BDE8F08300BF8901F8D5D9F8001052
:100EE00021F003010843C9F80000FFF7A7FE0646FA
:100EF00041F28837D9F80000616800F00C00B0EBCF
:100F0000810F98D0FFF79AFE801BB842F2D90320D8
:100F100001B0BDE8F08300BF8907D8D5DEE700BF88
:100F2000D9F8002042F67643C2F34042C0F60003EF
:100F30009A5C4843B0FBF2F0D9F8001042F66642E2
:100F4000C1F30311C0F60002515C40F2080220FA1E
:100F500001F140F20400C2F200000068C2F2000297
:100F60001160FFF793FE002001B0BDE8F0830000A0
:100F7000002804BF012070472DE9F04182B00446EB
:100F8000007841F20006C007C4F202060CD0706877
:100F900000F00C00042840F081803068800303D505
:100FA0006068002800F04681207880071BD57068B3
:100FB00010F00C0F09D0706800F00C00082840F009
:100FC00087807068C00300F183803068800703D594
:100FD0002069012840F02E813068616920F0F80016
:100FE00040EAC10030602078000713D42078400721
:100FF0002CD4E569002D00F01881706800F00C0019
:10100000082840F0A780012D40F00481012002B0A3
:10101000BDE8F081A069002800F084800020C4F2BF
:1010200042200121C0F88014FFF708FE054600BFEA
:10103000706A800700F1B280FFF700FE401B0228B3
:10104000F6D9032002B0BDE8F08100BFF0695FEA85
:10105000C00808D4F06940F08050F061F06900F0F9
:1010600080500090009847F20007C4F200073868EB
:10107000C00549D4386840F480703860FFF7DEFD61
:10108000054600BF3868C0053ED4FFF7D7FD401BBA
:101090006428F7D9032002B0BDE8F081706800F041
:1010A0000C00082803D17068C0033FF576AF616873
:1010B0003068002900F00C81B1F5A02F00F000810C
:1010C000B1F5803F40F01A8140F480301CE100BF50
:1010D0002069002840F20000C4F2422000F088801D
:1010E00001210160FFF7AAFD054600BF30688007B7
:1010F0003FF572AFFFF7A2FD401B0228F6D903208F
:1011000002B0BDE8F08100BFE168306A002900F05C
:101110009D80052900F09280012940F0AF8040F0C9
:101120000100B1E00020C4F242200021C0F8801488
:10113000FFF784FD054600BF706A80077FF556AF54
:10114000FFF77CFD401B0228F6D9032002B0BDE862
:10115000F08100BF0027C4F2422700203866FFF765
:101160006DFD022D05460DD13068800140F1DE8015
:10117000FFF764FD401B02284FF00300F4D902B0D2
:10118000BDE8F081306880014FD5FFF757FD401B67
:1011900002284FF00300F5D9F1E700BF40F2080044
:1011A000C2F20000006844F6D351C1F26201A0FB14
:1011B0000101480A019000BF00BF0198411E0028AC
:1011C00001913FF413AF00BF0198411E0028019127
:1011D0003FF40CAF00BF0198411E002801913FF47D
:1011E00005AF00BF0198411E00280191E4D1FDE642
:1011F00000210160FFF722FD054600BF306880072F
:101200007FF5F1AEFFF71AFD401B02284FF00300F7
:10121000F4D9B4E77068216A00F480328A4209D1B7
:10122000616A00F47010884204D1002002B0BDE869
:10123000F08100BF012002B0BDE8F08140F0040061
:101240003062306A40F001001EE000BF20F0010073
:101250003062306A20F004003062FFF7EFFC054690
:1012600041F28837306A800720D5FFF7E7FC401B42
:10127000B8424FF00300F5D981E700BF20F001002C
:101280003062306A20F004003062FFF7D7FC054678
:1012900041F28837306A800708D4FFF7CFFC401B43
:1012A000B842F7D9032002B0BDE8F081B8F1000FD1
:1012B0003FF59FAEF06920F08050F06199E600BFE5
:1012C00040F480203060306840F480301CE000BF83
:1012D00020F480303060306820F480203060FFF7E8
:1012E000ADFC0546306880037FF55EAEFFF7A6FCD7
:1012F000401B64284FF00300F4D940E720F480300D
:101300003060306820F480203060FFF797FC05469D
:10131000306880033FF548AEFFF790FC401B64281F
:10132000F6D9032002B0BDE8F08100BF206AB0F515
:10133000803F05D17168A26821F4003111437160CA
:101340007168626A21F474111143084370600120CE
:101350003866FFF773FC0446306880013FF565AFDF
:10136000FFF76CFC001B02284FF00300F4D906E7DE
:10137000411E0020B0EB116F1CBF012070474EF2E0
:101380001002CEF2000251604EF62351CEF200015F
:10139000F0230B70072190601160704790F83C209B
:1013A000012A4FF0020236D010B580F83D200268C5
:1013B000D2F804E0D2F808C00C682EF07003234382
:1013C00040F2FF74C4F20004A24253600ADCB2F19E
:1013D000804F13D040F20043C4F200039A420DD074
:1013E00011E000BF42F60043C4F201039A4205D067
:1013F00040F60003C4F200039A4204D149682CF07D
:101400008003194391600121002280F83D1080F88B
:101410003C20BDE81040104670470000002804BF83
:101420000120704710B590F83D1031B9002180F8C7
:101430003C10044600F070F82046022180F83D1070
:10144000016840F2FF740B68C4F2000442F6004CDD
:10145000A142C4F2010C15DCB1F1804F1AD040F268
:101460000042C4F20002914214D0A14218DCB1F152
:10147000804F1DD040F20042C4F20002914217D0CA
:101480001AE000BF614505D040F60002C4F2000238
:101490009142EAD1826823F070031343A142E6DD52
:1014A000614505D040F60002C4F20002914203D12A
:1014B000026923F440731343846923F08002D0F857
:1014C00004E0C368224361450A60CB62C1F828E0AA
:1014D00002D14269CCF8302001224A610B69DB0756
:1014E00003D00B6923F001030B6180F8462080F8DC
:1014F0003E2080F83F2080F8402080F8412080F88E
:10150000422080F8432080F8442080F8452080F86D
:101510003D20002010BD00000068B0F1804F18BFD2
:10152000704781B041F21C00C4F20200016841F032
:1015300001010160006800F001000090009801B016
:101540007047000090F83D1001291CBF0120704732
:10155000022180F83D10006840F2FF71C4F20001E2
:10156000884209DCB0F1804F12D040F20041C4F251
:10157000000188420CD012E042F60041C4F20101A1
:10158000884205D040F60001C4F20001884206D12D
:10159000816801F00701062904BF00207047016837
:1015A00041F00101016000207047000090F83C20EC
:1015B000012A4FF002026CD080B580F83D20D0F8AF
:1015C00000C04FF67772DCF8083023EA0202CCF84C
:1015D00008200B684F2B29DC1F2B45DD202B46D024
:1015E000302B44D0402B40F0AF80D1F804E0C968E4
:1015F000DCF82030DCF8202022F00102CCF820209A
:10160000DCF8182022F0F00242EA011123F00A026D
:1016100042EA0E02CCF81810CCF82020DCF80810B2
:1016200041F0470121F0300128E000BF6F2B33DD8E
:10163000B3F5005F74D0B3F5805F21D0702B40F01C
:101640008380D1E901E3C968DCF8082043EA0E038E
:1016500022F47F4243EA01211143CCF80810DCF860
:10166000081041F0770109E00BB1102B6CD1DCF8C8
:10167000081021F07001194341F00701CCF808105F
:101680000022012180F83D10002180F83C10BDE8C7
:1016900080401046704700BF502B21D0602B53D1A3
:1016A000D1F804E0C968DCF82030DCF8202022F012
:1016B0001002CCF82020DCF8182022F4704242EA14
:1016C000013123F0A00242EA0E12CCF81810CCF837
:1016D0002020DCF8081041F0670121F01001CDE76F
:1016E000D1F804E0C968DCF82030DCF8202022F0D2
:1016F0000102CCF82020DCF8182022F0F00242EAA7
:10170000011123F00A0242EA0E02CCF81810CCF8BC
:101710002020DCF8081041F0570121F02001ADE74E
:10172000D1E901E3C968DCF8082043EA0E0322F49A
:101730007F4243EA01211143CCF80810DCF808107D
:1017400041F480419AE700BF01229AE780B586B054
:10175000016840F20040C4F2000081424FF00001F5
:10176000CDE90411CDE9021102D006B080BD00BF61
:1017700041F21801C4F202010A6800F5823042F019
:1017800004020A60096801F0040101910199C02175
:10179000029102210391059102A9FFF73BF906B0DE
:1017A00080BD000090F83C30012B04BF0220704740
:1017B0004FEAB202032A00F2F1802DE9F043DFE89C
:1017C00002F003A53B7500BF036842F600461D6AA0
:1017D0001A6AC4F2010622F001021A621A465C6813
:1017E00052F818CFB3428E68D1F800E025F0020518
:1017F00045EA06050CD1CE68D1E9057824F4407499
:1018000025F00C0526F004063C43354344EA080461
:101810002CF0730747EA0E075C609F614F68096907
:101820005F631D629F6947F008079F619F6927F00A
:1018300004079F61A6E000BF036842F600461D6AE8
:101840001A6AC4F2010622F480721A621A46D3F8A8
:1018500004C052F81CEFB3428E680C6825F4007582
:1018600045EA06250FD1CE68D1E90598360240F247
:10187000FF4725F44065BE4335432CF4405748EA02
:10188000090647EA061C2EF073072743C3F804C075
:10189000DF614F680969DF631D62DF6947F0080790
:1018A000DF61DF6927F00407DF616BE0036842F660
:1018B0000047D3F820C01A6AC4F2010722F480520C
:1018C0001A621A465C6852F81C5FD1F800E08E6814
:1018D000BB4204D14F6924F4804444EA87142CF4B9
:1018E000005747EA063725F4E64646EA0E265C60CE
:1018F000DE614E6809691E641F62DF6947F4006794
:10190000DF61DF6927F48067DF613AE0036842F650
:1019100000461D6A1A6AC4F2010622F010021A6219
:101920001A46D3F804C052F8184FB3428E68D1F863
:1019300000E025F0200545EA06150FD1CE68D1E973
:1019400005986FF0400725F0C00507EA06163543F5
:101950002CF4406748EA090647EA860C24F4E6447A
:1019600044EA0E27C3F804C09F614F6809699F636A
:101970001D629F6947F400679F619F6927F4806734
:101980009F6109021368194311600021BDE8F0430B
:10199000002280F83C200846704700BF0121002249
:1019A00080F83C2008467047002804BF012070479B
:1019B00010B590F83D1031B9002180F83C10044674
:1019C00000F070F82046022180F83D10016840F2D6
:1019D000FF740B68C4F2000442F6004CA142C4F24A
:1019E000010C15DCB1F1804F1AD040F20042C4F274
:1019F0000002914214D0A14218DCB1F1804F1DD0F9
:101A000040F20042C4F20002914217D01AE000BF37
:101A1000614505D040F60002C4F200029142EAD1CD
:101A2000826823F070031343A142E6DD614505D0CF
:101A300040F60002C4F20002914203D1026923F48D
:101A400040731343846923F08002D0F804E0C36834
:101A5000224361450A60CB62C1F828E002D14269A5
:101A6000CCF8302001224A610B69DB0703D00B69F7
:101A700023F001030B6180F8462080F83E2080F8B7
:101A80003F2080F8402080F8412080F8422080F8F4
:101A9000432080F8442080F8452080F83D20002035
:101AA00010BD0000006840F20041C4F2000188420D
:101AB00018BF704781B041F21C00C4F202000168F7
:101AC00041F002010160006800F0020000900098FF
:101AD00001B07047C1B1042908D0082914BF4122C0
:101AE0004022825C012A05D016E000BF3F22825CC2
:101AF000012A11D10222082910D0042914BF80F82C
:101B0000412080F83F200BE090F83E20012A03D1CD
:101B1000022280F83E2003E00120704780F8402038
:101B2000006801F01F010122036A8A4023EA0201D2
:101B30000162036A42F64441C4F201011A43A1F171
:101B40004403984202620FD040F2FF71C4F20001D8
:101B5000884213DCB0F1804F1CD040F20041C4F247
:101B60000001884216D01CE00A6842F400420A6074
:101B700040F2FF71C4F200018842EBDD42F6004101
:101B8000C4F20101884205D040F60001C4F2000110
:101B9000884206D1816801F00701062904BF0020B0
:101BA0007047016841F001010160002070470000AA
:101BB000FEE7000080B586B00020CDE90400CDE945
:101BC000020041F21800C4F20200016841F008016D
:101BD0000160006802A900F008000190019840F639
:101BE000034002900020C1F22100039001200490E4
:101BF0000220059040F60040C4F20100FEF70AFF03
:101C0000062001210022FFF799F80620FFF784F84B
:101C1000072001210022FFF791F80720FFF77CF849
:101C2000282001210022FFF789F82820FFF774F807
:101C300006B080BDF0B581B040F60044C4F20104A6
:101C400020460121FEF7EEFFB0FA80F0450920465C
:101C50000221FEF7E7FFB0FA80F0460920464FF474
:101C60008061FEF7DFFFB0FA80F0470920464FF4AD
:101C70000061FEF7D7FFB0FA80F0711940093944CE
:101C80000144042903D30027002600250020000674
:101C900040EA074040EA0620284401B0F0BD0000B9
:101CA000FEE70000B0B540F2C804C2F200042046CE
:101CB00000210025FFF70EFF20460421FFF70AFF51
:101CC000206845638563B0BD2DE9F047002240F6EA
:101CD000004A87B2B0F1FF3FCCBF01224042C4F2BC
:101CE000010A0D461FFA81F8C6B2504610210024A1
:101CF000FEF79EFFFA0B50462021FEF799FF40F2B7
:101D0000C809C2F20009D9F80000642E4FF0640738
:101D100028BF3E464663B5F1FF3FCCBF01246D426C
:101D2000504640212246EDB2FEF782FF4FEAD832FC
:101D300050468021FEF77CFFD9F80000642D38BFA3
:101D40002F468763BDE8F087FEE70000704700007C
:101D500070B586B0FEF772FF40F27002C2F2000268
:101D60001178F9B1EFF3108372B640F27103C2F249
:101D700000031E7840F27805C2F200052E7000269E
:101D80001E70167062B62A7801236B7002F005038C
:101D90004FF69C71052B686019D16FF063002D30F0
:101DA000A0E000BF40F27804C2F20004617802298A
:101DB0001ED0012932D161682278411AC9084A2906
:101DC00064D802F0050005284FF69C71E5D002F0BA
:101DD0000900092804D12D314FF69C7082E000BF24
:101DE00002F00600062849D1642137207AE000BFBE
:101DF0006168411A8908AE2950D82078642110F012
:101E000008006FF0630008BF642008BF6FF0630133
:101E100006B0BDE87040FFF757BF00BF03A800F051
:101E2000D9F803AA07CA02AE0DF10A030096FEF71D
:101E300037FABDF90A0000F09AFA4CF6CD444CF698
:101E4000CC45CCF6CC44C3F6EC7522462B4600F0CC
:101E5000B9FA00F05DFABDF908100646084600F030
:101E600086FA22462B4600F0ADFA00F051FA014600
:101E70003046FFF729FF06B070BD00BF02F00A0030
:101E80000A2819D1372164202CE000BF91070FD018
:101E900002216170606006B070BD00BF0546FFF7AB
:101EA000C9FE28B101206070656006B070BD00BF3A
:101EB0000020607006B070BDD0070DD190070FD420
:101EC00050074FF064000DD4120701EAE27300EAF4
:101ED000E271184606E000BF4FF69C7002E000BFBA
:101EE0006420642100B209B206B0BDE87040FFF77B
:101EF000EBBE000070470000FEF7A6BE7047000072
:101F000040F28000C2F20000FFF71CBB2DE9F04751
:101F1000154601229A4689460646FEF789FE40F29A
:101F20008008C2F20008D8F800000021416200BF1A
:101F3000416A092908D8416A092905D8416A09294D
:101F400002D8416A0A29F3D348F6CF2430464946DD
:101F50000022CFF6FF74FEF76BFE0026CBF68076EC
:101F6000274600BF28465146FEF75CFE20B90137E0
:101F7000F8D33046BDE8F087D8F800000026466266
:101F800028465146FEF74EFE0128F2D1D8F800004F
:101F90000134466A05D228465146FEF743FE012821
:101FA000F4D0304600F0FAF94CF29C4246F6720347
:101FB000CBF22002C3F6A17300F004FA0023C3F6AB
:101FC000E073002200F0FEF900F070F9064630469A
:101FD000BDE8F087B0B540F60005C4F2010504463F
:101FE000284602212A460123FFF790FF20600A209D
:101FF000FEF7B6FC284608212A460423FFF786FF91
:1020000060600A20FEF7ACFC284620212A461023F7
:10201000FFF77CFFA0600A20FEF7A2FCB0BD000025
:10202000FEE7000090B0FEF71DFE00240120CDE980
:102030000B44CDE9094406900A904FF4E0104FF4A8
:10204000803102250F9006A8CDE90714CDE90D5186
:10205000FEF78EFF20B1EFF3108072B6FEE700BFEF
:102060000F20CDE900054FF48060CDE903046846F8
:1020700002210294FEF79EFE20B1EFF3108072B6AB
:10208000FEE700BF002741F21800CDE90877CDE94F
:102090000677C4F20200016840F6000A41F0200110
:1020A00001600168C4F2010A01F020010091009969
:1020B0000168002241F00401016001684FF02A0923
:1020C00001F0040100910099016841F008010160EC
:1020D00000682A2100F00800009000985046FEF7A2
:1020E000A7FD0AF580652846F02100224FF0F00890
:1020F000FEF79EFD152006AECDE906075046314697
:102100000897FEF787FCCDF8189001244FF00209DC
:1021100050463146CDE90747CDF82490FEF77AFCCA
:1021200040F6034006900020C1F22100CDE90704EB
:1021300028463146FEF76EFC28463146CDE9068436
:10214000CDE90879FEF766FC062001210022FEF7A2
:10215000F5FD0620FEF7E0FD072001210022FEF735
:10216000EDFD0720FEF7D8FD282001210022FEF713
:10217000E5FD2820FEF7D0FD40F2C800AAF5823127
:10218000C2F200006323CDE90077CDE90B77CDE9FA
:102190000977472280E88600C0E903378761FFF7A7
:1021A00003FC28B1EFF3108072B600BFFEE700BF5A
:1021B00040F2C800C2F200006946FFF7EFF828B10C
:1021C000EFF3108072B600BFFEE700BF60200690FC
:1021D0000020CDE907000A9040F2C800C2F20000DA
:1021E00006A90022FFF7DEFA20B1EFF3108072B6E5
:1021F000FEE700BF40F2C800C2F2000006A90422B8
:10220000FFF7D0FA20B1EFF3108072B6FEE700BFFF
:1022100040F2C800C2F20000FFF798FA40F28000D6
:102220000021C2F200004FF0804247234FF6FF77B3
:102230000991CDE90711CDE90011C0E90023C0E9FA
:10224000021701618161FFF7E9F828B1EFF310800F
:1022500072B600BFFEE700BF4FF48050069040F218
:102260008000C2F2000006A9FFF7A0F920B1EFF349
:10227000108072B6FEE700BF40F28000C2F200009C
:102280006946FFF78BF828B1EFF3108072B600BFF4
:10229000FEE700BFFFF706FDFFF78CFCFFF730FEFF
:1022A000FFF756FD0520FEF75BFBF9E721F0004242
:1022B00001F00043A2F16052B2F5801F28BFD2F1B5
:1022C0007F6C0BD95FEA001C43EAC20242EB5070FC
:1022D00018BF704728BF20F001007047B2F5801F7B
:1022E000BCBF184670474FEA410C1CF5001F02D2D4
:1022F000084600F03EBC70B500F00EF90000008901
:10230000FFF7F6BF4FF00040A0F5800070470000D7
:102310004FEA41034FEA5353A3F58063D3F11E0301
:10232000C8BFD3F1210C0CDD4FF0004242EAC122BC
:1023300042EA505232FA03FC8CEAE17CACEBE170E9
:102340007047102BC4BF0020704703F5787CBCF1A8
:10235000FF3F04D06FF0004282EA2100704770B561
:1023600000F0DAF84992248000207047F2E710F07C
:10237000004248BF4042B0FA80F310FA03F10AD09D
:10238000C3F11D0303F5806302EB03524FEA415092
:1023900002EBD12170474FF000007047B0FA80F394
:1023A00010FA03F10AD0C3F11D0303F580634FEA6D
:1023B00003524FEA415002EBD12170474FF0000029
:1023C0007047000070B5DFF848C11CEA111E1EBF3F
:1023D0001CEA13159EEA0C0F95EA0C0F00F06F80B3
:1023E00081EA03044EEAD47EAE4421EA4C1123EA8A
:1023F0004C1341F4801143F48013AEF17F7EA1FBB6
:10240000024CA0FB0365361955EB0C05A1FB034CF0
:102410004CF10003A0FB021C16EB0C06654153F1C6
:102420000003094218BF46F0010613F4007F0BD1E8
:102430004FEA03314FEA053041EA155140EA1650A0
:1024400034036FF003020AE04FEAC3214FEAC520CC
:1024500041EA555140EA5650F4026FF0020202EB95
:102460002E4201EB025585EACE710AD05FEA440C98
:1024700018BF24F0004450F1000041F1000120EAAF
:10248000D47040F2FE7C624500D270BDA84214BFF9
:102490004FF080444FF04044002E08BF0024BEF1AE
:1024A000806FA8BFA1F1C041BDE8704080F282807A
:1024B00001F1C04101F000414FF0000070470CEA0B
:1024C00013159EEA0C0F18BF95EA0C0F06D081EA8F
:1024D000030E4FF000000EF0004170BD00F01CF83C
:1024E0008900013E00F007B800F009B84FEA430C3C
:1024F0005FEA5C5C08D081EA030100F05BB84FEA58
:10250000410C5FEA5C5CF6D102494FF00000704775
:102510000000FF070000F87F0EF1020E2EF0030E00
:102520005EF8046B364205D4012A43EB030515F52A
:10253000001F12D8012841EB010C1CF5001F0CD81C
:102540000ED14FEAD17C0CEB4C0C0CF1020C15F5C2
:10255000001F08BF4CEBD37C04E04FF0080C01E0F7
:102560004FEAD37C0CEB4C0526FA05F606F007067D
:10257000B6F1040C06D20EEB860CBDE870404CF0B0
:10258000010C6047DFE80CF0090B02024FF000413C
:10259000A1F500214FF0000070BD1946104601283A
:1025A00051EB010418BFD4F5001484BF002001F0E2
:1025B000004170BD0808A0F500114FEA31017047D5
:1025C00090EA010F48BF81F0004100F1DE82421A1B
:1025D0003CBF801A89184FEAD052A2EBD1534FF07A
:1025E0007F4C1CEA410F18BF9CEA026F00F03B8051
:1025F0004FF0004C4CEA00204CEA012121FA03FC88
:1026000010EB0C0C1ED202F1FF325FEA1C2040EBF3
:10261000C25038BF70471CF07F0F4FEA400C18BF04
:10262000BCF17F4F38BF7047C3F12003994008BF0A
:1026300020F00100BCF17F4F38BF7047A0F1C040CF
:1026400000F097BA4FEA3C00000A40EBC25028BFA6
:102650001CF0FF0F4FEA400CE6D018BFBCF17F4FD3
:1026600038BF7047EAE79CEA026F05D010EA5C0FBA
:1026700008BF00F00040704710B500F034FA00BF0A
:1026800064FBBE3E10B500F0F5F80CBF0120002041
:1026900010BD10B500F0EEF814BF0120002010BDF1
:1026A00010B500F037F98CBF0120002010BD10B527
:1026B00000F030F92CBF0120002010BD10B500F053
:1026C0005DF994BF0120002010BD10B500F056F94F
:1026D00034BF0120002010BD401058BFC0F1404061
:1026E000491058BFC1F140418142EFF3008070476B
:1026F0004FF47F0C1CEAD0121EBF1CEAD11392EAE1
:102700000C0F93EA0C0F00F0858090EA010F48BF90
:1027100042F4807240F4000C41F400002CF07F4140
:1027200020F07F4000B5A2EB030281420FF2081CAB
:10273000ACEB504E9EF800E0C0F100004FEA4E0EA8
:1027400000FB0EFC38BF49004FEA2C1C0CFB0EF3BB
:102750004FEACE1E0EEB635E4FEA112C0EFB0CFC13
:102760004FEAC1214FEA1C5300FB031102F5FA02A4
:102770004FEA112C0EFB0CFC4FEA01314FEADC4C06
:1027800000FB0C1142EB2242C14228BF09184CEB5E
:1027900003335DF804EB10EB410143EBC250B2F59B
:1027A0007C0F38BF704729D512F0F00F1CBF00F125
:1027B000C04000F000407047008182838485868796
:1027C00088898B8C8D8E8F919293959697999A9CF0
:1027D0009D9FA0A2A3A5A7A8AAACAEB0B2B3B5B75F
:1027E000B9BCBEC0C2C5C7C9CCCED1D4D7D9DCDF35
:1027F000E2E6E9ECF0F3F7FAFE0000004FEA400CE5
:102800000CF1807CBCF17E4F28BF7047B0F1C04016
:1028100000F0AFB90CEAD11390EA010F48BF42F4BF
:102820008072624538BF634507D213F47F0F16D01C
:1028300080EA010000F00040704710B500F053F945
:10284000097EFC3E00F005B880EA010000F000407F
:10285000704780EA010000F0004000F08AB912F4ED
:102860007F0F04BF0248704780EA010000F081B981
:102870000000C07F50EA010C00F113801CF5000F2E
:1028800058BFBCF5000F01D48842704707D710F538
:10289000000F58BF11F5000F15D4884270478942C8
:1028A00070471CF5000F04D5BCF5000FF7D5814229
:1028B00070474FF0807C1CEB400F38BF1CEB410F82
:1028C00001D28142704710B500F00DF99224490001
:1028D0004FF000504FF08051FFF7FEBE41000B0E4D
:1028E000D3F19E0208D950F400034FEA032323FAE0
:1028F00002F048BF4042704710B500F0F4F800BF46
:1029000049922480002070476FF0004282EA200044
:102910007047000050EA010C00F113801CF5000F15
:1029200058BFBCF5000F01D48842704707D710F597
:10293000000F58BF11F5000F15D488427047894227
:1029400070471CF5000F04D5BCF5000FF7D5814288
:1029500070474FF0807C1CEB400F38BF1CEB410FE1
:1029600001D28142704710B500F0BDF892244900B1
:102970004FF080504FF00051FFF7AEBE50EA010C0F
:1029800000F113801CF5000F58BFBCF5000F01D4F7
:102990008842704707D710F5000F58BF11F5000F98
:1029A00015D488427047894270471CF5000F04D542
:1029B000BCF5000FF7D5814270474FF0807C1CEBCF
:1029C000400F38BF1CEB410F01D28142704710B558
:1029D00000F089F8922449004FF000504FF08051E8
:1029E000FFF77ABE4FF47F0C1CEAD0121EBF1CEA20
:1029F000D11392EA0C0F93EA0C0F00F0478090EA93
:102A0000010F48BF42F480724FF0004C4CEA0020A6
:102A10004CEA012102EB0302A0FB0113A2F5000224
:102A2000002918BF43F001035B0028BF4FEA3303BE
:102A300042EB22425FEA132C4CEBC2502EBFBCEBA0
:102A4000436FB2F57C0F70474FEA036CBCF1004F47
:102A500008BF20F00100B2F57C0F38BF70470BD5DE
:102A600082F0FF0212F5803FC8BF704700F1C040FE
:102A7000D8BF00F00040704700F5000C5FEA4C0C36
:102A800048BF7047B0F1C04000F073B80CEAD113F2
:102A900090EA010F48BF42F48072624538BF634537
:102AA00004D280EA010000F00040704710B500F049
:102AB0001AF800BF8900013E00F007B800F009B81D
:102AC0005FEA410C5FEA1C6C08D080EA010000F06C
:102AD00050B85FEA400C5FEA1C6CF6D14FF0004042
:102AE000A0F5800070470EF1020E2EF0030E5EF886
:102AF000044B244204D44FEA4102B2F17F4F11D873
:102B00004FEA4003B3F17F4F0CD80ED14FEAD07C8F
:102B10000CEB4C0C0CF1020CB2F17F4F08BF4CEBEC
:102B2000D17C04E04FF0080C01E04FEAD17C0CEBC3
:102B30004C0324FA03F404F00704B4F1040C06D2A5
:102B40000EEB840CBDE810404CF0010C6047DFE850
:102B50000CF0070802024FF00040A0F5800010BD05
:102B60000846420018BFD2F1807288BF00F00040D2
:102B700010BDFF2141EAD050C005704790EA010F17
:102B800048BF81F000413FF522AD421A04D882F0DF
:102B90000042A0EB020011444FEAD052A2EBD15305
:102BA0004FF07F4C1CEA410F18BF9CEA026F4AD0DD
:102BB0004FF0004C4CEA00204CEA012121FA03FCC2
:102BC000B0EB0C0C0FD412F0FE0F36D05FEA4C00C5
:102BD0001DD5001240EBC25038BF70471CF03F0FAC
:102BE00018BF70470BE05FEA1C20A2F1010240EB26
:102BF000C25038BF70471CF07F0F18BF7047C3F139
:102C00002003994014BF401E20F0010070474FEA96
:102C10001223800808BF7047B0FA80FCA2EB0C02B8
:102C2000CCF1280C60FA0CF093EA122F04BF00EBF1
:102C3000C25070474FEAC3707047130A5FEADC1056
:102C400008BF7047F6E79CEA026F04D010EA5C0FF9
:102C500008BF0020704710B5FFF745FF40DFF63E84
:102C600081F00040704700000000000000000102F9
:102C70000304060708090102020304050607080900
:102C80000A0B0C0D0E0F1010A82C000800000020DD
:102C90001000000050010008B82C000810000020AF
:102CA000080700007001000801000000100000008B
:082CB00000127A000000000090
:04000005080000ED02
:00000001FF
