:020000040800F2
:10000000E8090020B5010008C52B00082D2A0008CA
:100010001D2B0008D5020008A532000800000000D2
:100020000000000000000000000000006D2D00082E
:10003000F102000800000000C92B0008712D000823
:10004000CF010008CF010008CF010008CF01000850
:10005000CF010008CF010008F502000815030008D1
:10006000CF010008CF010008CF010008CF01000830
:10007000CF010008CF010008D9020008E5020008FE
:10008000CF010008CF010008CF010008CF01000810
:10009000CF010008CF010008CF010008CF01000800
:1000A000CF010008CF010008CF010008CF010008F0
:1000B000CF010008CF010008CF010008CF010008E0
:1000C000CF010008CF010008CF010008CF010008D0
:1000D000CF01000879310008CF010008CF010008E6
:1000E000FD020008CF010008CF01000800F002F86F
:1000F00000F050F814A696E8000CB244B344DA4578
:1001000001D100F047F8BAE80F000FA696E83000DA
:10011000A5EB040504EB0607AAEB0704A7F101070A
:100120004FEA15154FEA3414A4F10104AC4201D38F
:1001300000F030F813F0010F18BFFB1A43F0010371
:1001400000F001F8DBE71847483E0000683E000079
:10015000103A24BF78C878C1FAD8520724BF30C8F3
:1001600030C144BF04680C60704700007047000055
:100170000023002400250026103A28BF78C1FBD8B0
:10018000520728BF30C148BF0B6070471FB51FBD65
:1001900010B510BD00F063F81146FFF7F7FF03F04C
:1001A00083F800F081F803B4FFF7F2FF03BC00F01E
:1001B00089F800000948804709480047FEE7FEE744
:1001C000FEE7FEE7FEE7FEE7FEE7FEE7FEE7FEE707
:1001D00004480549054A064B70470000752D000884
:1001E000ED000008E8030020E8090020E8050020F1
:1001F000E805002010B5203AC0F00B80B1E8185097
:10020000A0E81850B1E81850A0E81850203ABFF400
:10021000F5AF5FEA027C24BFB1E81850A0E818509F
:1002200044BF18C918C0BDE810405FEA827C24BFF3
:1002300051F8043B40F8043B08BF7047D20728BF81
:1002400031F8023B48BF11F8012B28BF20F8023BD0
:1002500048BF00F8012B70477047704770477546DC
:1002600000F02CF8AE4605006946534620F0070022
:10027000854618B020B5FFF7ABFFBDE820404FF032
:1002800000064FF000074FF000084FF0000BAC469F
:10029000ACE8C009ACE8C009ACE8C009ACE8C009EA
:1002A00021F007018D46704710B50446AFF300807A
:1002B0002046BDE81040FFF776BF000000487047B9
:1002C0001000002001491820ABBEFEE72600020006
:1002D00070470000FEE7000040F2C800C2F20000D4
:1002E00000F01EBC40F28400C2F2000000F018BC16
:1002F00070470000012000F0C3BD000080B54FF43E
:10030000806000F0BDFD4FF40060BDE8804000F06B
:10031000B7BD0000022000F0B3BD0000EFF3108075
:1003200072B600BFFEE700002DE9F04F8BB04CF62F
:10033000CD45C3F6CC55884629460A9314468146D6
:1003400003F02EFB4CF2000A002840462946C4F276
:10035000794A08BFD14603F023FB002820462946EE
:1003600008BFD04603F01CFB00210028C4F2A011F6
:10037000484618BFA24603F021FB98B90021C4F2F9
:10038000F011484603F013FB80B90020C4F2F010CE
:10039000494603F073FD0021C4F2201103F028FB4D
:1003A000834605E04FF07E5B02E000BF4FF0000B9C
:1003B0000021C4F2C811484603F000FB4FF00004CE
:1003C00060BB0021C4F28C21484603F0F0FA28BB40
:1003D0000021C4F22021484603F0E2FA70B1002166
:1003E000C4F25C21484603F0E9FAA8B90020C4F23F
:1003F0008C20494603F042FD06E000BF0021CCF20C
:10040000C811484603F05CFA0021C4F2701103F0F1
:10041000EFFA044602E000BF4FF07E540021C4F220
:100420008221484603F0CAFA90B90021C4F296210D
:10043000484603F0BCFA68B90021CCF28221484654
:1004400003F03EFA0021C4F2201103F0D1FA03E0D8
:10045000002001E04FF07E5000210890C4F2A0116E
:10046000404603F0ABFA0594A0B90021C4F2F011A4
:10047000404603F09CFA88B90020C4F2F0104146CF
:1004800003F0FCFC0021C4F2201103F0B1FA044691
:1004900005E000BF4FF07E5401E000BF00240021C2
:1004A000C4F2C811404603F089FA4FF0000558BB6A
:1004B0000021C4F28C21404603F079FA20BB0021D0
:1004C000C4F22021404603F06BFA68B10021C4F267
:1004D0005C21404603F072FAA0B90020C4F28C20DF
:1004E000414603F0CBFC05E00021CCF2C8114046A8
:1004F00003F0E6F90021C4F2701103F079FA054621
:1005000002E000BF4FF07E550021C4F28221404638
:1005100003F054FA90B90021C4F29621404603F04A
:1005200046FA68B90021CCF28221404603F0C8F9AE
:100530000021C4F2201103F05BFA03E0002001E087
:100540004FF07E5000210490C4F2A011504603F0F9
:1005500035FA98B90021C4F2F011504603F027FA99
:1005600080B90020C4F2F010514603F087FC00214E
:10057000C4F2201103F03CFA074604E04FF07E5726
:1005800001E000BF00270021C4F2C811504603F06B
:1005900015FA4FF0000658BB0021C4F28C215046DA
:1005A00003F005FA20BB0021C4F22021504603F0DD
:1005B000F7F968B10021C4F25C21504603F0FEF95E
:1005C000A0B90020C4F28C20514603F057FC05E08E
:1005D0000021CCF2C811504603F072F90021C4F298
:1005E000701103F005FA064602E000BF4FF07E5698
:1005F0000021C4F28221504603F0E0F907940296EC
:1006000090B90021C4F29621504603F0D0F968B9A0
:100610000021CCF28221504603F052F90021C4F2AD
:10062000201103F0E5F903E0002001E04FF07E50D7
:1006300003904FF07E5059464FF07E5603F01EFC5B
:100640002946009003F04EFB04464FF07E50394699
:10065000069703F013FC05462046294603F042FBAB
:1006600004464846414603F009FC0021C4F2A011AB
:10067000074603F09CF960B938460021002603F0D4
:100680009DF930B90021C4F2A011384603F0B0F949
:1006900006462046314603F025FB064650464146B5
:1006A00003F0ECFB0021C4F2A011044603F07FF933
:1006B000CDF824B070B920460021002703F07EF960
:1006C00050B90021C4F2A011204603F091F9074669
:1006D00002E000BF4FF07E573046394603F002FB80
:1006E000079F01904FF07E5039464FF07E5603F041
:1006F000C5FB83460598594603F0F4FA294603F0F2
:10070000F1FA05464046494603F0B8FB0021C4F221
:10071000A011044603F04BF960B9204600210026E1
:1007200003F04CF930B90021C4F2A011204603F0C7
:100730005FF906462846314603F0D4FA054650468E
:10074000494603F09BFB0021C4F2A011044603F0CC
:100750002EF968B920460021002603F02FF948B988
:100760000021C4F2A011204603F042F9064601E040
:100770004FF07E562846314603F0B4FA05900098B3
:10078000029903F0AFFA0146584603F0ABFA05466A
:100790004846514603F072FB0021C4F2A011044602
:1007A00003F005F980B920460021002603F006F980
:1007B000DDF824B060B90021C4F2A011204603F096
:1007C00017F9064604E000BFDDF824B04FF07E566E
:1007D0002846314603F086FA04464046514603F067
:1007E0004DFB0021C4F2A011054603F0E0F878B9F2
:1007F00028460021002603F0E1F8DDF8048058B90E
:100800000021C4F2A011284603F0F2F8064603E0E6
:10081000DDF804804FF07E562046314603F062FA40
:1008200082460898049903F05DFA039903F05AFA96
:1008300006465846394603F043F8069C214603F025
:100840003FF8414603F03CF8DDF81490494603F0C8
:1008500037F8514603F034F80146304603F030F8DB
:1008600043F2BD71C3F286513D46074603F09FF83F
:1008700050B90A99552008804FF6AB70149908803A
:100880000BB0BDE8F08F00BF2846394603F0B0F842
:1008900007905846394603F0ABF883462046394660
:1008A00003F0A6F805464046394603F0A1F8089043
:1008B0004846394603F09CF880465046394603F0D6
:1008C00097F882463046394603F092F840F2000924
:1008D0000990C4F2C8290798494603F003FA002496
:1008E000CCF2AA2406465846214603F0FBF93146CD
:1008F00002F0E6FF07465846494603F0F3F9314651
:1009000002F0DEFF06462846494603F0EBF9394679
:1009100002F0D6FF07462846214603F0E3F93146A8
:1009200002F0CEFF40F2000B0546C4F2AA2B089855
:10093000594603F0D7F93946044602F0C1FF07468D
:100940002046294602F0BCFF0025C4F28225044659
:100950004046294603F0C6F9394602F0B1FF074682
:100960004046594603F0BEF9214602F0A9FF04466D
:100970005046594603F0B6F9394602F0A1FF074642
:100980005046294603F0AEF9214602F099FF099E30
:10099000002105463046CCF2AA2103F0A3F93946DE
:1009A00002F08EFF04463046594603F09BF9294673
:1009B00002F086FF05462046494602F0F1FF002678
:1009C000CCF2C82600281CBF0024C4F2C82420464C
:1009D000314602F0FAFF0028284649461CBF002491
:1009E000CCF2C82402F0DCFF00281CBF0025C4F2B2
:1009F000C8252846314602F0E8FF002820461CBFE3
:100A00000025CCF2C82503F0E9F80A9908802846A9
:100A100003F0E4F8149908800BB0BDE8F08F0000F3
:100A2000014690F82100022816D10868D1E90FC3C9
:100A3000026822F00E020260026822F001020260E7
:100A4000012000FA03F2CCF8042081F821000020F4
:100A5000002281F8202070470420886301200022B2
:100A600081F820207047000090F82110022923D13E
:100A7000026840F2040C1168C4F2020C21F00E016D
:100A8000116013682F21C4F202018A4223F001038E
:100A9000136015DD3023C4F202039A421CD04423B4
:100AA000C4F202039A421BD05823C4F202039A42B2
:100AB0001CD14FF4803321E0042181630120704771
:100AC0000823C4F202039A420ED01C23C4F202038C
:100AD0009A420BD1102311E04FF480730EE000BF57
:100AE0004FF480530AE000BF012307E00CF16801D6
:100AF0004FF080738A4208BF4FF480130121CCF875
:100B0000003080F82110416B0022002980F820205D
:100B100004BF0020704780B58847002080BD0000DA
:100B200010B5D0E90FCE0168DCF800300A6823FA6E
:100B30000EF35C072AD512F0040427D00A68920647
:100B400003D40A6822F004020A602F22C4F20202CF
:100B5000914240F20402C4F202025BDD3023C4F28F
:100B60000203994272D04423C4F20203994273D023
:100B70005823C4F20203994240F07A804FF4802354
:100B80001360C16A002940F098806FE09C0727D568
:100B900012F0020424D00A68920606D40A6822F0F1
:100BA0000A020A60012280F821202F22C4F20202E8
:100BB000914240F20402C4F202023BDD3023C4F24F
:100BC0000203994260D04423C4F2020399425FD0E9
:100BD0005823C4F20203994260D14FF4003365E018
:100BE0001B0743D512F0080208BF10BD0A6822F0A7
:100BF0000E020A60012101FA0EF2CCF80420816392
:100C000080F82110016B0022002980F8202054D1A7
:100C10002CE000BF0823C4F20203994222D01C2317
:100C2000C4F20203994223D140231360C16A002910
:100C300043D11BE00823C4F2020399422CD01C23A9
:100C4000C4F20203994229D120232FE04FF480639C
:100C50001360C16A89BB09E04FF480431360C16A25
:100C600059BB03E004231360C16A31BB10BD00BF50
:100C700002F168044FF08063A14208BF4FF4800383
:100C80001360C16AC9B9F1E74FF400730EE000BF09
:100C90004FF400530AE000BF022307E002F16804AA
:100CA0004FF00073A14208BF4FF400131360816A34
:100CB0000022002980F82020D8D0BDE81040084745
:100CC000014600284FF0010008BF70472DE9F043AE
:100CD000D1F800C04FF6F873CBF6FD734CF6CD4259
:100CE0006344CCF6CC42A3FB02236FF0030202EA7A
:100CF00093020023C4F2020301F10C08C1E90F3290
:100D00000222D1E9019E98E8F00181F82120DCF867
:100D1000002043F6F0739A4342EA090242EA0E02C7
:100D200022432A4332433A4342EA0802CCF80020E5
:100D300000228A6381F8210081F820200020BDE88C
:100D4000F043704790F820C0BCF1010F04BF0220AF
:100D50007047F0B54FF0010E80F820E090F821C008
:100D6000BCF1010F26D14FF0020C80F821C04FF0EA
:100D7000000CC0F838C0D0E900C4C56AC66BDCF806
:100D80000070102C27F00107CCF80070006C0EFAF0
:100D900000F070600846CCF8043004BF10460A46E4
:100DA000CCF80800CCF80C20DCF8000045B140F08D
:100DB0000E000DE0002180F820100220F0BD00BFE1
:100DC00020F00400CCF80000DCF8000040F00A003D
:100DD000CCF80000DCF8000040F00100CCF8000086
:100DE0000020F0BDB0B5044600F06AF9054640F2B7
:100DF0000000C2F200000078611C18BF044400BF6C
:100E000000F05EF9401BA042FAD3B0BD40F60341AA
:100E1000084208BF704770B540F60044C4F20104B0
:100E200020460121012500F03FF9B0FA80F0460983
:100E30002046022100F038F9002820464FF4806156
:100E400008BF023600F030F9002820464FF4006158
:100E500008BF043600F028F9002808BF083630061D
:100E60000AD040F27004C2F200046078304360702F
:100E7000257000F025F96060BDE870407047000003
:100E800040F21441C4F201010A68024214BF086032
:100E90007047FFF7BBBF00002DE9F04F82B00E682E
:100EA000002E00F0FD8041F20042C4F20102042352
:100EB00040F2004E904208BF03234FF6FF7CC4F27D
:100EC000010E009300240123C1F2100C4FF0000A20
:100ED0004FF000094BE000BF41F20002C4F20102F2
:100EE000009F904208BF022704F00C030F229A4093
:100EF0002BEA020207FA03F34FEA9A051A4346F86F
:100F000025204E6840F20C45F202DEF8082054BF5E
:100F100022EA080242EA0802C4F20105CEF80820DB
:100F20002A68B30254BF22EA080242EA08022A6091
:100F3000B303DEF8042054BF22EA080242EA0802A2
:100F4000F303CEF80420DEF800204FF0010354BF75
:100F500022EA080242EA0802CEF800200E680AF1EE
:100F6000010A36FA0AF204F1040400F0998003FA47
:100F70000AFB16EA0B08F1D04E68664512DC122E09
:100F800056D8DFE806F0350B4D49555555555555A2
:100F90005555555555555545510000BFD1F80C9044
:100FA00046E000BF4FF6FF72C1F2210296420FDC0D
:100FB0000022C1F2110296421AD00022C1F212029E
:100FC000964215D00022C1F22102964210D02FE0A5
:100FD0000022C1F2220296420AD00022C1F231025E
:100FE000964205D00022C1F23202964220D100BFC3
:100FF0008A684AB1012A14BFC0F814B0C0F810B012
:101000004FF0080914E000BF4FF0040910E000BFE2
:10101000CA6802F104090BE04FF0000908E000BFC4
:10102000CA6802F1080903E0CA6802F10C0900BFAE
:1010300002462646B8F5807F24BF0432203E17685A
:101040000F25B54027EA050509FA06F63543156070
:10105000CA79D2067FF582AF41F21803C4F20203C7
:101060001A68AEF57E7642F001021A601A6802F044
:1010700001020192019A2AF0030256F802B040F6EA
:101080000002C4F20102904208D040F60042C4F2CD
:10109000010290427FF420AF012725E7002723E7D4
:1010A00002B0BDE8F08F00008068084018BF012042
:1010B00070470000002A08BF090401617047000062
:1010C00040F2E430C2F200000068704740F20000D5
:1010D00040F2E431C2F20000C2F2000100780A6876
:1010E000104408607047000080B542F20000C4F26E
:1010F0000200016841F010010160032000F08CF84B
:101100000F2000F005F800F027F8002080BD000057
:1011100070B540F20006C2F2000640F208013278D3
:10112000C2F200014FF47A730968B3FBF2F204468D
:10113000B1FBF2F1084600F085FB0F2C4FF00105E2
:1011400008D838B94FF0FF3021460022002500F0C2
:1011500037F87460284670BD82B041F21800C4F2BE
:1011600002000168022241F001010160016801F002
:10117000010101910199416841F08051416040684D
:1011800000F08050009000980420C4F20100016833
:1011900062F31A61016002B070470000002848BF86
:1011A000704700F01F01012202FA01F11C2202EA3D
:1011B000D0004EF20012CEF20002815070470000C3
:1011C00010B54EF60C5CCEF2000CDCF80030C3F328
:1011D000022E8EF00704042C28BF0424BEF1030362
:1011E0004FF0FF3E0EFA04F438BF0023A1439940AC
:1011F0000EFA03F39A43114300F00F0200F160432B
:101200000901043A03F564436244002848BF02F12F
:101210000C03197010BD00004EF60C51CEF2000107
:101220000A684FF6FF031A4060F30A2242F080601A
:1012300040F0FD7008607047002804BF012070472F
:101240002DE9F04381B042F20008C4F202080446DE
:10125000D8F800000D4600F0070081420CD9D8F8FC
:10126000000020F007002843C8F80000D8F800006C
:1012700000F00700A8426CD1206841F20409810700
:10128000C4F2020917D5410705D5D9F8001041F479
:10129000E061C9F80010010705D5D9F8001041F444
:1012A0006051C9F80010D9F80010A26821F0F001CF
:1012B0001143C9F80010C00742D1D8F8000000F06F
:1012C000070085420CD2D8F8000020F00700284320
:1012D000C8F80000D8F8000000F00700A84238D194
:1012E0002068410707D5D9F80010E26821F4E061D1
:1012F0001143C9F80010000708D5D9F8000021698A
:1013000020F4605040EAC100C9F80000D9F800207C
:1013100002F00C00082841F20020C0F27A004DD102
:1013200043F68073C2F38341C0F60003595CD203D5
:1013300038D440F60010C0F23D0048433EE000BF04
:10134000606859F8041C022808D0012826D18903B6
:1013500006D4012001B0BDE8F08300BF8901F8D5B3
:10136000D9F8001021F003010843C9F80000FFF785
:10137000A7FE064641F28837D9F80000616800F000
:101380000C00B0EB810F98D0FFF79AFE801BB8429B
:10139000F2D9032001B0BDE8F08300BF8907D8D59A
:1013A000DEE700BFD9F8002043F67E73C2F3404267
:1013B000C0F600039A5C4843B0FBF2F0D9F8001085
:1013C00043F66672C1F30311C0F60002515C40F2AD
:1013D000080220FA01F140F20400C2F200000068A5
:1013E000C2F200021160FFF793FE002001B0BDE8D9
:1013F000F083000040F2080041F20401C2F2000054
:10140000C4F202010068096843F67672C1F3022152
:10141000C0F60002515CC8407047000040F208006E
:1014200041F20401C2F20000C4F20201006809683E
:1014300043F67672C1F3C221C0F60002515CC84087
:1014400070470000002804BF012070472DE9F041DB
:1014500082B00446007841F20006C007C4F20206DA
:101460000CD0706800F00C00042840F081803068D7
:10147000800303D56068002800F04681207880074B
:101480001BD5706810F00C0F09D0706800F00C00CC
:10149000082840F087807068C00300F183803068BE
:1014A000800703D52069012840F02E8130686169EA
:1014B00020F0F80040EAC10030602078000713D423
:1014C000207840072CD4E569002D00F01881706861
:1014D00000F00C00082840F0A780012D40F00481A6
:1014E000012002B0BDE8F081A069002800F08480EE
:1014F0000020C4F242200121C0F88014FFF7E0FD73
:10150000054600BF706A800700F1B280FFF7D8FD82
:10151000401B0228F6D9032002B0BDE8F08100BFCD
:10152000F0695FEAC00808D4F06940F08050F061CB
:10153000F06900F080500090009847F20007C4F274
:1015400000073868C00549D4386840F480703860B6
:10155000FFF7B6FD054600BF3868C0053ED4FFF76B
:10156000AFFD401B6428F7D9032002B0BDE8F0812D
:10157000706800F00C00082803D17068C0033FF5C4
:1015800076AF61683068002900F00C81B1F5A02FBA
:1015900000F00081B1F5803F40F01A8140F48030C6
:1015A0001CE100BF2069002840F20000C4F2422084
:1015B00000F0888001210160FFF782FD054600BF31
:1015C000306880073FF572AFFFF77AFD401B0228B5
:1015D000F6D9032002B0BDE8F08100BFE168306AAF
:1015E000002900F09D80052900F09280012940F03B
:1015F000AF8040F00100B1E00020C4F242200021A1
:10160000C0F88014FFF75CFD054600BF706A8007D4
:101610007FF556AFFFF754FD401B0228F6D9032093
:1016200002B0BDE8F08100BF0027C4F242270020CD
:101630003866FFF745FD022D05460DD13068800163
:1016400040F1DE80FFF73CFD401B02284FF0030015
:10165000F4D902B0BDE8F081306880014FD5FFF7C2
:101660002FFD401B02284FF00300F5D9F1E700BF22
:1016700040F20800C2F20000006844F6D351C1F203
:101680006201A0FB0101480A019000BF00BF019860
:10169000411E002801913FF413AF00BF0198411E85
:1016A000002801913FF40CAF00BF0198411E0028B3
:1016B00001913FF405AF00BF0198411E0028019140
:1016C000E4D1FDE600210160FFF7FAFC054600BF0A
:1016D000306880077FF5F1AEFFF7F2FC401B02286F
:1016E0004FF00300F4D9B4E77068216A00F4803247
:1016F0008A4209D1616A00F47010884204D1002046
:1017000002B0BDE8F08100BF012002B0BDE8F08169
:1017100040F004003062306A40F001001EE000BF7B
:1017200020F001003062306A20F004003062FFF7E0
:10173000C7FC054641F28837306A800720D5FFF79D
:10174000BFFC401BB8424FF00300F5D981E700BF52
:1017500020F001003062306A20F004003062FFF7B0
:10176000AFFC054641F28837306A800708D4FFF79E
:10177000A7FC401BB842F7D9032002B0BDE8F081B6
:10178000B8F1000F3FF59FAEF06920F08050F06196
:1017900099E600BF40F480203060306840F480302B
:1017A0001CE000BF20F480303060306820F48020DE
:1017B0003060FFF785FC0546306880037FF55EAE3C
:1017C000FFF77EFC401B64284FF00300F4D940E78C
:1017D00020F480303060306820F480203060FFF7E3
:1017E0006FFC0546306880033FF548AEFFF768FCA4
:1017F000401B6428F6D9032002B0BDE8F08100BF89
:10180000206AB0F5803F05D17168A26821F40031EB
:10181000114371607168626A21F4741111430843C5
:10182000706001203866FFF74BFC04463068800189
:101830003FF565AFFFF744FC001B02284FF00300A3
:10184000F4D906E7411E0020B0EB116F1CBF012048
:1018500070474EF21002CEF2000251604EF6235154
:10186000CEF20001F0230B700721906011607047E9
:1018700090F83C20012A4FF0020236D010B580F8D3
:101880003D200268D2F804E0D2F808C00C682EF0BF
:101890007003234340F2FF74C4F20004A242536079
:1018A0000ADCB2F1804F13D040F20043C4F20003CF
:1018B0009A420DD011E000BF42F60043C4F201038A
:1018C0009A4205D040F60003C4F200039A4204D1C4
:1018D00049682CF08003194391600121002280F8AF
:1018E0003D1080F83C20BDE81040104670470000D5
:1018F000002804BF0120704710B590F83D1031B9A1
:10190000002180F83C10044600F070F820460221C7
:1019100080F83D10016840F2FF740B68C4F20004C7
:1019200042F6004CA142C4F2010C15DCB1F1804F2B
:101930001AD040F20042C4F20002914214D0A142F7
:1019400018DCB1F1804F1DD040F20042C4F2000219
:10195000914217D01AE000BF614505D040F6000261
:10196000C4F200029142EAD1826823F0700313436B
:10197000A142E6DD614505D040F60002C4F2000256
:10198000914203D1026923F440731343846923F025
:101990008002D0F804E0C368224361450A60CB624C
:1019A000C1F828E002D14269CCF8302001224A6116
:1019B0000B69DB0703D00B6923F001030B6180F88F
:1019C000462080F83E2080F83F2080F8402080F8B4
:1019D000412080F8422080F8432080F8442080F89D
:1019E000452080F83D20002010BD00000068B0F1C7
:1019F000804F18BF704781B041F21C00C4F2020052
:101A0000016841F001010160006800F001000090F0
:101A1000009801B07047000090F83D1001291CBFEC
:101A200001207047022180F83D10006840F2FF71EC
:101A3000C4F20001884209DCB0F1804F12D040F2BC
:101A40000041C4F2000188420CD012E042F600418D
:101A5000C4F20101884205D040F60001C4F2000141
:101A6000884206D1816801F00701062904BF0020E1
:101A70007047016841F001010160002070470000DB
:101A800090F83C20012A4FF002026CD080B580F81B
:101A90003D20D0F800C04FF67772DCF8083023EA1A
:101AA0000202CCF808200B684F2B29DC1F2B45DDE8
:101AB000202B46D0302B44D0402B40F0AF80D1F8C3
:101AC00004E0C968DCF82030DCF8202022F00102B4
:101AD000CCF82020DCF8182022F0F00242EA0111B4
:101AE00023F00A0242EA0E02CCF81810CCF82020AB
:101AF000DCF8081041F0470121F0300128E000BF78
:101B00006F2B33DDB3F5005F74D0B3F5805F21D068
:101B1000702B40F08380D1E901E3C968DCF808202C
:101B200043EA0E0322F47F4243EA01211143CCF839
:101B30000810DCF8081041F0770109E00BB1102B18
:101B40006CD1DCF8081021F07001194341F0070155
:101B5000CCF808100022012180F83D10002180F807
:101B60003C10BDE880401046704700BF502B21D08C
:101B7000602B53D1D1F804E0C968DCF82030DCF8E0
:101B8000202022F01002CCF82020DCF8182022F4CB
:101B9000704242EA013123F0A00242EA0E12CCF870
:101BA0001810CCF82020DCF8081041F0670121F073
:101BB0001001CDE7D1F804E0C968DCF82030DCF88A
:101BC000202022F00102CCF82020DCF8182022F09E
:101BD000F00242EA011123F00A0242EA0E02CCF8B6
:101BE0001810CCF82020DCF8081041F0570121F043
:101BF0002001ADE7D1E901E3C968DCF8082043EA38
:101C00000E0322F47F4243EA01211143CCF808106D
:101C1000DCF8081041F480419AE700BF01229AE7FE
:101C200080B586B0016840F20040C4F200008142F5
:101C30004FF00001CDE90411CDE9021102D006B048
:101C400080BD00BF41F21801C4F202010A6800F52C
:101C5000823042F004020A60096801F00401019137
:101C60000199C021029102210391059102A9FFF778
:101C700013F906B080BD000090F83C30012B04BF82
:101C8000022070474FEAB202032A00F2F1802DE9E8
:101C9000F043DFE802F003A53B7500BF036842F69E
:101CA00000461D6A1A6AC4F2010622F001021A6295
:101CB0001A465C6852F818CFB3428E68D1F800E03B
:101CC00025F0020545EA06050CD1CE68D1E9057874
:101CD00024F4407425F00C0526F004063C433543FB
:101CE00044EA08042CF0730747EA0E075C609F6122
:101CF0004F6809695F631D629F6947F008079F612C
:101D00009F6927F004079F61A6E000BF036842F6C1
:101D100000461D6A1A6AC4F2010622F480721A6231
:101D20001A46D3F804C052F81CEFB3428E680C6810
:101D300025F4007545EA06250FD1CE68D1E905984E
:101D4000360240F2FF4725F44065BE4335432CF48C
:101D5000405748EA090647EA061C2EF07307274356
:101D6000C3F804C0DF614F680969DF631D62DF6982
:101D700047F00807DF61DF6927F00407DF616BE0E8
:101D8000036842F60047D3F820C01A6AC4F201077C
:101D900022F480521A621A465C6852F81C5FD1F82D
:101DA00000E08E68BB4204D14F6924F4804444EAC9
:101DB00087142CF4005747EA063725F4E64646EA2E
:101DC0000E265C60DE614E6809691E641F62DF6971
:101DD00047F40067DF61DF6927F48067DF613AE07D
:101DE000036842F600461D6A1A6AC4F2010622F030
:101DF00010021A621A46D3F804C052F8184FB342C0
:101E00008E68D1F800E025F0200545EA06150FD1CF
:101E1000CE68D1E905986FF0400725F0C00507EAC4
:101E2000061635432CF4406748EA090647EA860C53
:101E300024F4E64444EA0E27C3F804C09F614F68C7
:101E400009699F631D629F6947F400679F619F69ED
:101E500027F480679F61090213681943116000210C
:101E6000BDE8F043002280F83C200846704700BFE0
:101E70000121002280F83C2008467047002804BF5A
:101E80000120704710B590F83D1031B9002180F85D
:101E90003C10044600F070F82046022180F83D1006
:101EA000016840F2FF740B68C4F2000442F6004C73
:101EB000A142C4F2010C15DCB1F1804F1AD040F2FE
:101EC0000042C4F20002914214D0A14218DCB1F1E8
:101ED000804F1DD040F20042C4F20002914217D060
:101EE0001AE000BF614505D040F60002C4F20002CE
:101EF0009142EAD1826823F070031343A142E6DDE8
:101F0000614505D040F60002C4F20002914203D1BF
:101F1000026923F440731343846923F08002D0F8EC
:101F200004E0C368224361450A60CB62C1F828E03F
:101F300002D14269CCF8302001224A610B69DB07EB
:101F400003D00B6923F001030B6180F8462080F871
:101F50003E2080F83F2080F8402080F8412080F823
:101F6000422080F8432080F8442080F8452080F803
:101F70003D20002010BD0000006840F20041C4F286
:101F80000001884218BF704781B041F21C00C4F2C2
:101F90000200016841F002010160006800F00200E7
:101FA0000090009801B07047C1B1042908D00829F9
:101FB00014BF41224022825C012A05D016E000BFF6
:101FC0003F22825C012A11D10222082910D0042963
:101FD00014BF80F8412080F83F200BE090F83E20AD
:101FE000012A03D1022280F83E2003E0012070473D
:101FF00080F84020006801F01F010122036A8A4036
:1020000023EA02010162036A42F64441C4F201017B
:102010001A43A1F14403984202620FD040F2FF71CB
:10202000C4F20001884213DCB0F1804F1CD040F2B2
:102030000041C4F20001884216D01CE00A6842F454
:1020400000420A6040F2FF71C4F200018842EBDDF9
:1020500042F60041C4F20101884205D040F6000179
:10206000C4F20001884206D1816801F00701062907
:1020700004BF00207047016841F0010101600020A9
:102080007047000090F84230202B0BD194460A464E
:1020900000294FF0010118BFBCF1000F06D108461E
:1020A000704700BF02210846704700BF70B582B07C
:1020B000012101630025222145638262A0F82CC022
:1020C000456480F842100168C36B42F6017443F224
:1020D000610E42F68556C0F60004C0F6000EC0F64A
:1020E0000006C3E90A4EC3E90C65043104461846EC
:1020F0006346FEF727FE0195216820460A68019293
:10210000496801910199216931B300BF016851E823
:10211000031F026841F4807142E80313E3B10168D0
:1021200051E8031F026841F4807142E803139BB138
:10213000016851E8031F026841F4807142E803130B
:1021400053B1016851E8031F026841F4807142E80D
:102150000313002BDAD100BF016851E8051F0268A4
:1021600041F0010142E80513BBB3016851E8051FC6
:10217000026841F0010142E8051373B3016851E8B8
:10218000051F026841F0010142E805132BB3016805
:1021900051E8051F026841F0010142E80513002BD8
:1021A000DAD11AE0016851E8051F026841F04001E8
:1021B00042E80513DBB1016851E8051F026841F0F0
:1021C000400142E8051393B1016851E8051F026818
:1021D00041F0400142E805134BB1016851E8051F89
:1021E000026841F0400142E80513002BDAD1016B8F
:1021F000012933D10021009101680A6800924968E1
:1022000000910099016851E8031F026841F0100134
:1022100042E80313DBB1016851E8031F026841F093
:10222000100142E8031393B1016851E8031F0268EB
:1022300041F0100142E803134BB1016851E8031F5C
:10224000026841F0100142E80313002BDAD10021AB
:1022500002B0BDE870400846704700BF012102B0DF
:10226000BDE8704008467047006843F60002C4F2BB
:102270000102904218BF7047B0B540F2E4250C4609
:1022800040F2E410C2F20005C2F2000029462246E4
:10229000FDF7B0FF40F28000C2F20000448040F23F
:1022A0009C140121C2F200040170204629464FF41B
:1022B0008072FFF7E7FEE06B0068016821F004011F
:1022C0000160BDE8B040704770470000B0B582B013
:1022D00001680A68CC684B6902F02F05202D04F0D4
:1022E000200505D125B102B0BDE8B04000F0C4BE64
:1022F0005FEA027C1EBF03F0010E04F4907313EB3F
:102300000E0341D1036BD50618D5012B16D114F05D
:10231000100313D0002201920A6801924A680192C8
:10232000019A496949064BD4818DC28DC38D002B1A
:1023300018BF914240F0F48102B0B0BD13062DD514
:1023400014F080032AD090F84120212AF4D1826829
:10235000B2F5805F03D10269002A00F06782026A49
:10236000531C036212784A60C28C013A1304C2847F
:10237000E2D1C86820F08000C860C86840F0400022
:10238000C86002B0B0BD00BFD30718BF14F480739B
:1023900040F0D080530700F1D380D8E05206CBD56F
:1023A00014F04002C8D0CA6822F04002CA6020215E
:1023B00080F8411002B0BDE8B04000F035BB00BF6E
:1023C000C16B0A68526893B2002BB5D0858DAB42C1
:1023D000B2D2C2858969202900F0A180016851E844
:1023E000031F026821F4807142E80313DBB1016826
:1023F00051E8031F026821F4807142E8031393B18E
:10240000016851E8031F026821F4807142E8031358
:102410004BB1016851E8031F026821F4807142E862
:102420000313002BDAD1016851E8051F026821F07F
:10243000010142E80513C3B3016851E8051F0268B2
:1024400021F0010142E805137BB3016851E8051F43
:10245000026821F0010142E8051333B3016851E835
:10246000051F026821F0010142E80513002BDAD1B3
:102470001BE000BF016851E8051F026821F0400120
:1024800042E80513DBB1016851E8051F026821F03D
:10249000400142E8051393B1016851E8051F026845
:1024A00021F0400142E805134BB1016851E8051FD6
:1024B000026821F0400142E80513002BDAD1202107
:1024C00080F8421000210163016851E8031F02688F
:1024D00021F0100142E80313DBB1016851E8031F4A
:1024E000026821F0100142E8031393B1016851E83A
:1024F000031F026821F0100142E803134BB1016889
:1025000051E8031F026821F0100142E80313002B79
:10251000DAD1C16B04460846FEF782FA2046022152
:102520004163818DC28D891A89B202B0BDE8B04085
:10253000FFF79ABE436C43F001034364530706D58B
:10254000BEF1000F03D0436C43F0020343649307D2
:1025500006D5BEF1000F03D0436C43F0040343647F
:10256000BCF1000F06D55EEA050303D0436C43F0CF
:1025700008034364436C002B3FF4DEAE920605D59E
:1025800025B1044600F078FD216820464969426C77
:1025900001F0400102F00802891800F0B98000BF84
:1025A000016851E8031F026821F4907142E80313A7
:1025B000BBB3016851E8031F026821F4907142E83F
:1025C000031373B3016851E8031F026821F490718B
:1025D00042E803132BB3016851E8031F026821F49A
:1025E000907142E80313002BDAD11AE0016851E838
:1025F000051F026821F0010142E80513DBB1016803
:1026000051E8051F026821F0010142E8051393B16A
:10261000016851E8051F026821F0010142E8051335
:102620004BB1016851E8051F026821F0010142E841
:102630000513002BDAD1016B012924D1016851E87F
:10264000031F026821F0100142E80313DBB10168A7
:1026500051E8031F026821F0100142E8031393B10F
:10266000016851E8031F026821F0100142E80313DA
:102670004BB1016851E8031F026821F0100142E8E4
:102680000313002BDAD1202180F8421000210163CE
:1026900001684969490640F1C380016851E8051F96
:1026A000026821F0400142E80513DBB1016851E8FE
:1026B000051F026821F0400142E8051393B101684B
:1026C00051E8051F026821F0400142E805134BB1B3
:1026D000016851E8051F026821F0400142E8051336
:1026E000002BDAD1C16B002900F09A8042F67952B2
:1026F000C0F60002044608464A63FEF7B5F9002812
:102700003FF41AAEE06B416B02B0BDE8B040084741
:102710000446FFF7D9FD0020606402B0B0BD00BFE1
:10272000891A00BF026852E8032F036822F49072EE
:1027300043E80325BDB3026852E8032F036822F47F
:10274000907243E8032575B3026852E8032F0368CB
:1027500022F4907243E803252DB3026852E8032F58
:10276000036822F4907243E80325002DDAD11AE0C1
:10277000026852E8052F036822F0010243E80525AC
:10278000DDB1026852E8052F036822F0010243E838
:10279000052595B1026852E8052F036822F0010271
:1027A00043E805254DB1026852E8052F036822F081
:1027B000010243E80525002DDAD1202280F84220CD
:1027C00000220263026852E8032F036822F010021D
:1027D00043E80325DDB1026852E8032F036822F0C5
:1027E000100243E8032595B1026852E8032F0368FD
:1027F00022F0100243E803254DB1026852E8032F8E
:10280000036822F0100243E80325002DDAD10222EA
:1028100089B2426302B0BDE8B040FFF725BD00BFFA
:1028200002B0BDE8B040FFF74FBD00BF026A32F80A
:10283000023B6FF35F234B60026295E5002804BF03
:102840000120704710B5044690F8410028B90020D7
:1028500084F84000204600F063F8242084F841000A
:102860002068D4E90212C36823F40053C3600369EB
:1028700023F440531A430261D4E904231143C2688C
:10288000194341F20C639A431143C1604169A26943
:1028900021F44071114343F60002C4F20102904258
:1028A000416103D0FEF7A6FD02E000BFFEF7B6FDD2
:1028B000D4E90023192148439900B0FBF1F048F214
:1028C0001F5CC5F2EB1CA0FB0C314FF69C73490951
:1028D000C0F6FF7301FB0300322303EB0010A0FBE3
:1028E0000C03F02000EA531000EB0110C3F3431176
:1028F000084490601069202120F4904010615069D4
:1029000020F02A005061D06840F40050D0600020D0
:10291000606484F8411084F84210606310BD0000C8
:102920002DE9F04186B040F600050446C4F20105E9
:10293000006805F54051002788420597CDE90377E7
:10294000029703D006B0BDE8F08100BF41F2180045
:10295000C4F20200016802AE41F4804101600168E6
:1029600040F2440801F48041019101990168C4F2E8
:10297000020841F0040101600068314600F00400E3
:10298000019001984FF40070029002200390032000
:1029900005902846FEF780FA4FF48060CDE90207E3
:1029A000284631460497FEF777FA40F2840508F18D
:1029B0001400C2F2000580262021C5E90007284640
:1029C000C5E90276C5E90477C5E90617FEF778F987
:1029D000002818BFFDF7A2FCE5636C6240F2C80551
:1029E000C2F2000510200021C5E900802846C5E993
:1029F0000216C5E90411C5E90611FEF761F90028C0
:102A000018BFFDF78BFC252002210022A5636C6214
:102A1000FEF7D6FB2520FEF7C1FB06B0BDE8F0812E
:102A2000704700007047000070470000FEE700009C
:102A300080B586B00020CDE90400CDE9020041F266
:102A40001800C4F20200016841F00801016000684A
:102A500002A900F008000190019840F6034002909E
:102A60000020C1F221000390012004900220059073
:102A700040F60040C4F20100FEF70EFA06200121E4
:102A80000022FEF79DFB0620FEF788FB07200121B0
:102A90000022FEF795FB0720FEF780FB282001218E
:102AA0000022FEF78DFB2820FEF778FB06B080BDE4
:102AB000F0B581B040F60044C4F201042046012183
:102AC000FEF7F2FAB0FA80F0450920460221FEF73F
:102AD000EBFAB0FA80F0460920464FF48061FEF729
:102AE000E3FAB0FA80F0470920464FF40061FEF7A0
:102AF000DBFAB0FA80F07119400939440144042925
:102B000003D30027002600250020000640EA0740E6
:102B100040EA0620284401B0F0BD0000FEE70000B6
:102B2000B0B540F25414C2F2000420460021002542
:102B3000FFF73AFA20460421FFF736FA206845638A
:102B40008563B0BD2DE9F047002240F6004A87B208
:102B5000B0F1FF3FCCBF01224042C4F2010A0D4652
:102B60001FFA81F8C6B2504610210024FEF7A2FADF
:102B7000FA0B50462021FEF79DFA40F25419C2F29A
:102B80000009D9F80000642E4FF0640728BF3E46C4
:102B90004663B5F1FF3FCCBF01246D425046402152
:102BA0002246EDB2FEF786FA4FEAD832504680212F
:102BB000FEF780FAD9F80000642D38BF2F468763EE
:102BC000BDE8F087FEE700007047000070B586B0F2
:102BD000FEF776FA40F27002C2F20002117809B3F1
:102BE000EFF3108372B640F27103C2F200031E7855
:102BF00040F27805C2F200052E7000261E70167095
:102C000062B62A7801236B7002F005034FF6A671B5
:102C1000052B68601BD16FF0590000F114014FF6CD
:102C2000A67099E040F27804C2F2000461780229AB
:102C30001CD0012930D161682278411A090918296C
:102C400062D802F0050005284FF6A671E3D002F025
:102C50000900092801F1140000F07E8002F006034B
:102C6000062B49D13C21642076E000BF616840F228
:102C70002522411A91424FD8207810F008006FF0B9
:102C8000590000F10A0108460CBF5020502106B03F
:102C9000BDE87040FFF756BF03A800F0DDFA03AAB5
:102CA00007CA02AE0DF10A030096FDF73DFBBDF920
:102CB0000A0000F0DCFC4CF6CD444CF6CC45CCF6DA
:102CC000CC44C3F6EC7522462B4600F0FBFC00F02A
:102CD0009FFCBDF908100646084600F0C8FC2246D5
:102CE0002B4600F0EFFC00F093FC01463046FFF766
:102CF00029FF06B070BD00BF02F00A030A2B19D1EC
:102D000064213C2028E000BFD1070FD00221617070
:102D1000606006B070BD00BF0546FFF7C9FE28B170
:102D200001206070656006B070BD00BF002060705B
:102D300006B070BDD30709D193070BD4530713D442
:102D4000120700EAE27001EAE27105E0A1F10A006F
:102D5000014601E06420642100B209B206B0BDE87A
:102D60007040FFF7EFBE00BF014658E77047000014
:102D7000FEF7ACB970470000406A0021C185C184EC
:102D8000FFF7A2BA406A01684A6990F84130212BE6
:102D90002DD112F080022AD00021C184016851E8AF
:102DA000031F026821F0C00142E80313DBB1016890
:102DB00051E8031F026821F0C00142E8031393B1F8
:102DC000016851E8031F026821F0C00142E80313C3
:102DD0004BB1016851E8031F026821F0C00142E8CD
:102DE0000313002BDAD1202180F8411001684969D2
:102DF00090F84220222A40F07D8011F0400179D0E5
:102E00000021C185016851E8031F026821F4907117
:102E100042E80313BBB3016851E8031F026821F4C1
:102E2000907142E8031373B3016851E8031F02680D
:102E300021F4907142E803132BB3016851E8031F9A
:102E4000026821F4907142E80313002BDAD11AE0F2
:102E5000016851E8051F026821F0010142E80513ED
:102E6000DBB1016851E8051F026821F0010142E869
:102E7000051393B1016851E8051F026821F00101B3
:102E800042E805134BB1016851E8051F026821F0C3
:102E9000010142E80513002BDAD1016B012924D18D
:102EA000016851E8031F026821F0100142E8031392
:102EB000DBB1016851E8031F026821F0100142E80C
:102EC000031393B1016851E8031F026821F0100158
:102ED00042E803134BB1016851E8031F026821F077
:102EE000100142E80313002BDAD1202180F84210B0
:102EF00000210163416C41F010014164FFF7E4B926
:102F00000168406A0968890600F19F800021C18537
:102F1000016851E8031F026821F4807142E803133D
:102F2000E3B1016851E8031F026821F4807142E8AF
:102F300003139BB1016851E8031F026821F48071FB
:102F400042E8031353B1016851E8031F026821F4FA
:102F5000807142E80313002BDAD100BF016851E809
:102F6000051F026821F0010142E80513BBB30168A7
:102F700051E8051F026821F0010142E8051373B30F
:102F8000016851E8051F026821F0010142E80513BC
:102F90002BB3016851E8051F026821F0010142E8E6
:102FA0000513002BDAD11AE0016851E8051F026809
:102FB00021F0400142E80513DBB1016851E8051F2B
:102FC000026821F0400142E8051393B1016851E81D
:102FD000051F026821F0400142E805134BB101686A
:102FE00051E8051F026821F0400142E80513002B5B
:102FF000DAD1202180F84210016B012925D100BFD0
:10300000016851E8031F026821F0100142E8031330
:10301000DBB1016851E8031F026821F0100142E8AA
:10302000031393B1016851E8031F026821F01001F6
:1030300042E803134BB1016851E8031F026821F015
:10304000100142E80313002BDAD100214163016B28
:10305000012918BFFFF7E4BC818DFFF705B9000017
:10306000406A01214163016B012918BFFFF7DABCF7
:10307000818D4908FFF7F8B881B090F842102229F5
:1030800021D183680246B3F5805F09D152F8281F29
:1030900052F8183C002B63D003685B680AE000BF5D
:1030A00052F8281F13B90369002BF5D003685B6839
:1030B00003F07F030B70116801311160C18D01397C
:1030C0000A04C18502D001B0704700BF0168CA6818
:1030D00022F02002CA60CA6822F48072CA604A697B
:1030E00022F001024A61202180F842100021416350
:1030F000026B012A3CD10163016851E8031F026899
:1031000021F0100142E80313DBB1016851E8031F0D
:10311000026821F0100142E8031393B1016851E8FD
:10312000031F026821F0100142E803134BB101684C
:1031300051E8031F026821F0100142E80313002B3D
:10314000DAD101680A68D20606D5002200920A6820
:103150000092496800910099818D01B0FFF784B811
:10316000026852686FF35F2221F8022B8162A5E7A3
:1031700001B0FFF755BC000040F29C10C2F2000005
:10318000FFF7A4B840F20C10C2F20000FEF744BCF6
:103190002DE9F047154601229A4689460646FDF775
:1031A00089FF40F20C18C2F20008D8F80000002194
:1031B000416200BF416A092908D8416A092905D836
:1031C000416A092902D8416A0A29F3D348F6CF2473
:1031D000304649460022CFF6FF74FDF76BFF00260C
:1031E000CBF68076274600BF28465146FDF75CFFA8
:1031F00020B90137F8D33046BDE8F087D8F8000091
:103200000026466228465146FDF74EFF0128F2D1BE
:10321000D8F800000134466A05D228465146FDF729
:1032200043FF0128F4D0304600F038FA4CF29C42BB
:1032300046F67203CBF22002C3F6A17300F042FA05
:103240000023C3F6E073002200F03CFA00F0AEF970
:1032500006463046BDE8F087B0B540F60005C4F23A
:1032600001050446284602212A460123FFF790FF64
:1032700020600A20FDF7B6FD284608212A460423CF
:10328000FFF786FF60600A20FDF7ACFD284620218D
:103290002A461023FFF77CFFA0600A20FDF7A2FD5D
:1032A000B0BD0000FEE7000090B0FDF71DFF002458
:1032B0000120CDE90B44CDE9094406900A904FF472
:1032C000E0104FF4803102250F9006A8CDE90714D5
:1032D000CDE90D51FEF7B6F820B1EFF3108072B6CC
:1032E000FEE700BF0F20CDE900054FF48060CDE977
:1032F0000304684602210294FDF79EFF20B1EFF31C
:10330000108072B6FEE700BF002741F21804CDE935
:103310000877CDE90677C4F20204206840F6000879
:1033200040F0200020602068C4F2010800F0200076
:103330000090009820682A2140F004002060206856
:10334000002200F004000090009820684FF02A0A44
:1033500040F008002060206800F00800009000980D
:103360004046FDF7A7FE08F580652846F0210022BB
:103370004FF0F009FDF79EFE152006AECDE90607D9
:10338000404631460897FDF787FDCDF818A04FF06D
:10339000010A4FF0020B40463146CDE907A7CDF8B0
:1033A00024B0FDF779FD40F6034006900020C1F2FD
:1033B0002100CDE9070A28463146FDF76DFD284674
:1033C0003146CDE9069ACDE9087BFDF765FD06207B
:1033D00001210022FDF7F4FE0620FDF7DFFE0720A5
:1033E00001210022FDF7ECFE0720FDF7D7FE282083
:1033F00001210022FDF7E4FE2820FDF7CFFE54F85E
:10340000040C002140F0010044F8040C54F8040CB2
:10341000002200F00100069006980E20FDF7D0FE75
:103420000E20FDF7BBFE0F2000210022FDF7C8FE95
:103430000F20FDF7B3FE40F25410A8F58231C2F21E
:1034400000006323CDE90077CDE90B77CDE909775B
:10345000472280E88600C0E903378761FEF70EFD4A
:1034600020B1EFF3108072B6FEE700BF40F25410B7
:10347000C2F200006946FEF7FBF928B1EFF31080B5
:1034800072B600BFFEE700BF602006900020CDE9C5
:1034900007000A9040F25410C2F2000006A9002270
:1034A000FEF7EAFB20B1EFF3108072B6FEE700BF33
:1034B00040F25410C2F2000006A90422FEF7DCFB21
:1034C00020B1EFF3108072B6FEE700BF40F2541057
:1034D000C2F20000FEF7A4FB40F20C100021C2F281
:1034E00000004FF0804247234FF6FF770991CDE966
:1034F0000711CDE90011C0E90023C0E902170161FD
:103500008161FEF7F5F928B1EFF3108072B600BFC4
:10351000FEE700BF4FF48050069040F20C10C2F25C
:10352000000006A9FEF7ACFA20B1EFF3108072B6E6
:10353000FEE700BF40F20C10C2F200006946FEF741
:1035400097F928B1EFF3108072B600BFFEE700BF15
:1035500040F29C1008F54051C2F2000000230C27F5
:103560004FF4E13280E80E00C0E90333C0E905738F
:10357000C361FFF763F928B1EFF3108072B600BFA3
:10358000FEE700BFFFF7CCFAFFF752FAFFF7FAFDAC
:103590006C4600BF2046FFF75FFE00980199029A33
:1035A000089207910690FFF711FBF3E721F0004224
:1035B00001F00043A2F16052B2F5801F28BFD2F1A2
:1035C0007F6C0BD95FEA001C43EAC20242EB5070E9
:1035D00018BF704728BF20F001007047B2F5801F68
:1035E000BCBF184670474FEA410C1CF5001F02D2C1
:1035F000084600F03EBC70B500F00EF900000089EE
:10360000FFF7F6BF4FF00040A0F5800070470000C4
:103610004FEA41034FEA5353A3F58063D3F11E03EE
:10362000C8BFD3F1210C0CDD4FF0004242EAC122A9
:1036300042EA505232FA03FC8CEAE17CACEBE170D6
:103640007047102BC4BF0020704703F5787CBCF195
:10365000FF3F04D06FF0004282EA2100704770B54E
:1036600000F0DAF84992248000207047F2E710F069
:10367000004248BF4042B0FA80F310FA03F10AD08A
:10368000C3F11D0303F5806302EB03524FEA41507F
:1036900002EBD12170474FF000007047B0FA80F381
:1036A00010FA03F10AD0C3F11D0303F580634FEA5A
:1036B00003524FEA415002EBD12170474FF0000016
:1036C0007047000070B5DFF848C11CEA111E1EBF2C
:1036D0001CEA13159EEA0C0F95EA0C0F00F06F80A0
:1036E00081EA03044EEAD47EAE4421EA4C1123EA77
:1036F0004C1341F4801143F48013AEF17F7EA1FBA3
:10370000024CA0FB0365361955EB0C05A1FB034CDD
:103710004CF10003A0FB021C16EB0C06654153F1B3
:103720000003094218BF46F0010613F4007F0BD1D5
:103730004FEA03314FEA053041EA155140EA16508D
:1037400034036FF003020AE04FEAC3214FEAC520B9
:1037500041EA555140EA5650F4026FF0020202EB82
:103760002E4201EB025585EACE710AD05FEA440C85
:1037700018BF24F0004450F1000041F1000120EA9C
:10378000D47040F2FE7C624500D270BDA84214BFE6
:103790004FF080444FF04044002E08BF0024BEF19B
:1037A000806FA8BFA1F1C041BDE8704080F2828067
:1037B00001F1C04101F000414FF0000070470CEAF8
:1037C00013159EEA0C0F18BF95EA0C0F06D081EA7C
:1037D000030E4FF000000EF0004170BD00F01CF829
:1037E0008900013E00F007B800F009B84FEA430C29
:1037F0005FEA5C5C08D081EA030100F05BB84FEA45
:10380000410C5FEA5C5CF6D102494FF00000704762
:103810000000FF070000F87F0EF1020E2EF0030EED
:103820005EF8046B364205D4012A43EB030515F517
:10383000001F12D8012841EB010C1CF5001F0CD809
:103840000ED14FEAD17C0CEB4C0C0CF1020C15F5AF
:10385000001F08BF4CEBD37C04E04FF0080C01E0E4
:103860004FEAD37C0CEB4C0526FA05F606F007066A
:10387000B6F1040C06D20EEB860CBDE870404CF09D
:10388000010C6047DFE80CF0090B02024FF0004129
:10389000A1F500214FF0000070BD19461046012827
:1038A00051EB010418BFD4F5001484BF002001F0CF
:1038B000004170BD0808A0F500114FEA31017047C2
:1038C00090EA010F48BF81F0004100F1DE82421A08
:1038D0003CBF801A89184FEAD052A2EBD1534FF067
:1038E0007F4C1CEA410F18BF9CEA026F00F03B803E
:1038F0004FF0004C4CEA00204CEA012121FA03FC75
:1039000010EB0C0C1ED202F1FF325FEA1C2040EBE0
:10391000C25038BF70471CF07F0F4FEA400C18BFF1
:10392000BCF17F4F38BF7047C3F12003994008BFF7
:1039300020F00100BCF17F4F38BF7047A0F1C040BC
:1039400000F097BA4FEA3C00000A40EBC25028BF93
:103950001CF0FF0F4FEA400CE6D018BFBCF17F4FC0
:1039600038BF7047EAE79CEA026F05D010EA5C0FA7
:1039700008BF00F00040704710B500F034FA00BFF7
:1039800064FBBE3E10B500F0F5F80CBF012000202E
:1039900010BD10B500F0EEF814BF0120002010BDDE
:1039A00010B500F037F98CBF0120002010BD10B514
:1039B00000F030F92CBF0120002010BD10B500F040
:1039C0005DF994BF0120002010BD10B500F056F93C
:1039D00034BF0120002010BD401058BFC0F140404E
:1039E000491058BFC1F140418142EFF30080704758
:1039F0004FF47F0C1CEAD0121EBF1CEAD11392EACE
:103A00000C0F93EA0C0F00F0858090EA010F48BF7D
:103A100042F4807240F4000C41F400002CF07F412D
:103A200020F07F4000B5A2EB030281420FF2081C98
:103A3000ACEB504E9EF800E0C0F100004FEA4E0E95
:103A400000FB0EFC38BF49004FEA2C1C0CFB0EF3A8
:103A50004FEACE1E0EEB635E4FEA112C0EFB0CFC00
:103A60004FEAC1214FEA1C5300FB031102F5FA0291
:103A70004FEA112C0EFB0CFC4FEA01314FEADC4CF3
:103A800000FB0C1142EB2242C14228BF09184CEB4B
:103A900003335DF804EB10EB410143EBC250B2F588
:103AA0007C0F38BF704729D512F0F00F1CBF00F112
:103AB000C04000F000407047008182838485868783
:103AC00088898B8C8D8E8F919293959697999A9CDD
:103AD0009D9FA0A2A3A5A7A8AAACAEB0B2B3B5B74C
:103AE000B9BCBEC0C2C5C7C9CCCED1D4D7D9DCDF22
:103AF000E2E6E9ECF0F3F7FAFE0000004FEA400CD2
:103B00000CF1807CBCF17E4F28BF7047B0F1C04003
:103B100000F0AFB90CEAD11390EA010F48BF42F4AC
:103B20008072624538BF634507D213F47F0F16D009
:103B300080EA010000F00040704710B500F053F932
:103B4000097EFC3E00F005B880EA010000F000406C
:103B5000704780EA010000F0004000F08AB912F4DA
:103B60007F0F04BF0248704780EA010000F081B96E
:103B70000000C07F50EA010C00F113801CF5000F1B
:103B800058BFBCF5000F01D48842704707D710F525
:103B9000000F58BF11F5000F15D4884270478942B5
:103BA00070471CF5000F04D5BCF5000FF7D5814216
:103BB00070474FF0807C1CEB400F38BF1CEB410F6F
:103BC00001D28142704710B500F00DF992244900EE
:103BD0004FF000504FF08051FFF7FEBE41000B0E3A
:103BE000D3F19E0208D950F400034FEA032323FACD
:103BF00002F048BF4042704710B500F0F4F800BF33
:103C000049922480002070476FF0004282EA200031
:103C10007047000050EA010C00F113801CF5000F02
:103C200058BFBCF5000F01D48842704707D710F584
:103C3000000F58BF11F5000F15D488427047894214
:103C400070471CF5000F04D5BCF5000FF7D5814275
:103C500070474FF0807C1CEB400F38BF1CEB410FCE
:103C600001D28142704710B500F0BDF8922449009E
:103C70004FF080504FF00051FFF7AEBE50EA010CFC
:103C800000F113801CF5000F58BFBCF5000F01D4E4
:103C90008842704707D710F5000F58BF11F5000F85
:103CA00015D488427047894270471CF5000F04D52F
:103CB000BCF5000FF7D5814270474FF0807C1CEBBC
:103CC000400F38BF1CEB410F01D28142704710B545
:103CD00000F089F8922449004FF000504FF08051D5
:103CE000FFF77ABE4FF47F0C1CEAD0121EBF1CEA0D
:103CF000D11392EA0C0F93EA0C0F00F0478090EA80
:103D0000010F48BF42F480724FF0004C4CEA002093
:103D10004CEA012102EB0302A0FB0113A2F5000211
:103D2000002918BF43F001035B0028BF4FEA3303AB
:103D300042EB22425FEA132C4CEBC2502EBFBCEB8D
:103D4000436FB2F57C0F70474FEA036CBCF1004F34
:103D500008BF20F00100B2F57C0F38BF70470BD5CB
:103D600082F0FF0212F5803FC8BF704700F1C040EB
:103D7000D8BF00F00040704700F5000C5FEA4C0C23
:103D800048BF7047B0F1C04000F073B80CEAD113DF
:103D900090EA010F48BF42F48072624538BF634524
:103DA00004D280EA010000F00040704710B500F036
:103DB0001AF800BF8900013E00F007B800F009B80A
:103DC0005FEA410C5FEA1C6C08D080EA010000F059
:103DD00050B85FEA400C5FEA1C6CF6D14FF000402F
:103DE000A0F5800070470EF1020E2EF0030E5EF873
:103DF000044B244204D44FEA4102B2F17F4F11D860
:103E00004FEA4003B3F17F4F0CD80ED14FEAD07C7C
:103E10000CEB4C0C0CF1020CB2F17F4F08BF4CEBD9
:103E2000D17C04E04FF0080C01E04FEAD17C0CEBB0
:103E30004C0324FA03F404F00704B4F1040C06D292
:103E40000EEB840CBDE810404CF0010C6047DFE83D
:103E50000CF0070802024FF00040A0F5800010BDF2
:103E60000846420018BFD2F1807288BF00F00040BF
:103E700010BDFF2141EAD050C005704790EA010F04
:103E800048BF81F000413FF522AD421A04D882F0CC
:103E90000042A0EB020011444FEAD052A2EBD153F2
:103EA0004FF07F4C1CEA410F18BF9CEA026F4AD0CA
:103EB0004FF0004C4CEA00204CEA012121FA03FCAF
:103EC000B0EB0C0C0FD412F0FE0F36D05FEA4C00B2
:103ED0001DD5001240EBC25038BF70471CF03F0F99
:103EE00018BF70470BE05FEA1C20A2F1010240EB13
:103EF000C25038BF70471CF07F0F18BF7047C3F126
:103F00002003994014BF401E20F0010070474FEA83
:103F10001223800808BF7047B0FA80FCA2EB0C02A5
:103F2000CCF1280C60FA0CF093EA122F04BF00EBDE
:103F3000C25070474FEAC3707047130A5FEADC1043
:103F400008BF7047F6E79CEA026F04D010EA5C0FE6
:103F500008BF0020704710B5FFF745FF40DFF63E71
:103F600081F00040704700000000000000000102E6
:103F7000030406070809000000000102030401020F
:103F800002030405060708090A0B0C0D0E0F10109A
:103F9000B03F0008000000201000000050010008A1
:103FA000C03F000810000020D80900007001000880
:103FB000010000001000000000127A000000000064
:04000005080000ED02
:00000001FF
