:020000040800F2
:1000000018070020B5010008251800088D16000803
:100010007D170008710200087D1A0008000000002A
:10002000000000000000000000000000511900085E
:100030007502000800000000291800085519000882
:10004000CF010008CF010008CF010008CF01000850
:10005000CF010008CF0100087902000899020008CA
:10006000CF010008CF010008CF010008CF01000830
:10007000CF010008CF010008CF010008CF01000820
:10008000CF010008CF010008CF010008CF01000810
:10009000CF010008CF010008CF010008CF01000800
:1000A000CF010008CF010008CF010008CF010008F0
:1000B000CF010008CF010008CF010008CF010008E0
:1000C000CF010008CF010008CF010008CF010008D0
:1000D000CF010008CF010008CF010008CF010008C0
:1000E00081020008CF010008CF01000800F002F8EB
:1000F00000F050F814A696E8000CB244B344DA4578
:1001000001D100F047F8BAE80F000FA696E83000DA
:10011000A5EB040504EB0607AAEB0704A7F101070A
:100120004FEA15154FEA3414A4F10104AC4201D38F
:1001300000F030F813F0010F18BFFB1A43F0010371
:1001400000F001F8DBE71847A0200000C020000005
:10015000103A24BF78C878C1FAD8520724BF30C8F3
:1001600030C144BF04680C60704700007047000055
:100170000023002400250026103A28BF78C1FBD8B0
:10018000520728BF30C148BF0B6070471FB51FBD65
:1001900010B510BD00F031F81146FFF7F7FF01F080
:1001A0006FFC00F04FF803B4FFF7F2FF03BC00F060
:1001B00057F800000948804709480047FEE7FEE776
:1001C000FEE7FEE7FEE7FEE7FEE7FEE7FEE7FEE707
:1001D00004480549054A064B7047000059190008B4
:1001E000ED00000818010020180700201803002067
:1001F00018030020704770477047754600F02CF8D0
:10020000AE4605006946534620F00700854618B003
:1002100020B5FFF7DDFFBDE820404FF000064FF0AE
:1002200000074FF000084FF0000BAC46ACE8C009E7
:10023000ACE8C009ACE8C009ACE8C00921F007018E
:100240008D46704710B50446AFF300802046BDE8E8
:100250001040FFF7A8BF00000048704710000020C2
:1002600001491820ABBEFEE72600020070470000DF
:10027000FEE7000070470000012000F02DB90000EB
:1002800080B54FF4806000F027F94FF40060BDE8BE
:10029000804000F021B90000022000F01DB90000EC
:1002A0002DE9F04F81B04CF6CD46C3F6CC560F4643
:1002B000DDF828A031469846144681466FF0630B5E
:1002C00001F072FE4CF20005002838463146C4F2B7
:1002D000794508BFA94601F067FE0028204631464F
:1002E00008BF2F4601F060FE00210028C4F2A021C3
:1002F000384618BF254601F065FEB8B90021C4F2A2
:10030000A021484601F05EFE80B90021C4F2A02180
:10031000284601F057FE48B95520A8F800000BF117
:100320000F0BAAF800B001B0BDE8F08F0021C4F2B5
:10033000A021384601F038FE90B10021C4F2A0217E
:10034000484601F031FE0BF11E04F8B90021C4F259
:10035000A021284601F028FEC0B1552057E000BF7B
:100360000021C4F2A011384601F02CFE00BB484623
:10037000394601F020FE88BB0021C4F2A021484686
:1003800001F027FE50B35A203C2440E00021C4F283
:10039000A021284601F008FE70B90021C4F2A02176
:1003A000484601F001FE38B1204655242FE000BF39
:1003B000552455202BE000BF0021C4F2A02148465F
:1003C00001F0F2FD38BB0021C4F2A021284601F063
:1003D000EBFD00BB4624462019E000BF2846394605
:1003E00001F0F7FD002104460028C4F2A0212846B0
:1003F00018BF012401F0EDFD002818BF01202040A6
:100400004FF055004FF055041CBF5A243C20A8F86B
:100410000040AAF80000B8F9000064280EDD64204E
:10042000A8F80000BAF90000642811DC5845B8BFEC
:10043000AAF800B001B0BDE8F08F00BF58456FF0DA
:100440006300B8BFA8F80000BAF900006428EDDD29
:100450004FF0640BAAF800B001B0BDE8F08F0000C7
:10046000B0B5044600F058F9054640F20000C2F26B
:1004700000000078611C18BF044400BF00F04CF974
:10048000401BA042FAD3B0BD10B5044600F044F9B9
:1004900040F27001C2F200018A68821A0A2A1AD355
:1004A000B4F5806F886007DA012C0DD0022C18BFDC
:1004B00010BD02220BE000BFB4F5806F06D0B4F58A
:1004C000006F08D1042202E0012200E003224A70FA
:1004D00001220A70486010BD40F21441C4F20101CB
:1004E0000A68024214BF08607047FFF7CDBF0000E2
:1004F0002DE9F04F82B00E68002E00F0FD8041F231
:100500000042C4F20102042340F2004E904208BFB0
:1005100003234FF6FF7CC4F2010E00930024012355
:10052000C1F2100C4FF0000A4FF000094BE000BF81
:1005300041F20002C4F20102009F904208BF02276C
:1005400004F00C030F229A402BEA020207FA03F38D
:100550004FEA9A051A4346F825204E6840F20C45AA
:10056000F202DEF8082054BF22EA080242EA08023A
:10057000C4F20105CEF808202A68B30254BF22EA6B
:10058000080242EA08022A60B303DEF8042054BFDE
:1005900022EA080242EA0802F303CEF80420DEF859
:1005A00000204FF0010354BF22EA080242EA080289
:1005B000CEF800200E680AF1010A36FA0AF204F1B8
:1005C000040400F0998003FA0AFB16EA0B08F1D044
:1005D0004E68664512DC122E56D8DFE806F0350B61
:1005E0004D495555555555555555555555555545DF
:1005F000510000BFD1F80C9046E000BF4FF6FF72EB
:10060000C1F2210296420FDC0022C1F21102964291
:100610001AD00022C1F21202964215D00022C1F275
:100620002102964210D02FE00022C1F2220296420F
:100630000AD00022C1F23102964205D00022C1F256
:100640003202964220D100BF8A684AB1012A14BF03
:10065000C0F814B0C0F810B04FF0080914E000BFA3
:100660004FF0040910E000BFCA6802F104090BE072
:100670004FF0000908E000BFCA6802F1080903E072
:10068000CA6802F10C0900BF02462646B8F5807F11
:1006900024BF0432203E17680F25B54027EA050520
:1006A00009FA06F635431560CA79D2067FF582AF9E
:1006B00041F21803C4F202031A68AEF57E7642F0E6
:1006C00001021A601A6802F001020192019A2AF0EE
:1006D000030256F802B040F60002C4F20102904252
:1006E00008D040F60042C4F2010290427FF420AFED
:1006F000012725E7002723E702B0BDE8F08F0000BF
:100700008068084018BF012070470000002A08BF19
:10071000090401617047000040F21410C2F20000A9
:100720000068704740F2000040F21411C2F200006D
:10073000C2F2000100780A681044086070470000A7
:1007400080B542F20000C4F20200016841F01001DD
:100750000160032000F08CF80F2000F005F800F095
:1007600027F8002080BD000070B540F20006C2F2FC
:10077000000640F208013278C2F200014FF47A73A9
:100780000968B3FBF2F20446B1FBF2F1084600F04F
:100790005DFB0F2C4FF0010508D838B94FF0FF3042
:1007A00021460022002500F037F87460284670BD0D
:1007B00082B041F21800C4F202000168022241F046
:1007C00001010160016801F0010101910199416895
:1007D00041F080514160406800F0805000900098E6
:1007E0000420C4F20100016862F31A61016002B0E2
:1007F00070470000002848BF704700F01F01012229
:1008000002FA01F11C2202EAD0004EF20012CEF2EE
:10081000000281507047000010B54EF60C5CCEF21D
:10082000000CDCF80030C3F3022E8EF00704042C19
:1008300028BF0424BEF103034FF0FF3E0EFA04F478
:1008400038BF0023A14399400EFA03F39A431143A2
:1008500000F00F0200F160430901043A03F564431C
:100860006244002848BF02F10C03197010BD00005B
:100870004EF60C51CEF200010A684FF6FF031A4003
:1008800060F30A2242F0806040F0FD70086070471B
:10089000002804BF012070472DE9F04381B042F2E7
:1008A0000008C4F202080446D8F800000D4600F023
:1008B000070081420CD9D8F8000020F00700284337
:1008C000C8F80000D8F8000000F00700A8426CD17A
:1008D000206841F204098107C4F2020917D54107D3
:1008E00005D5D9F8001041F4E061C9F800100107FE
:1008F00005D5D9F8001041F46051C9F80010D9F8B5
:100900000010A26821F0F0011143C9F80010C007DF
:1009100042D1D8F8000000F0070085420CD2D8F888
:10092000000020F007002843C8F80000D8F80000B5
:1009300000F00700A84238D12068410707D5D9F850
:100940000010E26821F4E0611143C9F800100007CB
:1009500008D5D9F80000216920F4605040EAC100B0
:10096000C9F80000D9F8002002F00C00082841F274
:100970000020C0F27A004DD142F2D813C2F3834175
:10098000C0F60003595CD20338D440F60010C0F220
:100990003D0048433EE000BF606859F8041C02284F
:1009A00008D0012826D1890306D4012001B0BDE872
:1009B000F08300BF8901F8D5D9F8001021F00301B8
:1009C0000843C9F80000FFF7A7FE064641F2883742
:1009D000D9F80000616800F00C00B0EB810F98D0EE
:1009E000FFF79AFE801BB842F2D9032001B0BDE8A0
:1009F000F08300BF8907D8D5DEE700BFD9F8002013
:100A000042F2D613C2F34042C0F600039A5C484358
:100A1000B0FBF2F0D9F8001042F2C612C1F3031194
:100A2000C0F60002515C40F2080220FA01F140F2E7
:100A30000400C2F200000068C2F200021160FFF779
:100A400093FE002001B0BDE8F0830000002804BF41
:100A5000012070472DE9F04182B00446007841F250
:100A60000006C007C4F202060CD0706800F00C004B
:100A7000042840F081803068800303D56068002836
:100A800000F04681207880071BD5706810F00C0FAD
:100A900009D0706800F00C00082840F0878070686A
:100AA000C00300F183803068800703D520690128E6
:100AB00040F02E813068616920F0F80040EAC10002
:100AC00030602078000713D4207840072CD4E569E3
:100AD000002D00F01881706800F00C00082840F02C
:100AE000A780012D40F00481012002B0BDE8F08113
:100AF000A069002800F084800020C4F24220012177
:100B0000C0F88014FFF708FE054600BF706A800732
:100B100000F1B280FFF700FE401B0228F6D9032047
:100B200002B0BDE8F08100BFF0695FEAC00808D4F8
:100B3000F06940F08050F061F06900F08050009062
:100B4000009847F20007C4F200073868C00549D48E
:100B5000386840F480703860FFF7DEFD054600BF5E
:100B60003868C0053ED4FFF7D7FD401B6428F7D98D
:100B7000032002B0BDE8F081706800F00C00082886
:100B800003D17068C0033FF576AF61683068002913
:100B900000F00C81B1F5A02F00F00081B1F5803F8D
:100BA00040F01A8140F480301CE100BF2069002829
:100BB00040F20000C4F2422000F088800121016070
:100BC000FFF7AAFD054600BF306880073FF572AF0A
:100BD000FFF7A2FD401B0228F6D9032002B0BDE8B2
:100BE000F08100BFE168306A002900F09D8005298E
:100BF00000F09280012940F0AF8040F00100B1E0A8
:100C00000020C4F242200021C0F88014FFF784FDC8
:100C1000054600BF706A80077FF556AFFFF77CFD81
:100C2000401B0228F6D9032002B0BDE8F08100BFC6
:100C30000027C4F2422700203866FFF76DFD022D21
:100C400005460DD13068800140F1DE80FFF764FD7C
:100C5000401B02284FF00300F4D902B0BDE8F08138
:100C6000306880014FD5FFF757FD401B02284FF039
:100C70000300F5D9F1E700BF40F20800C2F200001E
:100C8000006844F6D351C1F26201A0FB0101480A99
:100C9000019000BF00BF0198411E002801913FF460
:100CA00013AF00BF0198411E002801913FF40CAF23
:100CB00000BF0198411E002801913FF405AF00BF1D
:100CC0000198411E00280191E4D1FDE60021016058
:100CD000FFF722FD054600BF306880077FF5F1AEC3
:100CE000FFF71AFD401B02284FF00300F4D9B4E7C8
:100CF0007068216A00F480328A4209D1616A00F486
:100D00007010884204D1002002B0BDE8F08100BF1D
:100D1000012002B0BDE8F08140F004003062306A8A
:100D200040F001001EE000BF20F001003062306A98
:100D300020F004003062FFF7EFFC054641F28837EF
:100D4000306A800720D5FFF7E7FC401BB8424FF020
:100D50000300F5D981E700BF20F001003062306A5E
:100D600020F004003062FFF7D7FC054641F28837D7
:100D7000306A800708D4FFF7CFFC401BB842F7D990
:100D8000032002B0BDE8F081B8F1000F3FF59FAE3F
:100D9000F06920F08050F06199E600BF40F48020B7
:100DA0003060306840F480301CE000BF20F48030B8
:100DB0003060306820F480203060FFF7ADFC0546DD
:100DC000306880037FF55EAEFFF7A6FC401B642809
:100DD0004FF00300F4D940E720F4803030603068F1
:100DE00020F480203060FFF797FC054630688003D0
:100DF0003FF548AEFFF790FC401B6428F6D903206E
:100E000002B0BDE8F08100BF206AB0F5803F05D197
:100E10007168A26821F40031114371607168626ADF
:100E200021F4741111430843706001203866FFF704
:100E300073FC0446306880013FF565AFFFF76CFC3A
:100E4000001B02284FF00300F4D906E7411E0020E2
:100E5000B0EB116F1CBF012070474EF21002CEF2B2
:100E6000000251604EF62351CEF20001F0230B70C8
:100E7000072190601160704790F83C20012A4FF0E4
:100E8000020236D010B580F83D200268D2F804E0A6
:100E9000D2F808C00C682EF07003234340F2FF74B0
:100EA000C4F20004A24253600ADCB2F1804F13D0B6
:100EB00040F20043C4F200039A420DD011E000BF9B
:100EC00042F60043C4F201039A4205D040F6000303
:100ED000C4F200039A4204D149682CF080031943FC
:100EE00091600121002280F83D1080F83C20BDE88F
:100EF0001040104670470000002804BF01207047D2
:100F000010B590F83D1031B9002180F83C1004462E
:100F100000F070F82046022180F83D10016840F290
:100F2000FF740B68C4F2000442F6004CA142C4F204
:100F3000010C15DCB1F1804F1AD040F20042C4F22E
:100F40000002914214D0A14218DCB1F1804F1DD0B3
:100F500040F20042C4F20002914217D01AE000BFF2
:100F6000614505D040F60002C4F200029142EAD188
:100F7000826823F070031343A142E6DD614505D08A
:100F800040F60002C4F20002914203D1026923F448
:100F900040731343846923F08002D0F804E0C368EF
:100FA000224361450A60CB62C1F828E002D1426960
:100FB000CCF8302001224A610B69DB0703D00B69B2
:100FC00023F001030B6180F8462080F83E2080F872
:100FD0003F2080F8402080F8412080F8422080F8AF
:100FE000432080F8442080F8452080F83D200020F0
:100FF00010BD00000068B0F1804F18BF704781B08D
:1010000041F21C00C4F20200016841F001010160DC
:10101000006800F001000090009801B070470000E7
:1010200090F83D1001291CBF01207047022180F873
:101030003D10006840F2FF71C4F20001884209DCF3
:10104000B0F1804F12D040F20041C4F2000188425A
:101050000CD012E042F60041C4F20101884205D0F2
:1010600040F60001C4F20001884206D1816801F017
:101070000701062904BF00207047016841F0010103
:10108000016000207047000090F83C20012A4FF0DA
:1010900002026CD080B580F83D20D0F800C04FF639
:1010A0007772DCF8083023EA0202CCF808200B68DB
:1010B0004F2B29DC1F2B45DD202B46D0302B44D075
:1010C000402B40F0AF80D1F804E0C968DCF8203054
:1010D000DCF8202022F00102CCF82020DCF81820D7
:1010E00022F0F00242EA011123F00A0242EA0E0263
:1010F000CCF81810CCF82020DCF8081041F047019B
:1011000021F0300128E000BF6F2B33DDB3F5005F25
:1011100074D0B3F5805F21D0702B40F08380D1E98B
:1011200001E3C968DCF8082043EA0E0322F47F4299
:1011300043EA01211143CCF80810DCF8081041F013
:10114000770109E00BB1102B6CD1DCF8081021F00D
:101150007001194341F00701CCF808100022012169
:1011600080F83D10002180F83C10BDE8804010461A
:10117000704700BF502B21D0602B53D1D1F804E031
:10118000C968DCF82030DCF8202022F01002CCF80E
:101190002020DCF8182022F4704242EA013123F0CA
:1011A000A00242EA0E12CCF81810CCF82020DCF88D
:1011B000081041F0670121F01001CDE7D1F804E0FB
:1011C000C968DCF82030DCF8202022F00102CCF8DD
:1011D0002020DCF8182022F0F00242EA011123F06E
:1011E0000A0242EA0E02CCF81810CCF82020DCF8F3
:1011F000081041F0570121F02001ADE7D1E901E3EA
:10120000C968DCF8082043EA0E0322F47F4243EA6F
:1012100001211143CCF80810DCF8081041F480419A
:101220009AE700BF01229AE780B586B0016840F2D4
:101230000040C4F2000081424FF00001CDE90411EA
:10124000CDE9021102D006B080BD00BF41F2180105
:10125000C4F202010A6800F5823042F004020A601A
:10126000096801F0040101910199C0210291022154
:101270000391059102A9FFF73BF906B080BD00007C
:1012800090F83C30012B04BF022070474FEAB202B5
:10129000032A00F2F1802DE9F043DFE802F003A514
:1012A0003B7500BF036842F600461D6A1A6AC4F225
:1012B000010622F001021A621A465C6852F818CF41
:1012C000B3428E68D1F800E025F0020545EA060534
:1012D0000CD1CE68D1E9057824F4407425F00C05D2
:1012E00026F004063C43354344EA08042CF0730717
:1012F00047EA0E075C609F614F6809695F631D6282
:101300009F6947F008079F619F6927F004079F6165
:10131000A6E000BF036842F600461D6A1A6AC4F2DE
:10132000010622F480721A621A46D3F804C052F8F9
:101330001CEFB3428E680C6825F4007545EA06255B
:101340000FD1CE68D1E90598360240F2FF4725F467
:101350004065BE4335432CF4405748EA090647EA46
:10136000061C2EF073072743C3F804C0DF614F68E3
:101370000969DF631D62DF6947F00807DF61DF6924
:1013800027F00407DF616BE0036842F60047D3F8FB
:1013900020C01A6AC4F2010722F480521A621A4667
:1013A0005C6852F81C5FD1F800E08E68BB4204D143
:1013B0004F6924F4804444EA87142CF4005747EA28
:1013C000063725F4E64646EA0E265C60DE614E6886
:1013D00009691E641F62DF6947F40067DF61DF6926
:1013E00027F48067DF613AE0036842F600461D6A31
:1013F0001A6AC4F2010622F010021A621A46D3F8E1
:1014000004C052F8184FB3428E68D1F800E025F0BE
:10141000200545EA06150FD1CE68D1E905986FF091
:10142000400725F0C00507EA061635432CF440674F
:1014300048EA090647EA860C24F4E64444EA0E2703
:10144000C3F804C09F614F6809699F631D629F696B
:1014500047F400679F619F6927F480679F610902D5
:101460001368194311600021BDE8F043002280F8A1
:101470003C200846704700BF0121002280F83C2034
:1014800008467047002804BF0120704710B590F847
:101490003D1031B9002180F83C10044600F070F88E
:1014A0002046022180F83D10016840F2FF740B686D
:1014B000C4F2000442F6004CA142C4F2010C15DC57
:1014C000B1F1804F1AD040F20042C4F200029142C2
:1014D00014D0A14218DCB1F1804F1DD040F200427F
:1014E000C4F20002914217D01AE000BF614505D056
:1014F00040F60002C4F200029142EAD1826823F071
:1015000070031343A142E6DD614505D040F60002B9
:10151000C4F20002914203D1026923F440731343E1
:10152000846923F08002D0F804E0C3682243614557
:101530000A60CB62C1F828E002D14269CCF83020C1
:1015400001224A610B69DB0703D00B6923F0010319
:101550000B6180F8462080F83E2080F83F2080F81C
:10156000402080F8412080F8422080F8432080F815
:10157000442080F8452080F83D20002010BD000068
:10158000006840F20041C4F20001884218BF704771
:1015900081B041F21C00C4F20200016841F0020176
:1015A0000160006800F002000090009801B07047F0
:1015B000C1B1042908D0082914BF41224022825C0D
:1015C000012A05D016E000BF3F22825C012A11D11A
:1015D0000222082910D0042914BF80F8412080F885
:1015E0003F200BE090F83E20012A03D1022280F830
:1015F0003E2003E00120704780F84020006801F0A1
:101600001F010122036A8A4023EA02010162036A80
:1016100042F64441C4F201011A43A1F14403984245
:1016200002620FD040F2FF71C4F20001884213DC65
:10163000B0F1804F1CD040F20041C4F2000188425A
:1016400016D01CE00A6842F400420A6040F2FF71C2
:10165000C4F200018842EBDD42F60041C4F2010110
:10166000884205D040F60001C4F20001884206D14C
:10167000816801F00701062904BF00207047016856
:1016800041F001010160002070470000FEE700000A
:1016900080B586B00020CDE90400CDE9020041F21A
:1016A0001800C4F20200016841F0080101600068FE
:1016B00002A900F008000190019840F60340029052
:1016C0000020C1F221000390012004900220059027
:1016D00040F60040C4F20100FEF70AFF0620012197
:1016E0000022FFF799F80620FFF784F80720012170
:1016F0000022FFF791F80720FFF77CF8282001214E
:101700000022FFF789F82820FFF774F806B080BDA3
:10171000F0B581B040F60044C4F201042046012136
:10172000FEF7EEFFB0FA80F0450920460221FEF7F1
:10173000E7FFB0FA80F0460920464FF48061FEF7DB
:10174000DFFFB0FA80F0470920464FF40061FEF752
:10175000D7FFB0FA80F071194009394401440329D8
:1017600003D30027002600250020000640EA07409A
:1017700040EA0620284401B0F0BD0000FEE700006A
:10178000B0B540F2CC04C2F200042046002100258E
:10179000FFF70EFF20460421FFF70AFF206845638C
:1017A0008563B0BD2DE9F047002240F6004A87B2BC
:1017B000B0F1FF3FCCBF01224042C4F2010A0D4606
:1017C0001FFA81F8C6B2504610210024FEF79EFF92
:1017D000FA0B50462021FEF799FF40F2CC09C2F2E5
:1017E0000009D9F80000642E4FF0640728BF3E4678
:1017F0004663B5F1FF3FCCBF01246D425046402106
:101800002246EDB2FEF782FF4FEAD83250468021E1
:10181000FEF77CFFD9F80000642D38BF2F468763A0
:10182000BDE8F087FEE7000070470000B0B586B065
:10183000FEF772FF40F27001C2F200010A78FAB1BD
:1018400000220A7040F27C02C2F2000201211170F3
:1018500040F27101C2F20001097850605170013903
:10186000032957D8DFE801F00224392C6FF0540027
:101870006FF0540106B0BDE8B040FFF793BF00BF62
:1018800040F27C04C2F200042178022920D0012910
:101890002CD16168421A61781209182A42D8481E70
:1018A000032834D8DFE800F00204190CDEE700BF9B
:1018B0005520552106B0BDE8B040FFF773BF00BF0B
:1018C0006FF05400552106B0BDE8B040FFF76ABF85
:1018D0006168411A89084A292CD855206FF05401B3
:1018E00006B0BDE8B040FFF75DBF00BF03A800F041
:1018F0009FF803AA07CA02AD0DF10A030095FEF78F
:10190000CFFCBDF90A00BDF90810FFF74BFF06B088
:10191000B0BD00BF0020002106B0BDE8B040FFF719
:1019200041BF00BF013901290ED80221217060603A
:1019300006B0B0BD0546FFF7EBFE28B101202070D0
:10194000656006B0B0BD00BF0020207006B0B0BD1D
:1019500070470000FEF7E6BE7047000040F28400CA
:10196000C2F20000FFF75CBB2DE9F04715460122EB
:101970009A4689460646FEF7C9FE40F28408C2F23E
:101980000008D8F800000021416200BF416A09291F
:1019900008D8416A092905D8416A092902D8416A4B
:1019A0000A29F3D348F6CF24304649460022CFF621
:1019B000FF74FEF7ABFE0026CBF68076274600BF0D
:1019C00028465146FEF79CFE20B90137F8D3304631
:1019D000BDE8F087D8F80000002646622846514648
:1019E000FEF78EFE0128F2D1D8F800000134466AD5
:1019F00005D228465146FEF783FE0128F4D0304632
:101A000000F0B3F94CF29C4246F67203CBF220028E
:101A1000C3F6A17300F0BCF90023C3F6E073002203
:101A200000F0B6F900F070F906463046BDE8F087E0
:101A3000B0B540F60005C4F201050446284602216F
:101A40002A460123FFF790FF20600A20FEF708FDD9
:101A5000284608212A460423FFF786FF60600A20F3
:101A6000FEF7FEFC284620212A461023FFF77CFFC4
:101A7000A0600A20FEF7F4FCB0BD0000FEE7000005
:101A800090B0FEF75DFE00240120CDE90B44CDE9C6
:101A9000094406900A904FF4E0104FF4803102257B
:101AA0000F9006A8CDE90714CDE90D51FEF7CEFF42
:101AB00020B1EFF3108072B6FEE700BF0F20CDE932
:101AC00000054FF48060CDE90304684602210294CA
:101AD000FEF7DEFE20B1EFF3108072B6FEE700BF26
:101AE000002741F21800CDE90877CDE90677C4F266
:101AF0000200016840F6000A41F02001016001681F
:101B0000C4F2010A01F0200100910099016800224D
:101B100041F00401016001684FF02A0901F004015D
:101B200000910099016841F00801016000682A21D4
:101B300000F00800009000985046FEF7E7FD0AF517
:101B400080652846F02100224FF0F008FEF7DEFD08
:101B5000152006AECDE90607504631460897FEF738
:101B6000C7FCCDF8189001244FF0020950463146C9
:101B7000CDE90747CDF82490FEF7BAFC40F60340C4
:101B800006900020C1F22100CDE907042846314625
:101B9000FEF7AEFC28463146CDE90684CDE908794A
:101BA000FEF7A6FC062001210022FEF735FE0620E6
:101BB000FEF720FE072001210022FEF72DFE072060
:101BC000FEF718FE282001210022FEF725FE28201E
:101BD000FEF710FE40F2CC00AAF58231C2F20000FE
:101BE0006323CDE90077CDE90B77CDE9097747226B
:101BF00080E88600C0E903378761FFF743FC28B11E
:101C0000EFF3108072B600BFFEE700BF40F2CC00D9
:101C1000C2F200006946FFF72FF928B1EFF31080F8
:101C200072B600BFFEE700BF602006900020CDE93D
:101C300007000A9040F2CC00C2F2000006A9002280
:101C4000FFF71EFB20B1EFF3108072B6FEE700BF76
:101C500040F2CC00C2F2000006A90422FFF710FBFC
:101C600020B1EFF3108072B6FEE700BF40F2CC0067
:101C7000C2F20000FFF7D8FA40F284000021C2F25D
:101C800000004FF0804247234FF6FF770991CDE9DE
:101C90000711CDE90011C0E90023C0E90217016175
:101CA0008161FFF729F928B1EFF3108072B600BF08
:101CB000FEE700BF4FF48050069040F28400C2F26D
:101CC000000006A9FFF7E0F920B1EFF3108072B62B
:101CD000FEE700BF40F28400C2F200006946FFF751
:101CE000CBF828B1EFF3108072B600BFFEE700BF5B
:101CF000FFF746FDFFF7CCFCFFF730FEFFF796FD40
:101D00001420FEF7ADFBF9E721F0004201F000439B
:101D1000A2F16052B2F5801F28BFD2F17F6C0BD9BF
:101D20005FEA001C43EAC20242EB507018BF7047E2
:101D300028BF20F001007047B2F5801FBCBF1846D5
:101D400070474FEA410C1CF5001F02D2084600F014
:101D500035BA70B500F0C6F800000089FFF7F6BF8D
:101D60004FF00040A0F580007047B0FA80F310FA01
:101D700003F10AD0C3F11D0303F580634FEA035258
:101D80004FEA415002EBD12170474FF000007047FD
:101D900070B5DFF848C11CEA111E1EBF1CEA1315FE
:101DA0009EEA0C0F95EA0C0F00F06F8081EA0304A5
:101DB0004EEAD47EAE4421EA4C1123EA4C1341F49E
:101DC000801143F48013AEF17F7EA1FB024CA0FB97
:101DD0000365361955EB0C05A1FB034C4CF10003D0
:101DE000A0FB021C16EB0C06654153F100030942EF
:101DF00018BF46F0010613F4007F0BD14FEA033100
:101E00004FEA053041EA155140EA165034036FF0AD
:101E100003020AE04FEAC3214FEAC52041EA5551C7
:101E200040EA5650F4026FF0020202EB2E4201EB40
:101E3000025585EACE710AD05FEA440C18BF24F03F
:101E4000004450F1000041F1000120EAD47040F25A
:101E5000FE7C624500D270BDA84214BF4FF08044A2
:101E60004FF04044002E08BF0024BEF1806FA8BF91
:101E7000A1F1C041BDE8704080F2828001F1C04113
:101E800001F000414FF0000070470CEA13159EEA84
:101E90000C0F18BF95EA0C0F06D081EA030E4FF025
:101EA00000000EF0004170BD00F01CF88900013EFA
:101EB00000F007B800F009B84FEA430C5FEA5C5C39
:101EC00008D081EA030100F05BB84FEA410C5FEAF9
:101ED0005C5CF6D102494FF0000070470000FF073C
:101EE0000000F87F0EF1020E2EF0030E5EF8046B78
:101EF000364205D4012A43EB030515F5001F12D81D
:101F0000012841EB010C1CF5001F0CD80ED14FEA43
:101F1000D17C0CEB4C0C0CF1020C15F5001F08BF2A
:101F20004CEBD37C04E04FF0080C01E04FEAD37C8B
:101F30000CEB4C0526FA05F606F00706B6F1040C84
:101F400006D20EEB860CBDE870404CF0010C6047E9
:101F5000DFE80CF0090B02024FF00041A1F500216F
:101F60004FF0000070BD19461046012851EB0104E6
:101F700018BFD4F5001484BF002001F0004170BDEB
:101F80000808A0F500114FEA3101704710B500F0C4
:101F900033F80CBF0120002010BD10B500F02CF864
:101FA00014BF0120002010BD10B500F059F88CBFFF
:101FB0000120002010BD10B500F052F82CBF012008
:101FC000002010BD10B500F07FF894BF0120002064
:101FD00010BD10B500F078F834BF0120002010BD0E
:101FE000401058BFC0F14040491058BFC1F14041B6
:101FF0008142EFF30080704750EA010C00F113803A
:102000001CF5000F58BFBCF5000F01D48842704783
:1020100007D710F5000F58BF11F5000F15D48842EF
:102020007047894270471CF5000F04D5BCF5000FBE
:10203000F7D5814270474FF0807C1CEB400F38BFD2
:102040001CEB410F01D28142704710B500F070F8CF
:10205000922449004FF000504FF08051FFF7C0BF6D
:1020600050EA010C00F113801CF5000F58BFBCF5BD
:10207000000F01D48842704707D710F5000F58BFF2
:1020800011F5000F15D488427047894270471CF53E
:10209000000F04D5BCF5000FF7D5814270474FF013
:1020A000807C1CEB400F38BF1CEB410F01D28142FA
:1020B000704710B500F03CF8922449004FF0805072
:1020C0004FF00051FFF78CBF50EA010C00F1138074
:1020D0001CF5000F58BFBCF5000F01D488427047B3
:1020E00007D710F5000F58BF11F5000F15D488421F
:1020F0007047894270471CF5000F04D5BCF5000FEE
:10210000F7D5814270474FF0807C1CEB400F38BF01
:102110001CEB410F01D28142704710B500F008F866
:10212000922449004FF000504FF08051FFF758BF04
:102130000EF1020E2EF0030E5EF8044B244204D47E
:102140004FEA4102B2F17F4F11D84FEA4003B3F199
:102150007F4F0CD80ED14FEAD07C0CEB4C0C0CF11D
:10216000020CB2F17F4F08BF4CEBD17C04E04FF082
:10217000080C01E04FEAD17C0CEB4C0324FA03F489
:1021800004F00704B4F1040C06D20EEB840CBDE895
:1021900010404CF0010C6047DFE80CF00708020229
:1021A0004FF00040A0F5800010BD0846420018BF67
:1021B000D2F1807288BF00F0004010BDFF2141EADB
:1021C000D050C00570470000000000000000010270
:1021D00003040607080901020203040506070809AB
:1021E0000A0B0C0D0E0F1010082200080000002032
:1021F0001000000050010008182200081000002004
:102200000807000070010008010000001000000035
:0822100000127A00000000003A
:04000005080000ED02
:00000001FF
